:020000040800F2
:100000000000022065CA0008CDC80008DBC800084F
:10001000E1C80008E7C80008EDC8000800000000BB
:10002000000000000000000000000000F15F000878
:10003000F3C80008000000004162000841C6000843
:10004000B5CA0008B5CA0008B5CA0008B5CA000894
:10005000B5CA0008B5CA0008B5CA0008B5CA000884
:10006000B5CA0008B5CA0008B5CA0008B5CA000874
:10007000B5CA0008B5CA0008B5CA0008B5CA000864
:10008000B5CA0008B5CA0008B5CA0008B5CA000854
:10009000B1940008B5CA0008B5CA0008B5CA00087E
:1000A000B5CA0008B5CA0008B5CA0008B5CA000834
:1000B0003D9A0008659A00088D9A0008B5CA0008A4
:1000C000B5CA0008B5CA0008B5CA0008B5CA000814
:1000D000B5CA00086DBB000819BD000881C0000842
:1000E000B5CA0008B5CA0008B5CA0008DD9A0008FC
:1000F000DDAF0008B5CA0008D5AB0008B5CA0008D6
:10010000B5CA0008B5CA0008B59A0008B5CA000803
:10011000B5CA000801C20008B5CA0008B5CA00087F
:10012000B5CA0008B5CA0008B5CA0008B5CA0008B3
:10013000B5CA0008B5CA0008B5CA0008B5CA0008A3
:10014000B5CA0008B5CA0008B5CA0008B5CA000893
:10015000B5CA0008B5CA0008B5CA0008B5CA000883
:10016000B5CA0008B5CA0008B5CA0008B5CA000873
:10017000B5CA0008B5CA0008B5CA000800000000EA
:08018000B5CA0008B5CA000869
:1001900010B5054C237833B9044B13B10448AFF3C1
:1001A00000800123237010BDE0000020000000004B
:1001B0002400010808B5034B1BB103490348AFF302
:1001C000008008BD00000000E400002024000108B9
:1001D00081F0004102E000BF83F0004330B54FEAF8
:1001E00041044FEA430594EA050F08BF90EA020F65
:1001F0001FBF54EA000C55EA020C7FEA645C7FEAF8
:10020000655C00F0E2804FEA5454D4EB5555B8BF1A
:100210006D420CDD2C4480EA020281EA030382EA8B
:10022000000083EA010180EA020281EA0303362D1D
:1002300088BF30BD11F0004F4FEA01314FF4801CF0
:100240004CEA113102D0404261EB410113F0004F02
:100250004FEA03334CEA133302D0524263EB4303B9
:1002600094EA050F00F0A780A4F10104D5F1200E57
:100270000DDB02FA0EFC22FA05F2801841F10001B2
:1002800003FA0EF2801843FA05F359410EE0A5F186
:1002900020050EF1200E012A03FA0EFC28BF4CF0B7
:1002A000020C43FA05F3C01851EBE37101F000456D
:1002B00007D54FF0000EDCF1000C7EEB00006EEB7A
:1002C0000101B1F5801F1BD3B1F5001F0CD3490804
:1002D0005FEA30004FEA3C0C04F101044FEA44525B
:1002E00012F5800F80F09A80BCF1004F08BF5FEAE2
:1002F000500C50F1000041EB045141EA050130BDC2
:100300005FEA4C0C404141EB0101013C28BFB1F5D3
:10031000801FE9D291F0000F04BF01460020B1FA1E
:1003200081F308BF2033A3F10B03B3F120020CDAF1
:100330000C3208DD02F1140CC2F10C0201FA0CF0CF
:1003400021FA02F10CE002F11402D8BFC2F1200C34
:1003500001FA02F120FA0CFCDCBF41EA0C019040EA
:10036000E41AA2BF01EB0451294330BD6FEA040433
:100370001F3C1CDA0C340EDC04F11404C4F120021E
:1003800020FA04F001FA02F340EA030021FA04F330
:1003900045EA030130BDC4F10C04C4F1200220FA87
:1003A00002F001FA04F340EA0300294630BD21FAC5
:1003B00004F0294630BD94F0000F83F4801306BF8B
:1003C00081F480110134013D4EE77FEA645C18BF7F
:1003D0007FEA655C29D094EA050F08BF90EA020F16
:1003E00005D054EA000C04BF1946104630BD91EA0E
:1003F000030F1EBF0021002030BD5FEA545C05D111
:100400004000494128BF41F0004130BD14F580044F
:100410003CBF01F5801130BD01F0004545F0FE41C3
:1004200041F470014FF0000030BD7FEA645C1ABFF8
:10043000194610467FEA655C1CBF0B46024650EA2F
:10044000013406BF52EA033591EA030F41F400215B
:1004500030BD00BF90F0000F04BF0021704730B5E1
:100460004FF4806404F132044FF000054FF00001B6
:1004700050E700BF90F0000F04BF0021704730B577
:100480004FF4806404F1320410F0004548BF40424C
:100490004FF000013EE700BF42004FEAE2014FEAA1
:1004A00031014FEA02701FBF12F07F4393F07F4F7C
:1004B00081F06051704732F07F4208BF704793F07F
:1004C0007F4F04BF41F40021704730B54FF4607492
:1004D00001F0004521F000411CE700BF50EA010295
:1004E00008BF704730B54FF000050AE050EA01023E
:1004F00008BF704730B511F0004502D5404261EBAE
:1005000041014FF4806404F132045FEA915C3FF4EE
:10051000D8AE4FF003025FEADC0C18BF03325FEA8B
:10052000DC0C18BF033202EBDC02C2F1200300FA3C
:1005300003FC20FA02F001FA03FE40EA0E0021FA61
:1005400002F11444BDE600BF70B54FF0FF0C4CF44F
:10055000E06C1CEA11541DBF1CEA135594EA0C0F01
:1005600095EA0C0F00F0DEF82C4481EA030621EA3C
:100570004C5123EA4C5350EA013518BF52EA033577
:1005800041F4801143F4801338D0A0FB02CE4FF029
:100590000005E1FB02E506F00042E0FB03E54FF059
:1005A0000006E1FB03569CF0000F18BF4EF0010E51
:1005B000A4F1FF04B6F5007F64F5407404D25FEA4D
:1005C0004E0E6D4146EB060642EAC62141EA555100
:1005D0004FEAC52040EA5E504FEACE2EB4F1FD0C42
:1005E00088BFBCF5E06F1ED8BEF1004F08BF5FEAC0
:1005F000500E50F1000041EB045170BD06F0004672
:1006000046EA010140EA020081EA0301B4EB5C041E
:10061000C2BFD4EB0C0541EA045170BD41F4801116
:100620004FF0000E013C00F3AB8014F1360FDEBF3B
:10063000002001F0004170BDC4F10004203C35DA17
:100640000C341BDC04F11404C4F1200500FA05F39A
:1006500020FA04F001FA05F240EA020001F000423B
:1006600021F0004110EBD37021FA04F642EB0601B1
:100670005EEA430E08BF20EAD37070BDC4F10C04DB
:10068000C4F1200500FA04F320FA05F001FA04F29F
:1006900040EA020001F0004110EBD37041F100018B
:1006A0005EEA430E08BF20EAD37070BDC4F1200596
:1006B00000FA05F24EEA020E20FA04F301FA05F2FE
:1006C00043EA020321FA04F001F0004121FA04F2A6
:1006D00020EA020000EBD3705EEA430E08BF20EA76
:1006E000D37070BD94F0000F0FD101F000464000B0
:1006F00041EB010111F4801F08BF013CF7D041EA32
:10070000060195F0000F18BF704703F00046520035
:1007100043EB030313F4801F08BF013DF7D043EA06
:100720000603704794EA0C0F0CEA135518BF95EABC
:100730000C0F0CD050EA410618BF52EA4306D1D143
:1007400081EA030101F000414FF0000070BD50EA62
:10075000410606BF1046194652EA430619D094EAEC
:100760000C0F02D150EA013613D195EA0C0F05D1D6
:1007700052EA03361CBF104619460AD181EA03012A
:1007800001F0004141F0FE4141F470014FF00000E2
:1007900070BD41F0FE4141F4780170BD70B54FF07D
:1007A000FF0C4CF4E06C1CEA11541DBF1CEA1355FD
:1007B00094EA0C0F95EA0C0F00F0A7F8A4EB0504DF
:1007C00081EA030E52EA03354FEA013100F08880D6
:1007D0004FEA03334FF0805545EA131343EA12639F
:1007E0004FEA022245EA111545EA10654FEA002654
:1007F0000EF000419D4208BF964244F1FD0404F50D
:10080000407402D25B084FEA3202B61A65EB030568
:100810005B084FEA32024FF480104FF4002CB6EB25
:10082000020E75EB030E22BFB61A754640EA0C00A5
:100830005B084FEA3202B6EB020E75EB030E22BFE5
:10084000B61A754640EA5C005B084FEA3202B6EB26
:10085000020E75EB030E22BFB61A754640EA9C00E5
:100860005B084FEA3202B6EB020E75EB030E22BFB5
:10087000B61A754640EADC0055EA060E18D04FEA73
:10088000051545EA16754FEA06164FEAC30343EA13
:1008900052734FEAC2025FEA1C1CC0D111F4801FE0
:1008A0000BD141EA00014FF000004FF0004CB6E7D9
:1008B00011F4801F04BF01430020B4F1FD0C88BF78
:1008C000BCF5E06F3FF6AFAEB5EB030C04BFB6EB83
:1008D000020C5FEA500C50F1000041EB045170BD76
:1008E0000EF0004E4EEA113114EB5C04C2BFD4EBA3
:1008F0000C0541EA045170BD41F480114FF0000E27
:10090000013C90E645EA060E8DE60CEA135594EAA2
:100910000C0F08BF95EA0C0F3FF43BAF94EA0C0FA5
:100920000AD150EA01347FF434AF95EA0C0F7FF41A
:1009300025AF104619462CE795EA0C0F06D152EA6E
:1009400003353FF4FDAE1046194622E750EA410652
:1009500018BF52EA43067FF4C5AE50EA41047FF463
:100960000DAF52EA43057FF4EBAE12E74FF0FF3CC8
:1009700006E000BF4FF0010C02E000BF4FF0010C99
:100980004DF804CD4FEA410C7FEA6C5C4FEA430C12
:1009900018BF7FEA6C5C1BD001B050EA410C0CBF61
:1009A00052EA430C91EA030F02BF90EA020F0020C3
:1009B000704710F1000F91EA030F58BF994208BF2A
:1009C00090422CBFD8176FEAE37040F001007047E7
:1009D0004FEA410C7FEA6C5C02D150EA013C07D13E
:1009E0004FEA430C7FEA6C5CD6D152EA033CD3D089
:1009F0005DF8040B704700BF8446104662468C4683
:100A00001946634600E000BF01B5FFF7B7FF0028B5
:100A100048BF10F1000F01BD4DF808EDFFF7F4FFDE
:100A20000CBF012000205DF808FB00BF4DF808ED69
:100A3000FFF7EAFF34BF012000205DF808FB00BF8C
:100A40004DF808EDFFF7E0FF94BF012000205DF8AE
:100A500008FB00BF4DF808EDFFF7CEFF94BF012063
:100A600000205DF808FB00BF4DF808EDFFF7C4FF5C
:100A700034BF012000205DF808FB00BF4FEA410CA5
:100A80007FEA6C5C02D150EA013C0AD14FEA430C88
:100A90007FEA6C5C02D152EA033C02D14FF00000C5
:100AA00070474FF0010070474FEA410212F5001203
:100AB00015D211D56FF47873B3EB625212D94FEAA5
:100AC000C12343F0004343EA505311F0004F23FA8F
:100AD00002F018BF404270474FF00000704750EAE4
:100AE000013005D111F0004008BF6FF000407047A1
:100AF0004FF00000704700BF4FEA4102B2F1E043FF
:100B000024BFB3F5001CDCF1FE5C0DD901F0004CF4
:100B10004FEAC0024CEA5070B2F1004F40EB830044
:100B200008BF20F00100704711F0804F21D113F170
:100B30003872BCBF01F00040704741F480114FEAA9
:100B40005252C2F11802C2F1200C10FA0CF320FA32
:100B500002F018BF40F001004FEAC1234FEAD3234F
:100B600003FA0CFC40EA0C0023FA02F34FEA4303B9
:100B7000CCE77FEA625307D150EA01331EBF4FF042
:100B8000FE4040F44000704701F0004040F0FE405D
:100B900040F40000704700BF0000000000000000AB
:100BA00001F0FF01102A2BDB10F0070F08D010F81E
:100BB000013B013A8B422DD010F0070F42B3F6D122
:100BC000F0B441EA012141EA014122F007047FF03B
:100BD00000070023F0E80256083C85EA010586EA92
:100BE000010685FA47F5A3FA87F586FA47F6A5FACE
:100BF00087F68EB9EED1F0BC01F0FF0102F00702DA
:100C000032B110F8013B013A83EA010313B1F8D184
:100C10000020704701387047002D06BF3546033865
:100C2000073815F0010F07D1013015F4807F02BF9E
:100C3000013015F4C03F0130F0BC0138704700BFEF
:100C4000B0B58AB000AF87ED030AC7ED020A87EDA1
:100C5000011ACF4B7B62CF4B1B78002B03D0CD4BBF
:100C60001B78012B10D197ED011AD7ED020A97EDF1
:100C7000030A01F077FFC84B1B68FB60C64B5B683B
:100C8000BB60C54B9B687B60C24B1B78002B40F060
:100C9000AD8097ED027AD7ED037A37EE277ABF4B16
:100CA000D3ED006ABE4BD3ED007A76EEA76AD7ED9E
:100CB000017A66EEA77A77EE677ABA4BC3ED027ACD
:100CC00097ED037AD7ED027A37EE677AB34BD3ED1F
:100CD000006AB34BD3ED007A76EEA76AD7ED017ABE
:100CE00066EEA77A77EE677AAF4BC3ED027A97ED9F
:100CF000027AD7ED037A37EE277AA84BD3ED006A54
:100D0000A74BD3ED007A76EEA76AD7ED017A66EEAF
:100D1000A77A77EE277AA54BC3ED027A97ED037A8F
:100D2000D7ED027A37EE677A9C4BD3ED006A9C4B85
:100D3000D3ED007A76EEA76AD7ED017A66EEA77A50
:100D400077EE277A9A4BC3ED027A964B93ED027AAF
:100D5000D7ED097AF1EE677A97ED091AF0EE670A96
:100D6000B0EE470A00F09CFEF0EE407A8D4BC3EDEA
:100D7000027A8D4B93ED027AD7ED097AF1EE677A1C
:100D800097ED091AF0EE670AB0EE470A00F088FE08
:100D9000F0EE407A844BC3ED027A844B93ED027AF5
:100DA000D7ED097AF1EE677A97ED091AF0EE670A46
:100DB000B0EE470A00F074FEF0EE407A7B4BC3EDD4
:100DC000027A7B4B93ED027AD7ED097AF1EE677ADE
:100DD00097ED091AF0EE670AB0EE470A00F060FEE0
:100DE000F0EE407A724BC3ED027A9FE3694B1B78B9
:100DF000012B40F0E1806F4B93ED007AD7ED017A43
:100E000027EE277AD7ED027A77EE277A654BC3ED86
:100E1000027AF868FFF740FB59A3D3E90023FFF7F4
:100E200093FB02460B4614461D46D7ED027AB6EEFA
:100E3000007A67EE877A17EE900AFFF72DFB0246DD
:100E40000B4620462946FFF7C7F902460B461446D3
:100E50001D46584B93ED007AD7ED017A67EE277A5D
:100E600017EE900AFFF718FB02460B46204629466C
:100E7000FFF7B4F902460B4610461946FFF73CFE51
:100E80000346494A9360F868FFF706FB3EA3D3E99F
:100E90000023FFF759FB02460B4614461D46D7EDCB
:100EA000027AB6EE007A67EE877A17EE900AFFF7BD
:100EB000F3FA02460B4620462946FFF78DF9024613
:100EC0000B4614461D463B4B93ED007AD7ED017A55
:100ED00067EE277A17EE900AFFF7DEFA02460B4616
:100EE00020462946FFF77AF902460B461046194676
:100EF000FFF702FE03462D4A93602A4B93ED027AD8
:100F0000D7ED097AF1EE677A97ED091AF0EE670AE4
:100F1000B0EE470A00F0C4FDF0EE407A214BC3ED7D
:100F2000027A214B93ED027AD7ED097AF1EE677AD6
:100F300097ED091AF0EE670AB0EE470A00F0B0FD2F
:100F4000F0EE407A184BC3ED027A184B93ED027A1B
:100F5000D7ED097AF1EE677A97ED091AF0EE670A94
:100F6000B0EE470A00F09CFDF0EE407A0F4BC3ED67
:100F7000027A0F4B4FF000029A60D7E2AFF3008085
:100F8000AA4C58E87AB6EBBFAA4C58E87AB6EB3FC1
:100F9000000060407401002088010020F001002062
:100FA000EC01002094010020A8010020BC010020D9
:100FB000D0010020F4010020C94B1B78022B40F027
:100FC0001F81C84B3B627B68FB61C74B1B6818469F
:100FD000FFF762FA04460D46F869FFF75DFA02462C
:100FE0000B4643EC102B0BF013FF53EC102B204659
:100FF0002946FFF7D3FB02460B4614461D46BB4B62
:10100000D3ED007AB6EE007A67EE877A17EE900A93
:10101000FFF742FA02460B4620462946FFF7DCF866
:1010200002460B4610461946FFF766FD0346BB61B4
:101030009FEDAF1ADFEDAF0A97ED070A00F030FD24
:1010400087ED070AD7ED077AF5EE407AF1EE10FA50
:101050002CD0A64BD3ED007AB6EE007A67EE877AF5
:1010600097ED067A37EE677AD7ED037A67EE276A4F
:1010700097ED067AC6EE877A9F4BC3ED027A9B4BBB
:10108000D3ED007AB6EE007A27EE877AD7ED067AAE
:1010900037EE277AD7ED037A67EE276A97ED067A5F
:1010A000C6EE877A954BC3ED027A05E0924AFB685B
:1010B0009360924AFB689360F869FFF7EDF9024686
:1010C0000B469FED7D1B43EC102B0BF0D5FE51EC36
:1010D000100B7BA3D3E90023FFF736FA02460B4639
:1010E00014461D46F869FFF7D7F902460B469FEDF7
:1010F000761B43EC102B0BF0BFFE51EC100B74A3CE
:10110000D3E90023FFF720FA02460B462046294682
:10111000FFF764F802460B4614461D46D7ED077AE2
:101120009FED777A67EE877A17EE900AFFF7B4F9AA
:1011300002460B4620462946FFF74EF802460B466C
:101140001046194664A3D3E90023FFF747F8024687
:101150000B4610461946FFF7CFFC03467B61D7EDDF
:10116000057A9FED687A37EEC77AD7ED087A67EE91
:10117000277A9FED657A77EE877AFDEEE77A17EEAC
:10118000902A624B1A605C4B93ED027AD7ED097A94
:10119000F1EE677A97ED091AF0EE670AB0EE470AAA
:1011A00000F07EFCF0EE407A534BC3ED027A534BD5
:1011B00093ED027AD7ED097AF1EE677A97ED091A85
:1011C000F0EE670AB0EE470A00F06AFCF0EE407AF3
:1011D0004A4BC3ED027A4E4B4FF000029A604D4BE2
:1011E0004FF000029A60494B1B6840F698024FF49A
:1011F0004871184600F07DFC0346444A136095E1AF
:10120000374B1B78032B40F08780384B93ED007AE7
:10121000D7ED017A27EE277AF0EE006AC7EE267A3C
:1012200097ED037A77EE677A334BC3ED027A2F4B53
:1012300093ED007AD7ED017A67EE277AF0EE006A37
:1012400087EEA67AD7ED037A77EE277A2B4BC3ED9C
:10125000027A294B93ED027AD7ED097AF1EE677A9B
:1012600097ED091AF0EE670AB0EE470A00F018FC95
:10127000F0EE407A204BC3ED027A204B93ED027AD8
:10128000D7ED097AF1EE677A97ED091AF0EE670A61
:10129000B0EE470A00F004FCF0EE407A174BC3EDC5
:1012A000027A1B4B4FF000029A601A4B4FF000027B
:1012B0009A603BE1AFF300800000000000000840AE
:1012C000000000809318E4BF000000000000004010
:1012D00000000000D34DF43F00000000022BF93F56
:1012E00074010020D7231F44F0010020EC010020EE
:1012F0000AD7A33E48E1FABE94010020A8010020CD
:10130000E5D0E23F4C37C93F0080BB447801002064
:10131000BC010020D0010020864B1B78042B40F03C
:10132000AD80854B93ED007A844BD3ED007A37EE98
:10133000277AD7ED017A27EE277AF0EE006AC7EE1A
:10134000267A97ED037A77EE677A7D4BC3ED027AC2
:10135000794B93ED007A794BD3ED007A37EE277A0B
:10136000D7ED017A27EE277AF0EE006AC7EE267AEB
:1013700097ED037A77EE677A724BC3ED027A6E4B84
:1013800093ED007A6D4BD3ED007A37EE277AD7EDE7
:10139000017A67EE277AF0EE006A87EEA67AD7ED3B
:1013A000037A77EE277A684BC3ED027A624B93EDAE
:1013B000007A624BD3ED007A37EE277AD7ED017AC7
:1013C00067EE277AF0EE006A87EEA67AD7ED037A09
:1013D00077EE277A5D4BC3ED027A594B93ED027A93
:1013E000D7ED097AF1EE677A97ED091AF0EE670A00
:1013F000B0EE470A00F054FBF0EE407A504BC3EDDC
:10140000027A504B93ED027AD7ED097AF1EE677AC2
:1014100097ED091AF0EE670AB0EE470A00F040FBBC
:10142000F0EE407A474BC3ED027A474B93ED027AD8
:10143000D7ED097AF1EE677A97ED091AF0EE670AAF
:10144000B0EE470A00F02CFBF0EE407A3E4BC3EDC5
:10145000027A3E4B93ED027AD7ED097AF1EE677A84
:1014600097ED091AF0EE670AB0EE470A00F018FB94
:10147000F0EE407A354BC3ED027A57E02D4B1B78E6
:10148000052B53D12C4B93ED007AD7ED017A27EE43
:10149000277AF0EE006AC7EE267A97ED037A77EEA8
:1014A000677A274BC3ED027A234B93ED007AD7ED91
:1014B000017A67EE277AF0EE006A87EEA67AD7ED1A
:1014C000037A77EE277A1F4BC3ED027A1C4B93ED1C
:1014D000027AD7ED097AF1EE677A97ED091AF0EE04
:1014E000670AB0EE470A00F0DBFAF0EE407A144BE0
:1014F000C3ED027A134B93ED027AD7ED097AF1EE40
:10150000677A97ED091AF0EE670AB0EE470A00F025
:10151000C7FAF0EE407A0B4BC3ED027A0A4B4FF05C
:1015200000029A60094B4FF000029A6000BF283712
:10153000BD46B0BD74010020EC010020F001002088
:1015400094010020A8010020BC010020D00100204F
:1015500080B586B002AF78600BF07EF80346FB6082
:1015600007F10C030A21184605F0A6FCC24B1B68C4
:1015700040F6B732934204DCBF4B1B680133BE4ACE
:10158000136001F08BF9BD4B1B68002BE8D1BC4BFD
:101590001B78002B02D000F0B5FC1EE0B94B1B7885
:1015A000002B02D000F0E6FF17E0B74B1B78002BB2
:1015B00002D000F08DFE10E0B44BD3ED007AB44BB6
:1015C00093ED007AB34BD3ED006AB0EE661AF0EEFD
:1015D000470AB0EE670AFFF733FB01F03BF9AE4B69
:1015E000D3ED007AFDEEE77A17EE900A00F09AFA52
:1015F0000346002B40F03781A84BD3ED007AA74B70
:1016000093ED027AF0EE470AB0EE670A00F0CAFAEC
:1016100007EE900AF8EEE77AA04BC3ED017AA04BF3
:10162000D3ED007A9E4B93ED027AF0EE470AB0EECE
:10163000670A00F023FB07EE900AF8EEE77A984B72
:10164000C3ED017A974BD3ED007A964B93ED027A76
:10165000F0EE470AB0EE670A00F07CFB07EE900A56
:10166000F8EEE77A8F4BC3ED017A8F4BD3ED007A1A
:101670008D4B93ED027AF0EE470AB0EE670A00F068
:10168000D5FB07EE900AF8EEE77A874BC3ED017AB7
:1016900044F23C1000F088F9844B1B78052B3FF690
:1016A0005FAF01A252F823F0C11600080B17000823
:1016B0005517000899170008DB17000825180008BF
:1016C000764BD3ED017ABDEEE77A754BD3ED017A17
:1016D000F1EE677AFDEEE76A724BD3ED017AF1EE37
:1016E000677ABDEEE76A704BD3ED017AFDEEE77ADB
:1016F0000023009317EE903A16EE102A16EE901A79
:1017000017EE100A00F0D6F8B5E0644BD3ED017A7D
:10171000F1EE677ABDEEE77A614BD3ED017AFDEE2B
:10172000E76A604BD3ED017AF1EE677ABDEEE76AC6
:101730005D4BD3ED017AFDEEE77A0023009317EEBF
:10174000903A16EE102A16EE901A17EE100A00F0D4
:10175000B1F890E0514BD3ED017ABDEEE77A504BF2
:10176000D3ED017AFDEEE76A4E4BD3ED017ABDEE83
:10177000E76A4D4BD3ED017AFDEEE77A4C4B1B68DF
:10178000009317EE903A16EE102A16EE901A17EE06
:10179000100A00F08FF86EE0404BD3ED017ABDEEF9
:1017A000E77A3F4BD3ED017AFDEEE76A3D4BD3ED8F
:1017B000017ABDEEE76A3C4BD3ED017AFDEEE77AA4
:1017C0000023009317EE903A16EE102A16EE901AA8
:1017D00017EE100A00F06EF84DE0304BD3ED017AB1
:1017E000BDEEE77A2E4BD3ED017AF1EE677AFDEE8E
:1017F000E76A2C4BD3ED017AF1EE677ABDEEE76A2A
:10180000294BD3ED017AFDEEE77A0023009317EE22
:10181000903A16EE102A16EE901A17EE100A00F003
:1018200049F828E01D4BD3ED017ABDEEE77A1C4B59
:10183000D3ED017AFDEEE76A1A4BD3ED017ABDEEE6
:10184000E76A194BD3ED017AFDEEE77A00230093A6
:1018500017EE903A16EE102A16EE901A17EE100AAE
:1018600000F028F807E00023009300230022002165
:10187000002000F01FF873E6FC0000201802002092
:10188000F9010020FA010020F80100207C0100206D
:1018900080010020840100201856002094010020BF
:1018A000A8010020BC010020D0010020740100200C
:1018B0007801002080B485B000AFF860B9607A602C
:1018C0003B60FB68002B0ADA324B44F29F125A63EA
:1018D000FB6803F583431F332F4A536309E02E4B04
:1018E00044F29F125A63FB68C3F583431F33294AAE
:1018F0005363BB68002B0ADA284B44F29F125A63E9
:10190000BB6803F583431F33244A936309E0234BE9
:1019100044F29F129A63BB68C3F583431F331F4A87
:1019200053637B68002B0ADA1D4B44F29F129A63C3
:101930007B6803F583431F33194A536309E0184B4F
:1019400044F29F125A637B68C3F583431F33144AE2
:1019500093633B68002B0ADA114B44F29F121A641E
:101960003B6803F583431F330D4AD36309E00C4BF7
:1019700044F29F12DA633B68C3F583431F33084A7E
:101980001364084ABB69936300BF1437BD465DF812
:10199000047B704700440140004801400040014082
:1019A000000001400018004080B582B000AF7860B0
:1019B000374BD3ED017A7B685B4207EE103AB8EE05
:1019C000C77A7B6806EE903AF8EEE66AB0EE661AE1
:1019D000F0EE470AB0EE670A00F062F8F0EE407AE7
:1019E0002B4BC3ED017A2B4BD3ED017A7B685B4225
:1019F00007EE103AB8EEC77A7B6806EE903AF8EE3A
:101A0000E66AB0EE661AF0EE470AB0EE670A00F03A
:101A100047F8F0EE407A1F4BC3ED017A1E4BD3ED31
:101A2000017A7B685B4207EE103AB8EEC77A7B68B2
:101A300006EE903AF8EEE66AB0EE661AF0EE470A65
:101A4000B0EE670A00F02CF8F0EE407A124BC3EDCE
:101A5000017A124BD3ED017A7B685B4207EE103AB4
:101A6000B8EEC77A7B6806EE903AF8EEE66AB0EE1A
:101A7000661AF0EE470AB0EE670A00F011F8F0EED1
:101A8000407A064BC3ED017A00BF0837BD4680BDE2
:101A900094010020A8010020BC010020D0010020FA
:101AA00080B485B000AF87ED030AC7ED020A87ED69
:101AB000011A97ED037AD7ED027AB4EEE77AF1EEE8
:101AC00010FA01D5BB680BE097ED037AD7ED017AE8
:101AD000B4EEE77AF1EE10FA01DD7B6800E0FB6816
:101AE00007EE903AB0EE670A1437BD465DF8047B06
:101AF000704780B485B000AFF860B9607A60FA686A
:101B0000BB689A4201DABB6806E0FA687B689A42D1
:101B100001DD7B6800E0FB6818461437BD465DF8C0
:101B2000047B704780B485B000AF78607B68092B78
:101B300007DD164B1B68002B03D0154B1B78012BC0
:101B40001AD10123FB73134B00225A63124B00225C
:101B50005A63124B00225A63104B00229A63104BB7
:101B600000229A630E4B00229A630D4B00221A64E6
:101B70000B4B0022DA6301E00023FB73FB7B18466A
:101B80001437BD465DF8047B704700BF0C824142AC
:101B9000080000200044014000480140004001408E
:101BA0000000014080B483B000AF87ED010AC7EDAB
:101BB000000A97ED007AD7ED017A77EE677A264B27
:101BC000C3ED007A244B93ED007A244BD3ED007AD9
:101BD00037EE677A224BD3ED007A27EE277A214B36
:101BE000D3ED006A1C4BD3ED007A66EEA77A37EE90
:101BF000277A1D4BD3ED007A77EE277A1A4BC3ED87
:101C0000007A194BD3ED007A9FED187AF4EEC77A7B
:101C1000F1EE10FA02DD144B154A1A60124BD3EDA7
:101C2000007A9FED147AF4EEC77AF1EE10FA02D53D
:101C30000D4B114A1A60084B1B68084A13600A4B87
:101C4000D3ED007AFDEEE77A17EE903A18460C379E
:101C5000BD465DF8047B7047140100201801002088
:101C600010000020140000201C0100200078824693
:101C700000788246007882C6007882C680B483B03D
:101C800000AF87ED010AC7ED000A97ED007AD7EDA6
:101C9000017A77EE677A264BC3ED007A244B93EDF9
:101CA000007A244BD3ED007A37EE677A224BD3EDDE
:101CB000007A27EE277A214BD3ED006A1C4BD3ED37
:101CC000007A66EEA77A37EE277A1D4BD3ED007ABD
:101CD00077EE277A1A4BC3ED007A194BD3ED007AD1
:101CE0009FED187AF4EEC77AF1EE10FA02DD144B8C
:101CF000154A1A60124BD3ED007A9FED147AF4EE78
:101D0000C77AF1EE10FA02D50D4B114A1A60084B52
:101D10001B68084A13600A4BD3ED007AFDEEE77AA0
:101D200017EE903A18460C37BD465DF8047B7047B5
:101D300020010020240100201000002014000020B9
:101D4000280100200078824600788246007882C60A
:101D5000007882C680B483B000AF87ED010AC7ED7A
:101D6000000A97ED007AD7ED017A77EE677A264B75
:101D7000C3ED007A244B93ED007A244BD3ED007A27
:101D800037EE677A224BD3ED007A27EE277A214B84
:101D9000D3ED006A1C4BD3ED007A66EEA77A37EEDE
:101DA000277A1D4BD3ED007A77EE277A1A4BC3EDD5
:101DB000007A194BD3ED007A9FED187AF4EEC77ACA
:101DC000F1EE10FA02DD144B154A1A60124BD3EDF6
:101DD000007A9FED147AF4EEC77AF1EE10FA02D58C
:101DE0000D4B114A1A60084B1B68084A13600A4BD6
:101DF000D3ED007AFDEEE77A17EE903A18460C37ED
:101E0000BD465DF8047B70472C01002030010020A6
:101E100010000020140000203401002000788246C9
:101E200000788246007882C6007882C680B483B08B
:101E300000AF87ED010AC7ED000A97ED007AD7EDF4
:101E4000017A77EE677A264BC3ED007A244B93ED47
:101E5000007A244BD3ED007A37EE677A224BD3ED2C
:101E6000007A27EE277A214BD3ED006A1C4BD3ED85
:101E7000007A66EEA77A37EE277A1D4BD3ED007A0B
:101E800077EE277A1A4BC3ED007A194BD3ED007A1F
:101E90009FED187AF4EEC77AF1EE10FA02DD144BDA
:101EA000154A1A60124BD3ED007A9FED147AF4EEC6
:101EB000C77AF1EE10FA02D50D4B114A1A60084BA1
:101EC0001B68084A13600A4BD3ED007AFDEEE77AEF
:101ED00017EE903A18460C37BD465DF8047B704704
:101EE000380100203C0100201000002014000020D8
:101EF000400100200078824600788246007882C641
:101F0000007882C680B582B000AF0123FB71A24B7E
:101F10001B78002B04D0A04B1B78012B40F0C48011
:101F20009E4B1B78013B072B00F2848001A252F8E4
:101F300023F000BF551F00086B1F0008891F000811
:101F4000A71F0008CD1F0008EB1F0008092000088C
:101F50001F200008924B1B68924A1360924B4FF06F
:101F600000021A600123FB716FE08D4B1B688D4AE4
:101F700013608B4BD3ED007AF1EE677A8A4BC3ED99
:101F8000007A0123FB7160E0864B4FF000021A607B
:101F9000834BD3ED007AF1EE677A834BC3ED007A81
:101FA0000123FB7151E07E4BD3ED007AF1EE677AAD
:101FB0007C4BC3ED007A7A4BD3ED007AF1EE677A71
:101FC000794BC3ED007A0123FB713EE0744BD3EDF6
:101FD000007AF1EE677A734BC3ED007A724B4FF0E3
:101FE00000021A600123FB712FE06D4BD3ED007AE4
:101FF000F1EE677A6B4BC3ED007A694B1B686A4A56
:1020000013600123FB7120E0664B4FF000021A6061
:10201000634B1B68644A13600123FB7115E0604B3E
:102020001B68604A13605E4B1B685F4A13600123A4
:10203000FB710AE05B4B4FF000021A605A4B4FF005
:1020400000021A600023FB7100BFFB79002B40F0F7
:10205000C480564B1B78012B0ED1514B93ED007A67
:10206000DFED536AC7EE267A9FED527A67EE877AE4
:10207000514BC3ED007AB0E0504B1B78012B0ED1D1
:10208000474B93ED007ADFED4A6AC7EE267A9FED63
:102090004C7A67EE877A484BC3ED007A9DE0464B59
:1020A0004FF000021A6098E03C4B1B78013B072B75
:1020B00060D801A252F823F0D9200008EB200008D4
:1020C000FB2000080B210008232100083D21000807
:1020D0005521000865210008314B1B68314A136007
:1020E000354B4FF000021A604DE02D4B1B682D4A16
:1020F0001360314B334A1A6045E02A4B4FF000021F
:102100001A602D4B2F4A1A603DE0254BD3ED007A23
:10211000F1EE677A234BC3ED007A274B294A1A6008
:1021200031E01F4BD3ED007AF1EE677A1D4BC3ED22
:10213000007A214B4FF000021A6024E0184BD3EDD7
:10214000007AF1EE677A174BC3ED007A1A4B1E4AFC
:102150001A6018E0134B4FF000021A60164B1A4A2F
:102160001A6010E00E4B1B680E4A1360124B164AA1
:102170001A6008E00B4B4FF000021A600E4B4FF054
:1021800000021A6000BF094B1B78012B1ED10A4BBD
:102190000D4A1A6021E000BF7401002000020020F7
:1021A0000C0000207C01002080010020FE010020A6
:1021B0000000FA43DB0FC93F84010020FF0100202B
:1021C000DB0FC9BFDB0FC9BFDB0FC93F374B1B7824
:1021D000012B02D1364B374A1A60374B1B78022B42
:1021E0000CD1334BD3ED007A37EEA77AF2EE026AC8
:1021F000C7EE267A2E4BC3ED007A2AE02E4B1B78D1
:10220000032B07D02C4B1B78052B03D02A4B1B78B4
:10221000042B1ED1294BD3ED007AF5EEC07AF1EEF6
:1022200010FA07D5224BD3ED007AF1EE677A204BF6
:10223000C3ED007A1E4B93ED007A214BD3ED007A6B
:1022400027EE277ADFED1F6AC7EE267A184BC3ED1B
:10225000007A1A4B93ED007ADFED1B6AC7EE267AFF
:10226000164BC3ED007A194B93ED007ADFED166A39
:10227000C7EE267A154BC3ED007A0D4B1B680C4A4E
:1022800013600E4BD3ED007A104B93ED007A084BA0
:10229000D3ED006AB0EE661AF0EE470AB0EE670AB8
:1022A000FEF7CEFC00BF0837BD4680BDFF01002011
:1022B00084010020DB0FC9BF740100207C010020D5
:1022C0000C0000200000FA4300007A448001002046
:1022D00080B584B000AF14233B60994BD3ED007AF6
:1022E0009FED987A77EEC77AF1EE677AFDEEE77A9E
:1022F00017EE903ABB60944BD3ED007A9FED917A44
:1023000077EEC77AF1EE677AFDEEE77A17EE903A4C
:10231000FB608E4BD3ED007A9FED8A7A77EEC77A19
:10232000F1EE677AFDEEE77A17EE903A7B603B6854
:102330005B42FA689A4205DDFA683B689A4201DA24
:102340000023FB603B685B42BA689A4205DDBA68CD
:102350003B689A4201DA0023BB603B685B427A68C3
:102360009A4205DD7A683B689A4201DA00237B6075
:10237000774BD3ED007AB2EE067AF4EE477AF1EEBF
:1023800010FA0AD1734BD3ED007AB1EE047A77EEEE
:10239000877A704BC3ED007A13E06D4BD3ED007A72
:1023A000B2EE027AF4EE477AF1EE10FA09D1694BF7
:1023B000D3ED007AB1EE047A77EEC77A654BC3EDC0
:1023C000007A644BD3ED007AF5EEC07AF1EE10FAA4
:1023D00003D5604B4FF000021A60FB6807EE903A9D
:1023E000B8EEE77A5B4BD3ED007A27EE277ADFED84
:1023F000556AC7EE267A584BC3ED007ABB6807EEE4
:10240000903AB8EEE77A534BD3ED007A27EE277A6D
:10241000DFED4C6AC7EE267A504BC3ED007A7B683D
:1024200007EE903AF8EEE77A9FED4D7A27EE877A3D
:10243000DFED446AC7EE267A4A4BC3ED007A4A4B79
:102440001B78002B03D0484B1B78012B0FD1454B39
:1024500093ED007A3F4BD3ED007A27EE277ADFED3C
:10246000436AC7EE267A3F4BC3ED007A3BE03E4B12
:102470001B78022B0CD13B4BD3ED007A37EEA77AB9
:10248000F2EE026AC7EE267A364BC3ED007A2AE0F6
:10249000354B1B78032B07D0334B1B78052B03D010
:1024A000314B1B78042B1ED12B4BD3ED007AF5EE6C
:1024B000C07AF1EE10FA07D52A4BD3ED007AF1EE8F
:1024C000677A284BC3ED007A264B93ED007A214BB7
:1024D000D3ED007A27EE277ADFED246AC7EE267A5D
:1024E000204BC3ED007A1C4B93ED007ADFED206AA0
:1024F000C7EE267A184BC3ED007A184B93ED007A9D
:10250000DFED1B6AC7EE267A144BC3ED007A154B3C
:102510001B68144A1360104BD3ED007A0F4B93EDF8
:10252000007A104BD3ED006AB0EE661AF0EE470A5F
:10253000B0EE670AFEF784FB00BF1037BD4680BDD2
:102540000402002000000043080200200C020020CA
:10255000140200200C0000207C01002080010020DB
:10256000DB0FC93F84010020740100200000FA4302
:1025700000007A4480B586B000AF64233B60A74B6F
:102580001B684FF4FA624FF47A711846FFF7B1FAFC
:102590000346A24A1360A24B1B684FF4FA624FF441
:1025A0007A711846FFF7A5FA03469D4A13609D4BC2
:1025B0001B684FF4FA624FF47A711846FFF799FAE4
:1025C0000346984A1360984B1B684FF4FA624FF425
:1025D0007A711846FFF78DFA0346934A1360904BC1
:1025E0001B68A3F2DC537B618F4B1B68A3F2DC53A7
:1025F0003B618C4B1B68A3F2DC53BB60874B1B68B1
:10260000A3F2DC53FB603B685B427A699A4205DDCA
:102610007A693B689A4201DA00237B613B685B423E
:102620003A699A4205DD3A693B689A4201DA002329
:102630003B613B685B42BA689A4205DDBA683B6819
:102640009A4201DA0023BB603B685B42FA689A4217
:1026500005DDFA683B689A4201DA0023FB60BB683B
:1026600007EE903AB8EEE77A704BD3ED007A77EE4A
:10267000277AFDEEE77A17EE903A7B607B68002BB5
:1026800001DA00237B607B697A6802FB03F3684A06
:1026900082FB03125211DB17D31A07EE903AF8EEC1
:1026A000E77A644BC3ED007A3B695B427A6802FBD0
:1026B00003F35F4A82FB03125211DB17D31A07EEB2
:1026C000903AF8EEE77A5C4BC3ED007AFB685B4228
:1026D00007EE903AF8EEE77A9FED587A27EE877A80
:1026E000DFED576AC7EE267A564BC3ED007A564B9C
:1026F0001B78002B03D0544B1B78012B11D17B6826
:1027000007EE903AB8EEE77A4E4BD3ED007A27EE1B
:10271000277ADFED4B6AC7EE267A4A4BC3ED007A83
:102720003DE0494B1B78022B0CD1464BD3ED007A90
:1027300037EEA77AF2EE026AC7EE267A414BC3ED76
:10274000007A2CE0404B1B78032B07D03E4B1B78C4
:10275000052B03D03C4B1B78042B20D1354BD3EDFC
:10276000007AF5EEC07AF1EE10FA07D5354BD3EDCD
:10277000007AF1EE677A334BC3ED007A7B6807EE9F
:10278000903AB8EEE77A2F4BD3ED007A27EE277A0E
:10279000DFED2B6AC7EE267A2A4BC3ED007A254B74
:1027A00093ED007ADFED296AC7EE267A214BC3ED5F
:1027B000007A214B93ED007ADFED246AC7EE267A8A
:1027C0001D4BC3ED007A1F4B1B681E4A1360204B44
:1027D0001B78002B0DD0174B4FF000021A60194BDD
:1027E0004FF000021A601A4B1B78013BDAB2184B0B
:1027F0001A70104BD3ED007A0F4B93ED007A114B0A
:10280000D3ED006AB0EE661AF0EE470AB0EE670A42
:10281000FEF716FA00BF1837BD4680BD58000020ED
:102820005C00002060000020640000200C000020FC
:10283000D34D62107C01002080010020DB0FC93FD6
:102840000000FA43840100207401002000007A4453
:102850000000002080B582B000AF322007F06CF994
:102860000346FB71FB79022B0BD1084B084A116818
:10287000196092889A80074B074A116819609288FC
:102880009A8000BF0837BD4680BD00BFF8550020C4
:1028900000560020085600201056002080B584B055
:1028A00000AF022007F084F80346A54A1360032016
:1028B00007F07EF80346A24A5360042007F078F838
:1028C00003469F4A9360052007F072F803469C4A2E
:1028D000D3609C4B1B78052B00F2E18001A252F8DB
:1028E00023F000BFFD280008432900088D290008B7
:1028F000D1290008152A00085B2A0008904B1B68A4
:1029000007EE903AF8EEE77AC7ED037A8C4B5B68F6
:1029100007EE903AF8EEE77AC7ED027A884B9B68AB
:102920005B4207EE903AF8EEE77AC7ED017A844B06
:10293000DB685B4207EE903AF8EEE77AC7ED007A83
:10294000ADE07F4B1B685B4207EE903AF8EEE77A0A
:10295000C7ED037A7A4B5B685B4207EE903AF8EE7C
:10296000E77AC7ED027A764B9B685B4207EE903AB6
:10297000F8EEE77AC7ED017A714BDB685B4207EE50
:10298000903AF8EEE77AC7ED007A88E06C4B1B6866
:1029900007EE903AF8EEE77AC7ED037A684B5B688A
:1029A0005B4207EE903AF8EEE77AC7ED027A644BA5
:1029B0009B6807EE903AF8EEE77AC7ED017A604B34
:1029C000DB6807EE903AF8EEE77AC7ED007A66E04A
:1029D0005B4B1B6807EE903AF8EEE77AC7ED037A97
:1029E000574B5B685B4207EE903AF8EEE77AC7ED2B
:1029F000027A534B9B6807EE903AF8EEE77AC7ED00
:102A0000017A4F4BDB6807EE903AF8EEE77AC7EDB4
:102A1000007A44E04A4B1B6807EE903AF8EEE77AFA
:102A2000C7ED037A464B5B6807EE903AF8EEE77A1B
:102A3000C7ED027A424B9B685B4207EE903AF8EE94
:102A4000E77AC7ED017A3E4BDB685B4207EE903ACE
:102A5000F8EEE77AC7ED007A21E0394B1B6807EE04
:102A6000903AF8EEE77AC7ED037A354B5B685B4244
:102A700007EE903AF8EEE77AC7ED027A304B9B68A2
:102A800007EE903AF8EEE77AC7ED017A2C4BDB6857
:102A900007EE903AF8EEE77AC7ED007A00BFD7ED7F
:102AA000037A9FED297A27EE877A284BD3ED007AB7
:102AB00067EE276A264B93ED007AC6EE877A254BA0
:102AC000C3ED007AD7ED027A9FED1F7A27EE877A61
:102AD0001E4BD3ED007A67EE276A1D4B93ED007A0B
:102AE000C6EE877A1C4BC3ED007AD7ED017A9FEDD5
:102AF000167A27EE877A154BD3ED007A67EE276AB0
:102B0000134B93ED007AC6EE877A144BC3ED007A2F
:102B1000D7ED007A9FED0C7A27EE877A0B4BD3ED39
:102B2000007A67EE276A0A4B93ED007AC6EE877A41
:102B30000B4BC3ED007A00BF1037BD4680BD00BF10
:102B400000010020740100200000C842E8010020BC
:102B5000E401002094010020A8010020BC01002015
:102B6000D001002080B52DED028B86B000AF87ED3F
:102B7000030AC7ED020A87ED011A804B7B61D7ED8E
:102B8000037AF5EEC07AF1EE10FA0ADD7C4B93ED94
:102B9000007AD7ED057A77EE277A794BC3ED007A84
:102BA00022E0D7ED037AF5EEC07AF1EE10FA0AD5FD
:102BB000734B93ED007AD7ED057A77EE677A704B19
:102BC000C3ED007A10E0D7ED037AF5EE407AF1EE2E
:102BD00010FA09D16A4BD3ED007A9FED6A7A67EE5D
:102BE000877A674BC3ED007AD7ED027AF5EEC07AAB
:102BF000F1EE10FA0ADD624B93ED017AD7ED057A1A
:102C000077EE277A5E4BC3ED017A22E0D7ED027AA8
:102C1000F5EEC07AF1EE10FA0AD5594B93ED017A30
:102C2000D7ED057A77EE677A554BC3ED017A10E060
:102C3000D7ED027AF5EE407AF1EE10FA09D1504B59
:102C4000D3ED017A9FED4F7A67EE877A4C4BC3ED57
:102C5000017AD7ED017AF5EEC07AF1EE10FA0ADDCD
:102C6000474B93ED027AD7ED057A77EE277A444BFE
:102C7000C3ED027A22E0D7ED017AF5EEC07AF1EEEB
:102C800010FA0AD53E4B93ED027AD7ED057A77EE2E
:102C9000677A3B4BC3ED027A10E0D7ED017AF5EE8F
:102CA000407AF1EE10FA09D1354BD3ED027A9FED5F
:102CB000357A67EE877A324BC3ED027A304B93ED6B
:102CC000008A97ED030A00F05FF8F0EE407AF1EE2B
:102CD000678A97ED030A00F057F8F0EE407AB0EEFD
:102CE000671AF0EE680AB0EE480AFEF7D9FEF0EE79
:102CF000407A234BC3ED007A214B93ED018A97ED87
:102D0000020A00F041F8F0EE407AF1EE678A97EDA2
:102D1000020A00F039F8F0EE407AB0EE671AF0EEF1
:102D2000680AB0EE480AFEF7BBFEF0EE407A144B9C
:102D3000C3ED017A124B93ED028A97ED010A00F080
:102D400023F8F0EE407AF1EE678A97ED010A00F081
:102D50001BF8F0EE407AB0EE671AF0EE680AB0EEBB
:102D6000480AFEF79DFEF0EE407A054BC3ED027A6D
:102D700000BF1837BD46BDEC028B80BD0AD7233C8F
:102D8000880100206666663F80B483B000AF87ED9F
:102D9000010AD7ED017AF5EEC07AF1EE10FA02DB06
:102DA000D7ED017A03E0D7ED017AF1EE677AB0EE64
:102DB000670A0C37BD465DF8047B704700000000D1
:102DC00080B500AF6E4B4FF4AD721A600A21092036
:102DD00005F0D4FF03461A46694B1B6892FBF3F3D8
:102DE000DAB2684B1A70674B1B78052B02D9654B1A
:102DF00005221A70634B1B78052B69D801A252F883
:102E000023F000BF1D2E00083B2E0008592E00089D
:102E1000772E0008952E0008B32E00089FED5A3A31
:102E2000F2EE0A2AB3EE0E2ADFED581A9FED581A79
:102E30009FED470B00F0BEF84AE09FED563AF2EEE8
:102E40000A2AB3EE0E2ADFED541A9FED501A9FEDB9
:102E5000420B00F0AFF83BE09FED503AF2EE0A2A49
:102E6000B3EE0E2ADFED491A9FED4D1A9FED3C0B94
:102E700000F0A0F82CE09FED493AF2EE0A2AB3EEFA
:102E80000E2ADFED421A9FED411A9FED370B00F03D
:102E900091F81DE09FED413AF2EE0A2AB3EE0E2AB8
:102EA000DFED3A1A9FED3F1A9FED310B00F082F8EB
:102EB0000EE09FED3D3AF2EE0A2AB3EE0E2ADFED68
:102EC000331A9FED321A9FED2C0B00F073F800BF00
:102ED0002C4B1B78052B39D801A252F823F000BFE8
:102EE000F92E0008072F0008152F0008232F0008CF
:102EF000312F00083F2F00082C4B08221A602C4B62
:102F00000E221A6022E0294B06221A60284B0A2260
:102F10001A601BE0254B04221A60254B07221A6019
:102F200014E0224B04221A60214B07221A600DE0A4
:102F30001E4B08221A601E4B0B221A6006E01B4B28
:102F400004221A601A4B07221A6000BF00BF80BD1E
:102F5000022B8716D9CEB73F00000000000000000A
:102F6000000000806ABCC43F000000A0EFA7C63F7D
:102F7000000000C09DEFC73F000000E07A14CE3F84
:102F800070010020740100209A99993D0000000012
:102F90007B14AE3D8FC2753D643BDF3DB81E853D61
:102FA000BC74133EE926313EC520303D1C02002092
:102FB0002002002080B588B000AF87ED060B87EDBA
:102FC000051AC7ED041A87ED032AC7ED022A87ED1B
:102FD000013AD7E90601FDF78FFD0346214A136048
:102FE000204A7B6953601F4A3B695361D7ED037ADE
:102FF000FDEEE77A17EE902A1A4B9A60D7ED027A27
:10300000FDEEE77A17EE902A164BDA60154A7B68D8
:103010001361144BDB68134A926802FB03F39B00B5
:1030200007EE903AF8EEE77A0F4BC3ED007A0D4BBE
:10303000D3ED047A9FED0D7A67EE877A0C4BC3EDE2
:10304000007A084B1B680B4A1360064B5B680A4A00
:103050001360044B5B69094A136000BF2037BD460B
:1030600080BD00BF44010020E4010020DB0F494087
:10307000E8010020EC010020F0010020F401002014
:1030800080B584B000AF786009F0E6FA0346BB6013
:103090000023FB6007F108036421184603F00CFFCE
:1030A000574B1B68312B03DC564B01221A600AE098
:1030B000534B1B68322B06DD514B1B68632B02DC24
:1030C000504B00221A60504B1B68012B03D04F4B12
:1030D0001B68012B02D14E4B00221A604C4B1B681F
:1030E000042B04DC4A4B1B680133494A1360484BEC
:1030F0001B68042B03DC434B01221A6006E0444B9F
:103100001B68052B02D13F4B00221A600023FB6095
:103110000EE005F05DFEB0EE407A3E4BD3ED007A56
:1031200077EE277A3B4BC3ED007AFB680133FB60F7
:10313000FB68092BEDDD374B93ED007AF2EE046A64
:10314000C7EE267A344BC3ED007A324B4FF00002C3
:103150001A602D4B1B68012B04D12B4B1B680133CC
:10316000294A1360294B1B68012B04D1274B1B688C
:103170000133264A1360284BD3ED007A9FED277A5E
:10318000F4EEC77AF1EE10FA03DB234B244A1A60FF
:1031900030E0214BD3ED007AB2EE047AF4EEC77A38
:1031A000F1EE10FA13DB1C4BD3ED007AB2EE057A88
:1031B000F4EEC77AF1EE10FA09D5134B1B68012B18
:1031C00005DC114B1B6801330F4A136012E0124BF0
:1031D000D3ED007AB2EE047AF4EEC77AF1EE10FA8B
:1031E00008D5094B1B68012B04DC084B1B68013315
:1031F000064A136000F024FE00F014F848E700BF10
:10320000FC000020A0024042600100206401002078
:10321000040000201C560020185600209A994941AD
:103220009A99494180B584B002AFAB4B4FF4AD726F
:103230001A600A21092005F0A1FD03461A46A64B93
:103240001B6892FBF3F37B607B68052B01DD052394
:103250007B60A24BD3ED007A9FEDA17A67EE877A6F
:10326000FDEEE77A17EE902A9E4B1A609E4B1B6884
:1032700001339D4A13609D4B1B68002B40F0A285D3
:103280007B68052B32D801A252F823F0A532000842
:10329000B1320008BD320008C9320008D53200083A
:1032A000E1320008924A0021002007F07DF81DE07D
:1032B000904A0021002007F077F817E08E4A00219D
:1032C000002007F071F811E08C4A0021002007F07F
:1032D0006BF80BE08A4A0021002007F065F805E052
:1032E000884A0021002007F05FF800BF864B1B785A
:1032F000002B03D0844B1B78012B2CD1834A002157
:10330000372007F051F8824BB3F90430002B11DA63
:10331000804A0021502007F047F87D4BB3F9043074
:103320005B421A460C230093052300215A2006F025
:10333000CDFF4CE0784A0021502007F035F8744B5F
:10334000B3F904301A460C230093052300215A20B8
:1033500006F0BCFF3BE06C4B1B78022B0BD06A4B9A
:103360001B78032B07D0684B1B78042B03D0664BCC
:103370001B78052B2BD1694A0021372007F014F860
:10338000674BB3F90430002B11DA624A00215A204E
:1033900007F00AF8624BB3F904305B421A460C237B
:1033A000009303230021642006F090FF0FE05A4AA7
:1033B00000215A2006F0F8FF594BB3F904301A46A1
:1033C0000C23009303230021642006F07FFF4E4B63
:1033D0001B78002B08D04C4B1B78012B04D04A4B98
:1033E0001B78042B40F0A4804E4A0A21002006F0EE
:1033F000DBFF4D4BD3ED027AF5EEC07AF1EE10FA19
:1034000019D5444A0A210F2006F0CEFF464BD3EDD2
:10341000027AF1EE677A9FED457A67EE877AFCEEE5
:10342000E77A0C230093052317EE902A0A21142033
:1034300006F04CFF16E0384A0A210F2006F0B4FFD0
:10344000394BD3ED027A9FED397A67EE877AFCEE3D
:10345000E77A0C230093052317EE902A0A21142003
:1034600006F034FF304BD3ED007AF5EEC07AF1EE82
:1034700010FA19D5274A0A213C2006F095FF2A4B5D
:10348000D3ED007AF1EE677A9FED287A67EE877ABE
:10349000FCEEE77A0C230093052317EE902A0A210D
:1034A0004B2006F013FF7BE01B4A0A213C2006F06C
:1034B0007BFF1D4BD3ED007A9FED1C7A67EE877A78
:1034C000FCEEE77A0C230093052317EE902A0A21DD
:1034D0004B2006F0FBFE63E0700100201856002030
:1034E0000000C8425C010020680100201802002092
:1034F0004000010848000108500001085800010878
:1035000060000108680001087401002070000108D3
:10351000E455002074000108780001087C000108CF
:10352000F8550020840001089401002000007A442E
:10353000B34B1B78022B07D0B14B1B78032B03D066
:10354000AF4B1B78052B2BD1AE4A0A21002006F089
:103550002BFFAD4BB3F90430002B11DAAB4A0A2133
:103560003C2006F021FFA84BB3F904305B421A4619
:103570000C23009305230A214B2006F0A7FE0FE041
:10358000A34A0A213C2006F00FFF9F4BB3F90430F9
:103590001A460C23009305230A214B2006F096FEC1
:1035A000974B1B78002B08D0954B1B78012B04D030
:1035B000934B1B78042B40F0EF80964A1421002097
:1035C00006F0F2FE944BD3ED027AF5EEC07AF1EEFE
:1035D00010FA19D58D4A14210F2006F0E5FE8E4B06
:1035E000D3ED027AF1EE677A9FED8C7A67EE877AF7
:1035F000FCEEE77A0C230093052317EE902A1421A2
:10360000142006F063FE16E0814A14210F2006F014
:10361000CBFE814BD3ED027A9FED807A67EE877AFD
:10362000FCEEE77A0C230093052317EE902A142171
:10363000142006F04BFE784BD3ED007AF5EEC07AFD
:10364000F1EE10FA19D5714A14213C2006F0ACFEB7
:10365000714BD3ED007AF1EE677A9FED707A67EEE9
:10366000877AFCEEE77A0C230093052317EE902A65
:1036700014214B2006F02AFE16E0654A14213C2056
:1036800006F092FE644BD3ED007A9FED647A67EE0C
:10369000877AFCEEE77A0C230093052317EE902A35
:1036A00014214B2006F012FE5D4A1E21002006F078
:1036B0007BFE5C4BD3ED027AF5EEC07AF1EE10FAA8
:1036C00019D5524A1E210F2006F06EFE554BD3ED40
:1036D000027AF1EE677A9FED517A67EE877AFCEE17
:1036E000E77A0C230093052317EE902A1E2114205D
:1036F00006F0ECFD16E0464A1E210F2006F054FEAF
:10370000484BD3ED027A9FED457A67EE877AFCEE5F
:10371000E77A0C230093052317EE902A1E2114202C
:1037200006F0D4FD3F4BD3ED007AF5EEC07AF1EE12
:1037300010FA19D5354A1E213C2006F035FE394BCA
:10374000D3ED007AF1EE677A9FED347A67EE877AEF
:10375000FCEEE77A0C230093052317EE902A1E2136
:103760004B2006F0B3FD2AE1294A1E213C2006F039
:103770001BFE2C4BD3ED007A9FED287A67EE877AFB
:10378000FCEEE77A0C230093052317EE902A1E2106
:103790004B2006F09BFD12E1194B1B78022B08D041
:1037A000174B1B78032B04D0154B1B78052B40F0CF
:1037B00006811D4A1421002006F0F6FD1B4BD3EDB7
:1037C000027AF5EEC07AF1EE10FA31D50F4A1421E3
:1037D0000F2006F0E9FD154BD3ED027AF1EE677A82
:1037E0009FED0E7A67EE877AFCEEE77A0C23009362
:1037F000052317EE902A1421142006F067FD2EE011
:103800007401002088000108E455002074000108BC
:103810007800010890000108A801002000007A4407
:1038200094000108BC0100209800010894010020C8
:10383000CA4A14210F2006F0B7FDC94BD3ED027A16
:103840009FEDC87A67EE877AFCEEE77A0C23009347
:10385000052317EE902A1421142006F037FDC04BE3
:10386000D3ED007AF5EEC07AF1EE10FA19D5BE4A22
:1038700014213C2006F098FDB94BD3ED007AF1EE0F
:10388000677A9FEDB87A67EE877AFCEEE77A0C23C9
:103890000093052317EE902A14214B2006F016FD05
:1038A00016E0AE4A14213C2006F07EFDAC4BD3ED71
:1038B000007A9FEDAC7A67EE877AFCEEE77A0C230C
:1038C0000093052317EE902A14214B2006F0FEFCEE
:1038D000A64A1E21002006F067FDA54BD3ED027A13
:1038E000F5EEC07AF1EE10FA19D59F4A1E210F208D
:1038F00006F05AFD9E4BD3ED027AF1EE677A9FED0A
:10390000997A67EE877AFCEEE77A0C230093052319
:1039100017EE902A1E21142006F0D8FC16E08F4ADC
:103920001E210F2006F040FD914BD3ED027A9FED52
:103930008D7A67EE877AFCEEE77A0C2300930523F5
:1039400017EE902A1E21142006F0C0FC884BD3ED00
:10395000007AF5EEC07AF1EE10FA19D5824A1E21EE
:103960003C2006F021FD824BD3ED007AF1EE677A20
:103970009FED7C7A67EE877AFCEEE77A0C23009362
:10398000052317EE902A1E214B2006F09FFC16E01F
:10399000724A1E213C2006F007FD754BD3ED007ADC
:1039A0009FED707A67EE877AFCEEE77A0C2300933E
:1039B000052317EE902A1E214B2006F087FC6D4B45
:1039C0001B78002B03D06B4B1B78042B77D16A4AF2
:1039D0002821002006F0E8FC684BD3ED027AF5EED2
:1039E000C07AF1EE10FA19D55F4A28210F2006F0AF
:1039F000DBFC624BD3ED027AF1EE677A9FED597AE8
:103A000067EE877AFCEEE77A0C230093052317EE26
:103A1000902A2821142006F059FC16E04F4A28214C
:103A20000F2006F0C1FC554BD3ED027A9FED4D7A85
:103A300067EE877AFCEEE77A0C230093052317EEF6
:103A4000902A2821142006F041FC4C4BD3ED007A3B
:103A5000F5EEC07AF1EE10FA19D5434A28213C2040
:103A600006F0A2FC454BD3ED007AF1EE677A9FEDAC
:103A70003D7A67EE877AFCEEE77A0C230093052304
:103A800017EE902A28214B2006F020FC04E1334A4F
:103A900028213C2006F088FC384BD3ED007A9FEDBE
:103AA000317A67EE877AFCEEE77A0C2300930523E0
:103AB00017EE902A28214B2006F008FCECE02D4B55
:103AC0001B78012B2CD12E4A2821002006F06CFCFB
:103AD0002C4BB3F91A30002B11DA234A28213C2051
:103AE00006F062FC274BB3F91A305B421A460C23EE
:103AF0000093052328214B2006F0E8FBCCE0174A71
:103B000028213C2006F050FC1E4BB3F91A301A460F
:103B10000C230093052328214B2006F0D7FBBBE0A4
:103B2000144B1B78022B43D1174A2821002006F0A2
:103B30003BFC164B1B68002B2ADA0B4A28213C2041
:103B400006F032FC114B1B685B421A460C230093B3
:103B500004232821502006F0B9FB9DE078000108DD
:103B60009401002000007A44740001089C000108C0
:103B7000A801002074010020A0000108D00100204D
:103B8000A4000108645A0020AC000108780100205C
:103B90008F4A28213C2006F007FC8E4B1B681A46F2
:103BA0000C23009304232821502006F08FFB73E0A0
:103BB000894B1B78032B03D0874B1B78052B6BD1CC
:103BC000864A2821002006F0EFFB854BD3ED017AD1
:103BD000F5EEC07AF1EE10FA15D5824A28211420AC
:103BE00006F0E2FB7E4BD3ED017AF1EE677AFCEE54
:103BF000E77A0C230093042317EE902A28211E2035
:103C000006F064FB12E0724A2821142006F0CCFB77
:103C1000734BD3ED017AFCEEE77A0C230093042377
:103C200017EE902A28211E2006F050FB6E4A28210C
:103C30003C2006F0B9FB6D4BD3ED017AF5EEC07A6E
:103C4000F1EE10FA15D5674A2821502006F0ACFB9A
:103C5000664BD3ED017AF1EE677AFCEEE77A0C233E
:103C60000093042317EE902A28215A2006F02EFBF9
:103C700012E0574A2821502006F096FB5B4BD3ED0B
:103C8000017AFCEEE77A0C230093042317EE902AC6
:103C900028215A2006F01AFB554B1B78012B05D121
:103CA000544A3221002006F07FFB35E0524B1B784E
:103CB000012B05D1514A3221002006F075FB2BE083
:103CC0004F4B1B78012B05D14E4A3221002006F0C4
:103CD0006BFB21E04C4B1B78012B05D14B4A322169
:103CE000002006F061FB17E0494B1B78002B03D145
:103CF000484B1B78002B01D0012300E00023012B4F
:103D000005D1454A3221002006F04EFB04E0434A2B
:103D10003221002006F048FB414B1B68012B09D1E2
:103D2000404B1B78002B05D13F4A32212D2006F055
:103D30003BFB04E03D4A32212D2006F035FB3C4B95
:103D40001B683C4A82FB03125211DB17D31A1A4636
:103D50000C230093022332214B2006F0B7FA364A97
:103D60003221582006F020FB314B1B68314A82FB80
:103D700003125111DA178A1A642101FB02F29A1A0E
:103D80000C23009302233221622006F09FFA2B4A73
:103D900032216E2006F008FB254B1A68254B83FB69
:103DA00002135911D317CB1A642101FB03F3D31A61
:103DB000092B07DC0C2300930223002232215C2014
:103DC00006F084FA06F0FEF800BF0837BD4680BD55
:103DD000780001087801002074010020B400010877
:103DE0009401002074000108B8000108A801002017
:103DF000F8010020BC000108F9010020C4000108FE
:103E0000FA010020CC000108FB010020D4000108C9
:103E1000FC010020FD010020DC000108E400010895
:103E20000C82414208000020EC000108F00001086B
:103E30005C0100201F85EB51F4000108F800010827
:103E400080B586B002AF464BD3ED007A9FED457A40
:103E500067EE877A9FED447A37EEC77AF3EE0B6A06
:103E6000C7EE267AFDEEE77A17EE903A7B607B6824
:103E7000642B01DD64237B603C4BD3ED007A9FED26
:103E80003C7A67EE877AFDEEE77A17EE903AFB60B0
:103E9000FB68002B02DAFB685B42FB60354BD3ED1D
:103EA000007A9FED337A67EE877AFDEEE77A17EEB8
:103EB000903ABB60BB68002B02DABB685B42BB6018
:103EC0002D4B1B78002B0CBF01230023DBB21A46BD
:103ED000294B1A70294B1B78012B1BD1284BD3ED92
:103EE000007ABDEEE77A274BD3ED007AFDEEE76A64
:103EF000254BD3ED007AFDEEE77A17EE903A16EEF9
:103F0000902A17EE101A21480BF0C0F81B4B002224
:103F10001A7020E0184B1B78002B0ED1FB68DBB227
:103F20001946BB68DBB21A46194BB3F9043000934B
:103F30007B6818480BF0AAF80DE0154BB3F9003078
:103F40001946134BB3F902301A46114BB3F904303A
:103F500011480BF09BF800BF1037BD4680BD00BF75
:103F60001856002000007A4400401C4694010020AE
:103F70000000C842A80100206C01002002020020BD
:103F80000C0000201000002014000020FC0001089C
:103F9000E45500200C0101081C01010880B582B025
:103FA00002AF4FF4407000F05DF8A82008F066FB07
:103FB00004F094FB04F0B4FB05F040FE06F026FA92
:103FC00005F0A0FD4FF4E13007F042FC4FF416502D
:103FD00007F09AFC4FF4E13007F0F2FC4FF4E130C7
:103FE00007F04CFD04F0EAFD04F038FE00230093D6
:103FF000032306220721012004F034FFFEF7E0FE30
:1040000005F02EFB05F0A8FB05F00AFC05F06CFCA2
:10401000532142F20F7006F0F3FFA72142F20F7016
:1040200006F02EFD002144F29F1005F021FE002134
:1040300044F29F1005F0A6FE002144F29F1005F007
:1040400009FF002144F29F1005F05EFF04F004F91F
:1040500004F0F0FB06F088FA06F002FD00BFBD4652
:1040600080BD000080B483B000AF7860064A7B68F2
:1040700043F0BF6343F40033D36000BF0C37BD4649
:104080005DF8047B704700BF00ED00E080B485B0B0
:1040900000AF78600023FB730023BB730F237B7397
:1040A0007B68DB78002B39D0274BDB68DB431B0AAE
:1040B000DBB203F00703FB73FB7BC3F10403BB73A9
:1040C0007A7BFB7B42FA03F37B737B685B781A464F
:1040D000BB7B02FA03F3FB737B689A787B7B13400C
:1040E000DAB2FB7B1343FB73FB7B1B01FB73174AA9
:1040F0007B681B781344FA7B83F800237B681B786A
:1041000003F01F0311497A6812785209D2B210469F
:10411000012202FA03F341F820300FE07B681B789C
:1041200003F01F0309497A6812785209D2B2104687
:1041300001229A4000F1200341F8232000BF1437E8
:10414000BD465DF8047B704700ED00E000E100E053
:1041500080B483B000AF78607B68042B06D1094B34
:104160001B68084A43F00403136005E0054B1B6815
:10417000044A23F00403136000BF0C37BD465DF80A
:10418000047B704710E000E080B485B000AF786039
:1041900039600023FB600023FB727B685B68FB6077
:1041A000FB6823F0407323F48073FB603B681B794A
:1041B0001A023B681B681343FA681343FB607B6871
:1041C000FA685A607B689B68FB60FA68184B13407A
:1041D000FB603B681A693B68DB681A433B689B6875
:1041E0001A433B685B795B001343FA681343FB6037
:1041F0007B68FA689A607B68DB6AFB60FB6823F483
:104200007003FB603B681B7D013BDAB2FB7A134312
:10421000FB72FB7A1B05FA681343FB607B68FA6844
:10422000DA6200BF1437BD465DF8047B704700BFFB
:10423000FDF7FFC080B485B000AF78600023FB605D
:104240000E4B5B68FB60FA680D4B1340FB607B68AC
:104250001A687B685B681A437B689B681A437B68B3
:10426000DB681343FA681343FB60044AFB6853603E
:1042700000BF1437BD465DF8047B70470023014042
:10428000E030FCFF80B483B000AF78600B46FB7079
:10429000FB78002B06D07B689B6843F001027B68AB
:1042A0009A6005E07B689B6823F001027B689A6056
:1042B00000BF0C37BD465DF8047B704780B485B005
:1042C00000AF7860084611461A460346FB700B465D
:1042D000BB7013467B700023FB600023BB60FB7840
:1042E000092B23D97B68DB68FB60FB78A3F10A020A
:1042F00013465B001344072202FA03F3BB60BB685A
:10430000DB43FA681340FB607978FB78A3F10A027B
:1043100013465B00134401FA03F3BB60FA68BB6801
:104320001343FB607B68FA68DA601EE07B681B69F8
:10433000FB60FA7813465B001344072202FA03F38A
:10434000BB60BB68DB43FA681340FB607978FA789E
:1043500013465B00134401FA03F3BB60FA68BB68C1
:104360001343FB607B68FA681A61BB78062B21D87F
:104370007B685B6BFB60BB785A1E13469B00134443
:104380001F2202FA03F3BB60BB68DB43FA681340E9
:10439000FB60F978BB785A1E13469B00134401FA60
:1043A00003F3BB60FA68BB681343FB607B68FA6881
:1043B0005A6347E0BB780C2B21D87B681B6BFB60F2
:1043C000BB78DA1F13469B0013441F2202FA03F343
:1043D000BB60BB68DB43FA681340FB60F978BB78CD
:1043E000DA1F13469B00134401FA03F3BB60FA681B
:1043F000BB681343FB607B68FA681A6322E07B6842
:10440000DB6AFB60BB78A3F10D0213469B001344EB
:104410001F2202FA03F3BB60BB68DB43FA68134058
:10442000FB60F978BB78A3F10D0213469B0013449F
:1044300001FA03F3BB60FA68BB681343FB607B6857
:10444000FA68DA6200BF1437BD465DF8047B704736
:1044500080B483B000AF78607B689B6843F0804293
:104460007B689A6000BF0C37BD465DF8047B7047DF
:1044700080B483B000AF78607B68DB6C9BB2184679
:104480000C37BD465DF8047B704780B485B000AF43
:1044900078600B46FB700023FB737B681A68FB781F
:1044A0001340002B02D00123FB7301E00023FB73B8
:1044B000FB7B18461437BD465DF8047B704780B41B
:1044C00085B000AFF860B9601346FB71FB79002B33
:1044D00006D0FB685A69BB681A43FB685A6106E05C
:1044E000FB685A69BB68DB431A40FB685A6100BF2E
:1044F0001437BD465DF8047B704780B487B000AFC9
:104500007860396000237B6100233B610023FB60FE
:1045100000237B6176E001227B6902FA03F33B61B1
:104520003B681B683A691340FB60FA683B699A4232
:1045300065D17B681A687B695B00032101FA03F38C
:10454000DB431A407B681A607B681A683B681B79FA
:1045500019467B695B0001FA03F31A437B681A6012
:104560003B681B79012B03D03B681B79022B2ED1B2
:104570007B689A687B695B00032101FA03F3DB43E4
:104580001A407B689A607B689A683B685B79194639
:104590007B695B0001FA03F31A437B689A607B68CE
:1045A0005A687B699BB2194601238B40DB431A4052
:1045B0007B685A607B685B683A68927911467A69D1
:1045C00092B201FA02F292B21A437B685A607B6897
:1045D000DA687B699BB25B00032101FA03F3DB43DA
:1045E0001A407B68DA607B68DA683B68DB791946D9
:1045F0007B695B0001FA03F31A437B68DA607B692D
:1046000001337B617B690F2B85D900BF00BF1C374D
:10461000BD465DF8047B704780B483B000AF78601E
:104620000B467B807B687A881A8300BF0C37BD46B7
:104630005DF8047B704780B485B000AF78600B46AE
:104640007B8013467B700023FB600023BB607A787D
:104650007B8803F007039B0002FA03F3FB607B886F
:10466000DB089BB21A467B68083253F822207B880D
:1046700003F007039B000F2101FA03F3DB43798862
:10468000C90889B2084602EA03017B6800F1080202
:1046900043F822107B88DB089BB21A467B680832FD
:1046A00053F82230FA681343BB607B88DB089BB267
:1046B0001A467B680832B96843F8221000BF1437E5
:1046C000BD465DF8047B704780B483B000AF0346FD
:1046D000FB71044AFB79136000BF0C37BD465DF8DF
:1046E000047B704720000E4280B483B000AF0346C5
:1046F000FB710D4B00221A700B4B00221A70FB79D4
:10470000012B02D0042B04D007E0074B01221A70C2
:1047100003E0054B05221A7000BF00BF0C37BD46F1
:104720005DF8047B704700BF7038024080B489B0E8
:1047300000AF78600023BB6100237B610023FB6135
:1047400002233B610023FB600223BB604A4B9B6852
:1047500003F00C03BB61BB69082B11D0BB69082BAC
:1047600044D8BB69002B03D0BB69042B04D03DE0C7
:104770007B68424A1A603DE07B68414A1A6039E032
:104780003D4B5B689B0D03F00103FB603A4B5B689C
:1047900003F03F03BB60FB68002B0CD0384ABB68BA
:1047A000B2FBF3F3344A52689209C2F3080202FBE7
:1047B00003F3FB610BE0314ABB68B2FBF3F32E4A13
:1047C00052689209C2F3080202FB03F3FB612A4B11
:1047D0005B681B0C03F0030301335B003B61FA6968
:1047E0003B69B2FBF3F27B681A6003E07B68234A03
:1047F0001A6000BF204B9B6803F0F003BB61BB69EC
:104800001B09BB611F4ABB6913441B78DBB27B6188
:104810007B681A687B69DA407B685A60164B9B6834
:1048200003F4E053BB61BB699B0ABB61154ABB69DA
:1048300013441B78DBB27B617B685A687B69DA4082
:104840007B689A600C4B9B6803F46043BB61BB6957
:104850005B0BBB610B4ABB6913441B78DBB27B610A
:104860007B685A687B69DA407B68DA6000BF24376E
:10487000BD465DF8047B7047003802400024F40018
:1048800000127A001800002080B483B000AF786076
:104890000B46FB70FB78002B06D00A4B1A6B0949BC
:1048A0007B6813430B6306E0064B1A6B7B68DB43A4
:1048B000044913400B6300BF0C37BD465DF8047B11
:1048C000704700BF0038024080B483B000AF78600A
:1048D0000B46FB70FB78002B06D00A4B1A6C09497B
:1048E0007B6813430B6406E0064B1A6C7B68DB4362
:1048F000044913400B6400BF0C37BD465DF8047BD0
:10490000704700BF0038024080B483B000AF7860C9
:104910000B46FB70FB78002B06D00A4B5A6C0949FA
:104920007B6813434B6406E0064B5A6C7B68DB43A1
:10493000044913404B6400BF0C37BD465DF8047B4F
:10494000704700BF0038024080B483B000AF786089
:104950000B46FB70FB78002B06D00A4B5A6A0949BC
:104960007B6813434B6206E0064B5A6A7B68DB4365
:10497000044913404B6200BF0C37BD465DF8047B11
:10498000704700BF0038024080B485B000AF786047
:1049900039600023FB817B681B88FB817B68294A87
:1049A000934213D07B68284A93420FD07B68B3F1BF
:1049B000804F0BD07B68254A934207D07B68244AFE
:1049C000934203D07B68234A934208D1FB8923F0AA
:1049D0007003FB813B685A88FB891343FB817B682A
:1049E0001D4A93420CD07B681C4A934208D0FB8935
:1049F00023F44073FB813B681A89FB891343FB81D5
:104A00007B68FA891A803B685A687B68DA623B687F
:104A10001A887B681A857B680A4A934203D07B68B0
:104A2000094A934204D13B689B7A9AB27B681A8602
:104A30007B6801229A8200BF1437BD465DF8047B73
:104A4000704700BF00000140000401400004004026
:104A500000080040000C004000100040001400401E
:104A600080B483B000AF78607B684FF0FF325A604B
:104A70007B6800221A807B6800221A817B680022F2
:104A80005A807B6800229A7200BF0C37BD465DF8E1
:104A9000047B704780B483B000AF786039607B6876
:104AA0003A685A6200BF0C37BD465DF8047B704718
:104AB00080B483B000AF78600B46FB70FB78002BAE
:104AC00008D07B681B889BB243F080039AB27B6856
:104AD0001A8007E07B681B889BB223F080039AB2A0
:104AE0007B681A8000BF0C37BD465DF8047B7047B9
:104AF00080B483B000AF78600B46FB70FB78002B6E
:104B000008D07B681B889BB243F001039AB27B6894
:104B10001A8007E07B681B889BB223F001039AB2DE
:104B20007B681A8000BF0C37BD465DF8047B704778
:104B300080B485B000AF7860396000237B810023AA
:104B4000FB810023BB817B681B8C9BB223F001039C
:104B50009AB27B681A847B681B8CFB817B689B887C
:104B6000BB817B681B8B7B817B8923F070037B81FE
:104B70007B8923F003037B813B681A887B8913437D
:104B80007B81FB8923F00203FB813B689A89FB89C7
:104B90001343FB813B685A88FB891343FB817B6885
:104BA0001E4A934203D07B681D4A934223D1FB895E
:104BB00023F00803FB813B68DA89FB891343FB81FF
:104BC000FB8923F00403FB813B689A88FB8913432C
:104BD000FB81BB8923F48073BB81BB8923F4007301
:104BE000BB813B681A8ABB891343BB813B685A8AE5
:104BF000BB891343BB817B68BA899A807B687A89B9
:104C00001A833B689A687B685A637B68FA891A84BE
:104C100000BF1437BD465DF8047B704700000140BB
:104C20000004014080B485B000AF78603960002393
:104C30007B810023FB810023BB817B681B8C9BB2A3
:104C400023F010039AB27B681A847B681B8CFB816B
:104C50007B689B88BB817B681B8B7B817B8923F472
:104C6000E0437B817B8923F440737B813B681B8815
:104C70001B029AB27B8913437B81FB8923F02003BB
:104C8000FB813B689B891B019AB2FB891343FB8123
:104C90003B685B881B019AB2FB891343FB817B68ED
:104CA000224A934203D07B68214A93422BD1FB894D
:104CB00023F08003FB813B68DB891B019AB2FB89EF
:104CC0001343FB81FB8923F04003FB813B689B88F6
:104CD0001B019AB2FB891343FB81BB8923F48063D8
:104CE000BB81BB8923F40063BB813B681B8A9B00AB
:104CF0009AB2BB891343BB813B685B8A9B009AB223
:104D0000BB891343BB817B68BA899A807B687A89A7
:104D10001A833B689A687B689A637B68FA891A846D
:104D200000BF1437BD465DF8047B704700000140AA
:104D30000004014080B485B000AF78603960002382
:104D40007B810023FB810023BB817B681B8C9BB292
:104D500023F480739AB27B681A847B681B8CFB8176
:104D60007B689B88BB817B689B8B7B817B8923F0E5
:104D700070037B817B8923F003037B813B681A8866
:104D80007B8913437B81FB8923F40073FB813B68A0
:104D90009B891B029AB2FB891343FB813B685B88AA
:104DA0001B029AB2FB891343FB817B68224A934220
:104DB00003D07B68214A93422BD1FB8923F4006303
:104DC000FB813B68DB891B029AB2FB891343FB81A1
:104DD000FB8923F48063FB813B689B881B029AB2AA
:104DE000FB891343FB81BB8923F48053BB81BB89BF
:104DF00023F40053BB813B681B8A1B019AB2BB8919
:104E00001343BB813B685B8A1B019AB2BB89134386
:104E1000BB817B68BA899A807B687A899A833B6870
:104E20009A687B68DA637B68FA891A8400BF143752
:104E3000BD465DF8047B704700000140000401405E
:104E400080B485B000AF786039600023BB81002357
:104E50007B810023FB817B681B8C9BB223F48053F6
:104E60009AB27B681A847B681B8C7B817B689B88E9
:104E7000FB817B689B8BBB81BB8923F4E043BB81B7
:104E8000BB8923F44073BB813B681B881B029AB229
:104E9000BB891343BB817B8923F400537B813B682F
:104EA0009B891B039AB27B8913437B813B685B8898
:104EB0001B039AB27B8913437B817B68124A93421E
:104EC00003D07B68114A93420AD1FB8923F48043C3
:104ED000FB813B681B8A9B019AB2FB891343FB81D0
:104EE0007B68FA899A807B68BA899A833B689A685A
:104EF0007B681A647B687A891A8400BF1437BD46C0
:104F00005DF8047B704700BF0000014000040140D1
:104F100080B485B000AF78600B467B800023FB81B6
:104F20007B681B8BFB81FB8923F00803FB81FA89DB
:104F30007B881343FB817B68FA891A8300BF14378F
:104F4000BD465DF8047B704780B485B000AF7860E3
:104F50000B467B800023FB817B681B8BFB81FB89DD
:104F600023F40063FB817B881B029AB2FB89134305
:104F7000FB817B68FA891A8300BF1437BD465DF850
:104F8000047B704780B485B000AF78600B467B80AF
:104F90000023FB817B689B8BFB81FB8923F008034B
:104FA000FB81FA897B881343FB817B68FA899A83AA
:104FB00000BF1437BD465DF8047B704780B485B0F0
:104FC00000AF78600B467B800023FB817B689B8B66
:104FD000FB81FB8923F40063FB817B881B029AB26F
:104FE000FB891343FB817B68FA899A8300BF1437DE
:104FF000BD465DF8047B704780B485B000AF786033
:105000000B467B800023FB817B681B8CFB81FB892B
:1050100023F00203FB81FA897B881343FB817B68C1
:10502000FA891A8400BF1437BD465DF8047B7047C7
:1050300080B485B000AF78600B467B800023FB8195
:105040007B681B8CFB81FB8923F02003FB817B8821
:105050001B019AB2FB891343FB817B68FA891A848E
:1050600000BF1437BD465DF8047B704780B485B03F
:1050700000AF78600B467B800023FB817B681B8C34
:10508000FB81FB8923F40073FB817B881B029AB2AE
:10509000FB891343FB817B68FA891A8400BF1437AC
:1050A000BD465DF8047B704780B485B000AF786082
:1050B0000B467B800023FB817B681B8CFB81FB897B
:1050C00023F40053FB817B881B039AB2FB891343B3
:1050D000FB817B68FA891A8400BF1437BD465DF8EE
:1050E000047B704780B582B000AF786039603B6860
:1050F0001B88002B0FD13B6859883B689A883B6816
:105100001B89786800F0E1F93B68DB88194678680C
:1051100000F085F836E03B681B88042B0FD13B6814
:1051200059883B689A883B681B89786800F010FAB8
:105130003B68DB881946786800F08DF822E03B6810
:105140001B88082B0FD13B6859883B689A883B68BD
:105150001B89786800F049FA3B68DB881946786853
:1051600000F097F80EE03B6859883B689A883B68E6
:105170001B89786800F081FA3B68DB8819467868FB
:1051800000F0A3F800BF0837BD4680BD80B483B0EF
:1051900000AF78607B6800221A807B6800225A800A
:1051A0007B6801229A807B680022DA807B6800227B
:1051B0001A8100BF0C37BD465DF8047B704780B490
:1051C00083B000AF78607B685B6B18460C37BD46D8
:1051D0005DF8047B704780B483B000AF78607B6873
:1051E0009B6B18460C37BD465DF8047B704780B456
:1051F00083B000AF78607B68DB6B18460C37BD4628
:105200005DF8047B704780B483B000AF78607B6842
:105210001B6C18460C37BD465DF8047B704780B4A4
:1052200083B000AF78600B467B807B681B8B9BB2A2
:1052300023F00C039AB27B681A837B681B8B9AB2AB
:105240007B8813439AB27B681A8300BF0C37BD4634
:105250005DF8047B704780B483B000AF78600B4684
:105260007B807B681B8B9BB223F440639AB27B6884
:105270001A837B681B8B9AB27B881B029BB21343F9
:105280009AB27B681A8300BF0C37BD465DF8047B79
:10529000704780B483B000AF78600B467B807B683A
:1052A0009B8B9BB223F00C039AB27B689A837B683A
:1052B0009B8B9AB27B8813439AB27B689A8300BF18
:1052C0000C37BD465DF8047B704780B483B000AFF7
:1052D00078600B467B807B689B8B9BB223F440639A
:1052E0009AB27B689A837B689B8B9AB27B881B02FD
:1052F0009BB213439AB27B689A8300BF0C37BD46BA
:105300005DF8047B704780B483B000AF78600B46D3
:10531000FB70FB78002B0CD07B68B3F844309BB259
:105320006FEA43436FEA53439AB27B68A3F8442081
:1053300009E07B68B3F844309BB2C3F30E039AB222
:105340007B68A3F8442000BF0C37BD465DF8047BA2
:10535000704780B483B000AF78600B467B80134603
:105360007B707B78002B08D07B689B899AB27B8806
:1053700013439AB27B689A8109E07B689B899AB251
:105380007B88DB439BB213409AB27B689A8100BF53
:105390000C37BD465DF8047B704780B483B000AF26
:1053A00078600B467B807B88DB439AB27B681A82ED
:1053B00000BF0C37BD465DF8047B704780B485B0F4
:1053C00000AF78600B467B800023FB730023BB811A
:1053D00000237B817B681B8A9AB27B881340BB8148
:1053E0007B689B899AB27B8813407B81BB89002BA9
:1053F00005D07B89002B02D00123FB7301E0002341
:10540000FB73FB7B18461437BD465DF8047B704781
:1054100080B483B000AF78600B467B807B88DB4331
:105420009AB27B681A8200BF0C37BD465DF8047BD8
:10543000704780B487B000AFF860084611461A463E
:1054400003467B810B463B811346FB800023FB8296
:105450000023BB8200237B82FB681B89FB82FB68E5
:105460001B8BBB82FB681B8C7B82FB8A23F00703B0
:10547000FB82FA8A7B891343FB82BB8A23F4407345
:1054800023F00303BB82BB8A43F4807343F0010320
:10549000BB827B8A23F022037B82FB881B019AB2AA
:1054A0003B8913439AB27B8A13437B82FB68FA8A57
:1054B0001A81FB68BA8A1A83FB687A8A1A8400BF49
:1054C0001C37BD465DF8047B704780B487B000AFE1
:1054D000F860084611461A4603467B810B463B811D
:1054E0001346FB800023FB820023BB82FB681B8CDE
:1054F0009BB223F001039AB2FB681A84FB681B8BF2
:10550000FB82FB681B8CBB82FB8A23F0F303FB82CC
:10551000FB881B019AB23B8913439AB2FB8A13435F
:10552000FB82BB8A23F00A03BB827A89BB8A1343BE
:105530009BB243F00103BB82FB68FA8A1A83FB68C3
:10554000BA8A1A8400BF1C37BD465DF8047B7047D9
:1055500080B487B000AFF860084611461A4603468B
:105560007B810B463B811346FB800023FB8200239B
:10557000BB8200237B82FB681B8C9BB223F0100351
:105580009AB2FB681A84FB681B8BFB82FB681B8C3E
:10559000BB827B891B017B82FB8A23F440731B0542
:1055A0001B0DFB82FB881B039AB2FB8A1343FB8211
:1055B0003B891B029AB2FB8A1343FB82BB8A23F00E
:1055C000A003BB827A8ABB8A13439BB243F01003C9
:1055D000BB82FB68FA8A1A83FB68BA8A1A8400BF06
:1055E0001C37BD465DF8047B704780B487B000AFC0
:1055F000F860084611461A4603467B810B463B81FC
:105600001346FB800023FB820023BB8200237B82A6
:10561000FB681B8C9BB223F480739AB2FB681A84DC
:10562000FB689B8BFB82FB681B8CBB827B891B020C
:105630007B82FB8A23F0F303FB82FB881B019AB277
:105640003B8913439AB2FB8A1343FB82BB8A23F440
:105650002063BB827A8ABB8A13439BB243F4807374
:10566000BB82FB68FA8A9A83FB68BA8A1A8400BFF5
:105670001C37BD465DF8047B704780B487B000AF2F
:10568000F860084611461A4603467B810B463B816B
:105690001346FB800023FB820023BB8200237B8216
:1056A000FB681B8C9BB223F480539AB2FB681A846C
:1056B000FB689B8BFB82FB681B8CBB827B891B037B
:1056C0007B82FB8A23F440731B051B0DFB823B8905
:1056D0001B029AB2FB8A1343FB82FB881B039AB21C
:1056E000FB8A1343FB82BB8A23F400535B045B0CED
:1056F000BB827A8ABB8A13439BB243F48053BB823A
:10570000FB68FA8A9A83FB68BA8A1A8400BF1C373E
:10571000BD465DF8047B704780B58AB000AF786005
:10572000396000237B6200233B620023FB6100237E
:10573000BB617B681B8A9BB27B627B6A23F440530C
:105740007B623B68DB881A467B6A13437B627B6A19
:105750009AB27B681A827B689B899BB27B627B6A68
:1057600023F4B05323F00C037B623B689A883B68B8
:105770001B8913439AB23B685B8913439BB21A4659
:105780007B6A13437B627B6A9AB27B689A817B68EF
:105790009B8A9BB27B627B6A23F440737B623B688B
:1057A0009B891A467B6A13437B627B6A9AB27B6849
:1057B0009A8207F108031846FEF7B8FF7B68304A63
:1057C000934203D07B682F4A934202D17B693B62AC
:1057D00001E03B693B627B689B899BB21BB2002B5B
:1057E0000CDA3A6A13469B0013449A001A443B6849
:1057F0001B685B00B2FBF3F3FB610BE03A6A1346F4
:105800009B0013449A001A443B681B689B00B2FB40
:10581000F3F3FB61FB691C4AA2FB03235B091B0139
:105820007B627B6A1B09642202FB03F3FA69D31AC9
:10583000BB617B689B899BB21BB2002B0CDABB69F6
:10584000DB003233104AA2FB03235B0903F007039A
:105850007A6A13437B620BE0BB691B0132330A4A4D
:10586000A2FB03235B0903F00F037A6A13437B62F5
:105870007B6A9AB27B681A8100BF2837BD4680BD1B
:1058800000100140001401401F85EB5180B483B02B
:1058900000AF78600B46FB70FB78002B08D07B686C
:1058A0009B899BB243F400539AB27B689A8107E0CC
:1058B0007B689B899BB223F400539AB27B689A81E0
:1058C00000BF0C37BD465DF8047B704780B483B0E1
:1058D00000AF78607B689B889BB2C3F308039BB2E0
:1058E00018460C37BD465DF8047B704780B487B01E
:1058F00000AF78600B467B8013467B7000233B61D2
:105900000023FB600023BB6000237B617B687B611D
:105910007B88DBB25B09DBB23B617B8803F01F0352
:10592000FB600122FB6802FA03F3BB603B69012BB9
:1059300003D17B690C337B6109E03B69022B03D106
:105940007B6910337B6102E07B6914337B617B7878
:10595000002B06D07B6919687B69BA680A431A6014
:1059600006E07B691968BB68DA437B690A401A6004
:1059700000BF1C37BD465DF8047B704780B487B01C
:1059800000AF78600B467B800023FB6000237B61C7
:105990000023BB600023FB747B88DBB25B09DBB2B6
:1059A000BB607B8803F01F037B6101227B6902FAE5
:1059B00003F37B61BB68012B07D17B689B899BB29A
:1059C0001A467B6913407B6111E0BB68022B07D14B
:1059D0007B681B8A9BB21A467B6913407B6106E099
:1059E0007B689B8A9BB21A467B6913407B617B88EC
:1059F0001B0A9BB2FB600122FB6802FA03F3FB6007
:105A00007B681B889BB21A46FB681340FB607B696E
:105A1000002B05D0FB68002B02D00123FB7401E0B2
:105A20000023FB74FB7C18461C37BD465DF8047BE5
:105A30007047000080B588B000AF786000237B61BC
:105A400001F032FB554B1B68002B01D100F00AF925
:105A50007B68002B22D00823DB437A689A421BD84C
:105A600008227B6813447B607B6803F00703002BEC
:105A700014D07B6803F00703C3F108033B613B6963
:105A8000DB437A689A4204D87A683B6913447B60A6
:105A900004E000237B6001E000237B607B68002B37
:105AA0006ADB7B68002B67D03D4B1B687A689A42A3
:105AB00062D83C4BBB613B4B1B68FB6104E0FB695C
:105AC000BB61FB691B68FB61FB695B687A689A4292
:105AD00003D9FB691B68002BF1D1304B1B68FA69B5
