:020000040800F2
:100000000000022091AE0008F9AC000807AD00081E
:100010000DAD000813AD000819AD00080000000088
:10002000000000000000000000000000514900082E
:100030001FAD000800000000A14B00086DAA0008D9
:10004000E1AE0008E1AE0008E1AE0008E1AE000854
:10005000E1AE0008E1AE0008E1AE0008E1AE000844
:10006000E1AE0008E1AE0008E1AE0008E1AE000834
:10007000E1AE0008E1AE0008E1AE0008E1AE000824
:10008000E1AE0008E1AE0008E1AE0008E1AE000814
:10009000117E0008E1AE0008E1AE0008E1AE000804
:1000A000E1AE0008E1AE0008E1AE0008E1AE0008F4
:1000B0009D830008C5830008ED830008E1AE0008B9
:1000C000E1AE0008E1AE0008E1AE0008E1AE0008D4
:1000D000E1AE0008C99F000879A10008E1A400086A
:1000E000E1AE0008E1AE0008E1AE00083D84000882
:1000F000F5980008E1AE0008ED940008E1AE0008B4
:10010000E1AE0008E1AE000815840008E1AE000889
:10011000E1AE0008E1AE0008E1AE0008E1AE000883
:10012000E1AE0008E1AE0008E1AE0008E1AE000873
:10013000E1AE0008E1AE0008E1AE0008E1AE000863
:10014000E1AE0008E1AE0008E1AE0008E1AE000853
:10015000E1AE0008E1AE0008E1AE000861A60008CB
:10016000E1AE0008E1AE0008E1AE0008E1AE000833
:10017000E1AE0008E1AE0008E1AE000800000000BA
:08018000E1AE0008E1AE000849
:1001900010B5054C237833B9044B13B10448AFF3C1
:1001A00000800123237010BDE0000020000000004B
:1001B00054E4000808B5034B1BB103490348AFF3EF
:1001C000008008BD00000000E400002054E40008A6
:1001D00081F0004102E000BF83F0004330B54FEAF8
:1001E00041044FEA430594EA050F08BF90EA020F65
:1001F0001FBF54EA000C55EA020C7FEA645C7FEAF8
:10020000655C00F0E2804FEA5454D4EB5555B8BF1A
:100210006D420CDD2C4480EA020281EA030382EA8B
:10022000000083EA010180EA020281EA0303362D1D
:1002300088BF30BD11F0004F4FEA01314FF4801CF0
:100240004CEA113102D0404261EB410113F0004F02
:100250004FEA03334CEA133302D0524263EB4303B9
:1002600094EA050F00F0A780A4F10104D5F1200E57
:100270000DDB02FA0EFC22FA05F2801841F10001B2
:1002800003FA0EF2801843FA05F359410EE0A5F186
:1002900020050EF1200E012A03FA0EFC28BF4CF0B7
:1002A000020C43FA05F3C01851EBE37101F000456D
:1002B00007D54FF0000EDCF1000C7EEB00006EEB7A
:1002C0000101B1F5801F1BD3B1F5001F0CD3490804
:1002D0005FEA30004FEA3C0C04F101044FEA44525B
:1002E00012F5800F80F09A80BCF1004F08BF5FEAE2
:1002F000500C50F1000041EB045141EA050130BDC2
:100300005FEA4C0C404141EB0101013C28BFB1F5D3
:10031000801FE9D291F0000F04BF01460020B1FA1E
:1003200081F308BF2033A3F10B03B3F120020CDAF1
:100330000C3208DD02F1140CC2F10C0201FA0CF0CF
:1003400021FA02F10CE002F11402D8BFC2F1200C34
:1003500001FA02F120FA0CFCDCBF41EA0C019040EA
:10036000E41AA2BF01EB0451294330BD6FEA040433
:100370001F3C1CDA0C340EDC04F11404C4F120021E
:1003800020FA04F001FA02F340EA030021FA04F330
:1003900045EA030130BDC4F10C04C4F1200220FA87
:1003A00002F001FA04F340EA0300294630BD21FAC5
:1003B00004F0294630BD94F0000F83F4801306BF8B
:1003C00081F480110134013D4EE77FEA645C18BF7F
:1003D0007FEA655C29D094EA050F08BF90EA020F16
:1003E00005D054EA000C04BF1946104630BD91EA0E
:1003F000030F1EBF0021002030BD5FEA545C05D111
:100400004000494128BF41F0004130BD14F580044F
:100410003CBF01F5801130BD01F0004545F0FE41C3
:1004200041F470014FF0000030BD7FEA645C1ABFF8
:10043000194610467FEA655C1CBF0B46024650EA2F
:10044000013406BF52EA033591EA030F41F400215B
:1004500030BD00BF90F0000F04BF0021704730B5E1
:100460004FF4806404F132044FF000054FF00001B6
:1004700050E700BF90F0000F04BF0021704730B577
:100480004FF4806404F1320410F0004548BF40424C
:100490004FF000013EE700BF42004FEAE2014FEAA1
:1004A00031014FEA02701FBF12F07F4393F07F4F7C
:1004B00081F06051704732F07F4208BF704793F07F
:1004C0007F4F04BF41F40021704730B54FF4607492
:1004D00001F0004521F000411CE700BF50EA010295
:1004E00008BF704730B54FF000050AE050EA01023E
:1004F00008BF704730B511F0004502D5404261EBAE
:1005000041014FF4806404F132045FEA915C3FF4EE
:10051000D8AE4FF003025FEADC0C18BF03325FEA8B
:10052000DC0C18BF033202EBDC02C2F1200300FA3C
:1005300003FC20FA02F001FA03FE40EA0E0021FA61
:1005400002F11444BDE600BF70B54FF0FF0C4CF44F
:10055000E06C1CEA11541DBF1CEA135594EA0C0F01
:1005600095EA0C0F00F0DEF82C4481EA030621EA3C
:100570004C5123EA4C5350EA013518BF52EA033577
:1005800041F4801143F4801338D0A0FB02CE4FF029
:100590000005E1FB02E506F00042E0FB03E54FF059
:1005A0000006E1FB03569CF0000F18BF4EF0010E51
:1005B000A4F1FF04B6F5007F64F5407404D25FEA4D
:1005C0004E0E6D4146EB060642EAC62141EA555100
:1005D0004FEAC52040EA5E504FEACE2EB4F1FD0C42
:1005E00088BFBCF5E06F1ED8BEF1004F08BF5FEAC0
:1005F000500E50F1000041EB045170BD06F0004672
:1006000046EA010140EA020081EA0301B4EB5C041E
:10061000C2BFD4EB0C0541EA045170BD41F4801116
:100620004FF0000E013C00F3AB8014F1360FDEBF3B
:10063000002001F0004170BDC4F10004203C35DA17
:100640000C341BDC04F11404C4F1200500FA05F39A
:1006500020FA04F001FA05F240EA020001F000423B
:1006600021F0004110EBD37021FA04F642EB0601B1
:100670005EEA430E08BF20EAD37070BDC4F10C04DB
:10068000C4F1200500FA04F320FA05F001FA04F29F
:1006900040EA020001F0004110EBD37041F100018B
:1006A0005EEA430E08BF20EAD37070BDC4F1200596
:1006B00000FA05F24EEA020E20FA04F301FA05F2FE
:1006C00043EA020321FA04F001F0004121FA04F2A6
:1006D00020EA020000EBD3705EEA430E08BF20EA76
:1006E000D37070BD94F0000F0FD101F000464000B0
:1006F00041EB010111F4801F08BF013CF7D041EA32
:10070000060195F0000F18BF704703F00046520035
:1007100043EB030313F4801F08BF013DF7D043EA06
:100720000603704794EA0C0F0CEA135518BF95EABC
:100730000C0F0CD050EA410618BF52EA4306D1D143
:1007400081EA030101F000414FF0000070BD50EA62
:10075000410606BF1046194652EA430619D094EAEC
:100760000C0F02D150EA013613D195EA0C0F05D1D6
:1007700052EA03361CBF104619460AD181EA03012A
:1007800001F0004141F0FE4141F470014FF00000E2
:1007900070BD41F0FE4141F4780170BD70B54FF07D
:1007A000FF0C4CF4E06C1CEA11541DBF1CEA1355FD
:1007B00094EA0C0F95EA0C0F00F0A7F8A4EB0504DF
:1007C00081EA030E52EA03354FEA013100F08880D6
:1007D0004FEA03334FF0805545EA131343EA12639F
:1007E0004FEA022245EA111545EA10654FEA002654
:1007F0000EF000419D4208BF964244F1FD0404F50D
:10080000407402D25B084FEA3202B61A65EB030568
:100810005B084FEA32024FF480104FF4002CB6EB25
:10082000020E75EB030E22BFB61A754640EA0C00A5
:100830005B084FEA3202B6EB020E75EB030E22BFE5
:10084000B61A754640EA5C005B084FEA3202B6EB26
:10085000020E75EB030E22BFB61A754640EA9C00E5
:100860005B084FEA3202B6EB020E75EB030E22BFB5
:10087000B61A754640EADC0055EA060E18D04FEA73
:10088000051545EA16754FEA06164FEAC30343EA13
:1008900052734FEAC2025FEA1C1CC0D111F4801FE0
:1008A0000BD141EA00014FF000004FF0004CB6E7D9
:1008B00011F4801F04BF01430020B4F1FD0C88BF78
:1008C000BCF5E06F3FF6AFAEB5EB030C04BFB6EB83
:1008D000020C5FEA500C50F1000041EB045170BD76
:1008E0000EF0004E4EEA113114EB5C04C2BFD4EBA3
:1008F0000C0541EA045170BD41F480114FF0000E27
:10090000013C90E645EA060E8DE60CEA135594EAA2
:100910000C0F08BF95EA0C0F3FF43BAF94EA0C0FA5
:100920000AD150EA01347FF434AF95EA0C0F7FF41A
:1009300025AF104619462CE795EA0C0F06D152EA6E
:1009400003353FF4FDAE1046194622E750EA410652
:1009500018BF52EA43067FF4C5AE50EA41047FF463
:100960000DAF52EA43057FF4EBAE12E74FF0FF3CC8
:1009700006E000BF4FF0010C02E000BF4FF0010C99
:100980004DF804CD4FEA410C7FEA6C5C4FEA430C12
:1009900018BF7FEA6C5C1BD001B050EA410C0CBF61
:1009A00052EA430C91EA030F02BF90EA020F0020C3
:1009B000704710F1000F91EA030F58BF994208BF2A
:1009C00090422CBFD8176FEAE37040F001007047E7
:1009D0004FEA410C7FEA6C5C02D150EA013C07D13E
:1009E0004FEA430C7FEA6C5CD6D152EA033CD3D089
:1009F0005DF8040B704700BF8446104662468C4683
:100A00001946634600E000BF01B5FFF7B7FF0028B5
:100A100048BF10F1000F01BD4DF808EDFFF7F4FFDE
:100A20000CBF012000205DF808FB00BF4DF808ED69
:100A3000FFF7EAFF34BF012000205DF808FB00BF8C
:100A40004DF808EDFFF7E0FF94BF012000205DF8AE
:100A500008FB00BF4DF808EDFFF7CEFF94BF012063
:100A600000205DF808FB00BF4DF808EDFFF7C4FF5C
:100A700034BF012000205DF808FB00BF4FEA410CA5
:100A80007FEA6C5C02D150EA013C0AD14FEA430C88
:100A90007FEA6C5C02D152EA033C02D14FF00000C5
:100AA00070474FF0010070474FEA410212F5001203
:100AB00015D211D56FF47873B3EB625212D94FEAA5
:100AC000C12343F0004343EA505311F0004F23FA8F
:100AD00002F018BF404270474FF00000704750EAE4
:100AE000013005D111F0004008BF6FF000407047A1
:100AF0004FF00000704700BF4FEA4102B2F1E043FF
:100B000024BFB3F5001CDCF1FE5C0DD901F0004CF4
:100B10004FEAC0024CEA5070B2F1004F40EB830044
:100B200008BF20F00100704711F0804F21D113F170
:100B30003872BCBF01F00040704741F480114FEAA9
:100B40005252C2F11802C2F1200C10FA0CF320FA32
:100B500002F018BF40F001004FEAC1234FEAD3234F
:100B600003FA0CFC40EA0C0023FA02F34FEA4303B9
:100B7000CCE77FEA625307D150EA01331EBF4FF042
:100B8000FE4040F44000704701F0004040F0FE405D
:100B900040F40000704700BF0000000000000000AB
:100BA00001F0FF01102A2BDB10F0070F08D010F81E
:100BB000013B013A8B422DD010F0070F42B3F6D122
:100BC000F0B441EA012141EA014122F007047FF03B
:100BD00000070023F0E80256083C85EA010586EA92
:100BE000010685FA47F5A3FA87F586FA47F6A5FACE
:100BF00087F68EB9EED1F0BC01F0FF0102F00702DA
:100C000032B110F8013B013A83EA010313B1F8D184
:100C10000020704701387047002D06BF3546033865
:100C2000073815F0010F07D1013015F4807F02BF9E
:100C3000013015F4C03F0130F0BC0138704700BFEF
:100C4000B0B58AB000AF87ED030AC7ED020A87EDA1
:100C5000011A9D4B7B629D4B3B627B68FB619C4B09
:100C60001B681846FFF718FC04460D46F869FFF7A5
:100C700013FC02460B4643EC102B0AF0E1FA53EC4E
:100C8000102B20462946FFF789FD02460B461446E5
:100C90001D46904BD3ED007AB6EE007A67EE877A68
:100CA00017EE900AFFF7F8FB02460B46204629464E
:100CB000FFF792FA02460B4610461946FFF71CFF53
:100CC0000346BB619FED841ADFED840A97ED070AA6
:100CD00000F0F6FA87ED070AD7ED077AF5EE407ACD
:100CE000F1EE10FA2CD07B4BD3ED007AB6EE007A01
:100CF00067EE877A97ED067A37EE677AD7ED037A53
:100D000067EE276A97ED067AC6EE877A744BC3EDD5
:100D1000027A704BD3ED007AB6EE007A27EE877A2E
:100D2000D7ED067A37EE277AD7ED037A67EE276A92
:100D300097ED067AC6EE877A6A4BC3ED027A05E034
:100D4000674AFB689360674AFB689360F869FFF73E
:100D5000A3FB02460B469FED521B43EC102B0AF0FF
:100D6000A3FA51EC100B50A3D3E90023FFF7ECFBDF
:100D700002460B4614461D46F869FFF78DFB0246F6
:100D80000B469FED4B1B43EC102B0AF08DFA51ECF8
:100D9000100B49A3D3E90023FFF7D6FB02460B460D
:100DA00020462946FFF71AFA02460B4614461D460E
:100DB000D7ED077A9FED4C7A67EE877A17EE900AA7
:100DC000FFF76AFB02460B4620462946FFF704FA66
:100DD00002460B461046194639A3D3E90023FFF714
:100DE000FDF902460B4610461946FFF785FE0346FD
:100DF0007B61D7ED057A9FED3D7A37EEC77AD7ED67
:100E0000087A67EE277A9FED3A7A77EE877AFDEED9
:100E1000E77A17EE902A374B1A60314B93ED027A3E
:100E2000D7ED097AF1EE677A97ED091AF0EE670AC5
:100E3000B0EE470A00F044FAF0EE407A284BC3EDDA
:100E4000027A284B93ED027AD7ED097AF1EE677AB0
:100E500097ED091AF0EE670AB0EE470A00F030FA93
:100E6000F0EE407A1F4BC3ED027A234B4FF00002A5
:100E70009A60224B4FF000029A601E4B1B6840F6AE
:100E800098024FF44871184600F043FA0346194A95
:100E9000136000BF2837BD46B0BD00BFAFF3008070
:100EA0000000000000000840000000809318E4BF2C
:100EB000000000000000004000000000D34DF43F9F
:100EC00000000000022BF93F00006040D7231F44C0
:100ED000E4010020E00100200AD7A33E48E1FABE69
:100EE000880100209C010020E5D0E23F4C37C93F3B
:100EF0000080BB4478010020B0010020C401002024
:100F000080B586B002AF786009F0BCFD0346FB6097
:100F100007F10C030A21184604F07EFC5F4B1B68A6
:100F200040F6B732934204DC5C4B1B6801335B4AEA
:100F3000136000F00FFF5A4B1B68002BE8D1594B90
:100F40001B78002B02D000F0EDFB1EE0564B1B7807
:100F5000002B02D000F0B8FD17E0544B1B78002B9B
:100F600002D000F0ABFC10E0514BD3ED007A514BB6
:100F700093ED007A504BD3ED006AB0EE661AF0EEB6
:100F8000470AB0EE670AFFF75BFE00F0BFFE4B4B6F
:100F9000D3ED007AFDEEE77A17EE900A00F0D2F971
:100FA0000346002B71D1464BD3ED007A444B93EDB1
:100FB000027AF0EE470AB0EE670A00F003FA07EE95
:100FC000900AF8EEE77A3E4BC3ED017A3D4BD3ED44
:100FD000007A3C4B93ED027AF0EE470AB0EE670AD6
:100FE00000F05CFA07EE900AF8EEE77A354BC3EDB5
:100FF000017A354BD3ED007A334B93ED027AF0EE64
:10100000470AB0EE670A00F0B5FA07EE900AF8EE6C
:10101000E77A2D4BC3ED017A2C4BD3ED007A2B4BA5
:1010200093ED027AF0EE470AB0EE670A00F00EFB8D
:1010300007EE900AF8EEE77A244BC3ED017A44F20A
:101040003C1000F0C1F81E4BD3ED017ABDEEE77AFB
:101050001C4BD3ED017AFDEEE76A1B4BD3ED017A11
:10106000BDEEE76A194BD3ED017AFDEEE77A184B36
:101070001B68009317EE903A16EE102A16EE901A9F
:1010800017EE100A00F026F842E700230093002331
:1010900000220021002000F01DF839E7FC000020AC
:1010A0000C020020ED010020EE010020EC010020E8
:1010B0007C01002080010020840100200C560020CB
:1010C000880100209C010020B0010020C401002004
:1010D0007801002080B485B000AFF860B9607A6014
:1010E0003B60FB68002B0ADA324B44F29F125A63D2
:1010F000FB6803F583431F332F4A536309E02E4BEC
:1011000044F29F125A63FB68C3F583431F33294A95
:101110005363BB68002B0ADA284B44F29F125A63D0
:10112000BB6803F583431F33244A936309E0234BD1
:1011300044F29F129A63BB68C3F583431F331F4A6F
:1011400053637B68002B0ADA1D4B44F29F129A63AB
:101150007B6803F583431F33194A536309E0184B37
:1011600044F29F125A637B68C3F583431F33144ACA
:1011700093633B68002B0ADA114B44F29F121A6406
:101180003B6803F583431F330D4AD36309E00C4BDF
:1011900044F29F12DA633B68C3F583431F33084A66
:1011A0001364084ABB69936300BF1437BD465DF8FA
:1011B000047B70470044014000480140004001406A
:1011C000000001400018004080B582B000AF786098
:1011D000374BD3ED017A7B685B4207EE103AB8EEED
:1011E000C77A7B6806EE903AF8EEE66AB0EE661AC9
:1011F000F0EE470AB0EE670A00F062F8F0EE407ACF
:101200002B4BC3ED017A2B4BD3ED017A7B685B420C
:1012100007EE103AB8EEC77A7B6806EE903AF8EE21
:10122000E66AB0EE661AF0EE470AB0EE670A00F022
:1012300047F8F0EE407A1F4BC3ED017A1E4BD3ED19
:10124000017A7B685B4207EE103AB8EEC77A7B689A
:1012500006EE903AF8EEE66AB0EE661AF0EE470A4D
:10126000B0EE670A00F02CF8F0EE407A124BC3EDB6
:10127000017A124BD3ED017A7B685B4207EE103A9C
:10128000B8EEC77A7B6806EE903AF8EEE66AB0EE02
:10129000661AF0EE470AB0EE670A00F011F8F0EEB9
:1012A000407A064BC3ED017A00BF0837BD4680BDCA
:1012B000880100209C010020B0010020C401002012
:1012C00080B485B000AF87ED030AC7ED020A87ED51
:1012D000011A97ED037AD7ED027AB4EEE77AF1EED0
:1012E00010FA01D5BB680BE097ED037AD7ED017AD0
:1012F000B4EEE77AF1EE10FA01DD7B6800E0FB68FE
:1013000007EE903AB0EE670A1437BD465DF8047BED
:10131000704780B485B000AFF860B9607A60FA6851
:10132000BB689A4201DABB6806E0FA687B689A42B9
:1013300001DD7B6800E0FB6818461437BD465DF8A8
:10134000047B704780B485B000AF78607B68092B60
:1013500007DD164B1B68002B03D0154B1B78012BA8
:101360001AD10123FB73134B00225A63124B002244
:101370005A63124B00225A63104B00229A63104B9F
:1013800000229A630E4B00229A630D4B00221A64CE
:101390000B4B0022DA6301E00023FB73FB7B184652
:1013A0001437BD465DF8047B704700BF048240429D
:1013B0000800002000440140004801400040014076
:1013C0000000014080B483B000AF87ED010AC7ED93
:1013D000000A97ED007AD7ED017A77EE677A264B0F
:1013E000C3ED007A244B93ED007A244BD3ED007AC1
:1013F00037EE677A224BD3ED007A27EE277A214B1E
:10140000D3ED006A1C4BD3ED007A66EEA77A37EE77
:10141000277A1D4BD3ED007A77EE277A1A4BC3ED6E
:10142000007A194BD3ED007A9FED187AF4EEC77A63
:10143000F1EE10FA02DD144B154A1A60124BD3ED8F
:10144000007A9FED147AF4EEC77AF1EE10FA02D525
:101450000D4B114A1A60084B1B68084A13600A4B6F
:10146000D3ED007AFDEEE77A17EE903A18460C3786
:10147000BD465DF8047B7047140100201801002070
:1014800010000020140000201C010020007882467B
:1014900000788246007882C6007882C680B483B025
:1014A00000AF87ED010AC7ED000A97ED007AD7ED8E
:1014B000017A77EE677A264BC3ED007A244B93EDE1
:1014C000007A244BD3ED007A37EE677A224BD3EDC6
:1014D000007A27EE277A214BD3ED006A1C4BD3ED1F
:1014E000007A66EEA77A37EE277A1D4BD3ED007AA5
:1014F00077EE277A1A4BC3ED007A194BD3ED007AB9
:101500009FED187AF4EEC77AF1EE10FA02DD144B73
:10151000154A1A60124BD3ED007A9FED147AF4EE5F
:10152000C77AF1EE10FA02D50D4B114A1A60084B3A
:101530001B68084A13600A4BD3ED007AFDEEE77A88
:1015400017EE903A18460C37BD465DF8047B70479D
:1015500020010020240100201000002014000020A1
:10156000280100200078824600788246007882C6F2
:10157000007882C680B483B000AF87ED010AC7ED62
:10158000000A97ED007AD7ED017A77EE677A264B5D
:10159000C3ED007A244B93ED007A244BD3ED007A0F
:1015A00037EE677A224BD3ED007A27EE277A214B6C
:1015B000D3ED006A1C4BD3ED007A66EEA77A37EEC6
:1015C000277A1D4BD3ED007A77EE277A1A4BC3EDBD
:1015D000007A194BD3ED007A9FED187AF4EEC77AB2
:1015E000F1EE10FA02DD144B154A1A60124BD3EDDE
:1015F000007A9FED147AF4EEC77AF1EE10FA02D574
:101600000D4B114A1A60084B1B68084A13600A4BBD
:10161000D3ED007AFDEEE77A17EE903A18460C37D4
:10162000BD465DF8047B70472C010020300100208E
:1016300010000020140000203401002000788246B1
:1016400000788246007882C6007882C680B483B073
:1016500000AF87ED010AC7ED000A97ED007AD7EDDC
:10166000017A77EE677A264BC3ED007A244B93ED2F
:10167000007A244BD3ED007A37EE677A224BD3ED14
:10168000007A27EE277A214BD3ED006A1C4BD3ED6D
:10169000007A66EEA77A37EE277A1D4BD3ED007AF3
:1016A00077EE277A1A4BC3ED007A194BD3ED007A07
:1016B0009FED187AF4EEC77AF1EE10FA02DD144BC2
:1016C000154A1A60124BD3ED007A9FED147AF4EEAE
:1016D000C77AF1EE10FA02D50D4B114A1A60084B89
:1016E0001B68084A13600A4BD3ED007AFDEEE77AD7
:1016F00017EE903A18460C37BD465DF8047B7047EC
:10170000380100203C0100201000002014000020BF
:10171000400100200078824600788246007882C628
:10172000007882C680B500AF5A4B1B78013B072B6F
:1017300060D801A252F823F0591700086B1700086F
:101740007B1700088B170008A3170008BD170008B7
:10175000D5170008E51700084F4B1B684F4A136068
:101760004F4B4FF000021A604DE04B4B1B684B4A49
:1017700013604B4B4B4A1A6045E0484B4FF0000258
:101780001A60474B474A1A603DE0434BD3ED007A5D
:10179000F1EE677A414BC3ED007A414B414A1A6042
:1017A00031E03D4BD3ED007AF1EE677A3B4BC3ED70
:1017B000007A3B4B4FF000021A6024E0364BD3ED29
:1017C000007AF1EE677A354BC3ED007A344B364A36
:1017D0001A6018E0314B4FF000021A60304B324A69
:1017E0001A6010E02C4B1B682C4A13602C4B2E4ABD
:1017F0001A6008E0294B4FF000021A60284B4FF0A6
:1018000000021A6000BF294B1B78012B03D1244B27
:10181000254A1A6006E0264B1B78012B02D1204B8B
:10182000204A1A601E4BD3ED007A37EEA77AF2EE0B
:10183000026AC7EE267A1A4BC3ED007A174B93ED76
:10184000007ADFED1C6AC7EE267A144BC3ED007AEE
:10185000194B93ED007ADFED176AC7EE267A164B27
:10186000C3ED007A0E4B1B680D4A13600B4BD3ED92
:10187000007A114B93ED007A094BD3ED006AB0EE7C
:10188000661AF0EE470AB0EE670AFFF7D9F900BF13
:1018900080BD00BFF40100200C0000207C0100206E
:1018A00084010020DB0FC9BFDB0FC93FF20100201C
:1018B000F301002000007A448001002080B584B04C
:1018C00000AF14233B60754BD3ED007A9FED747A23
:1018D00077EEC77AF1EE677AFDEEE77A17EE903A87
:1018E000BB60704BD3ED007A9FED6D7A77EEC77ACF
:1018F000F1EE677AFDEEE77A17EE903AFB606A4BFD
:10190000D3ED007A9FED667A77EEC77AF1EE677ACB
:10191000FDEEE77A17EE903A7B603B685B42FA682F
:101920009A4205DDFA683B689A4201DA0023FB60BF
:101930003B685B42BA689A4205DDBA683B689A42E6
:1019400001DA0023BB603B685B427A689A4205DD9E
:101950007A683B689A4201DA00237B60534BD3EDEF
:10196000007AB2EE067AF4EE477AF1EE10FA0AD176
:101970004F4BD3ED007AB1EE047A77EE877A4C4B79
:10198000C3ED007A13E0494BD3ED007AB2EE027A50
:10199000F4EE477AF1EE10FA09D1454BD3ED007A17
:1019A000B1EE047A77EEC77A414BC3ED007A404B33
:1019B000D3ED007AF5EEC07AF1EE10FA03D53C4B88
:1019C0004FF000021A60FB6807EE903AB8EEE77A33
:1019D000374BD3ED007A27EE277ADFED316AC7EE79
:1019E000267A344BC3ED007ABB6807EE903AB8EE26
:1019F000E77A2F4BD3ED007A27EE277ADFED286ABE
:101A0000C7EE267A2C4BC3ED007A7B6807EE903A3E
:101A1000F8EEE77A9FED297A27EE877ADFED206AE4
:101A2000C7EE267A264BC3ED007A254BD3ED007A1C
:101A300037EEA77AF2EE026AC7EE267A204BC3EDA4
:101A4000007A1C4B93ED007ADFED1E6AC7EE267A12
:101A5000184BC3ED007A184B93ED007ADFED196A4D
:101A6000C7EE267A144BC3ED007A154B1B68144A57
:101A70001360104BD3ED007A0F4B93ED007A104BAF
:101A8000D3ED006AB0EE661AF0EE470AB0EE670AD0
:101A9000FFF7D6F800BF1037BD4680BDF801002023
:101AA00000000043FC01002000020020080200208A
:101AB0000C0000207C01002080010020DB0FC93FCA
:101AC0008401002000007A4480B586B000AF642312
:101AD0003B60814B1B684FF4FA624FF47A711846F1
:101AE000FFF717FC03467C4A13607C4B1B684FF4DE
:101AF000FA624FF47A711846FFF70BFC0346774AF7
:101B00001360774B1B684FF4FA624FF47A711846F2
:101B1000FFF7FFFB0346724A1360724B1B684FF4DA
:101B2000FA624FF47A711846FFF7F3FB03466D4AE9
:101B300013606A4B1B68A3F2DC537B61694B1B6823
:101B4000A3F2DC533B61664B1B68A3F2DC53BB6022
:101B5000614B1B68A3F2DC53FB603B685B427A6914
:101B60009A4205DD7A693B689A4201DA00237B617B
:101B70003B685B423A699A4205DD3A693B689A42A2
:101B800001DA00233B613B685B42BA689A4205DD9B
:101B9000BA683B689A4201DA0023BB603B685B424B
:101BA000FA689A4205DDFA683B689A4201DA002336
:101BB000FB60BB6807EE903AB8EEE77A4A4BD3ED8C
:101BC000007A77EE277AFDEEE77A17EE903A7B609F
:101BD0007B68002B01DA00237B607B697A6802FB5B
:101BE00003F3424A82FB03125211DB17D31A07EEAA
:101BF000903AF8EEE77A3E4BC3ED007A3B695B42E0
:101C00007A6802FB03F3394A82FB03125211DB1795
:101C1000D31A07EE903AF8EEE77A364BC3ED007A26
:101C2000FB685B4207EE903AF8EEE77A9FED327A76
:101C300027EE877ADFED316AC7EE267A304BC3EDA7
:101C4000007A2F4BD3ED007A37EEA77AF2EE026AD4
:101C5000C7EE267A2A4BC3ED007A254B93ED007A26
:101C6000DFED286AC7EE267A214BC3ED007A214BBF
:101C700093ED007ADFED236AC7EE267A1D4BC3EDA4
:101C8000007A1F4B1B681E4A13601F4B1B78002BEA
:101C90000DD0174B4FF000021A60194B4FF00002A5
:101CA0001A60194B1B78013BDAB2174B1A70104BB4
:101CB000D3ED007A0F4B93ED007A114BD3ED006A10
:101CC000B0EE661AF0EE470AB0EE670AFEF7B8FF0C
:101CD00000BF1837BD4680BD580000205C000020C2
:101CE00060000020640000200C000020D34D621032
:101CF0007C01002080010020DB0FC93F0000FA4377
:101D00008401002000007A440000002080B582B0E9
:101D100000AF322006F0C0FB0346FB71FB79022BBB
:101D20000BD1084B084A1168196092889A80074BBA
:101D3000074A1168196092889A8000BF0837BD462B
:101D400080BD00BFEC550020F4550020FC5500205C
:101D50000456002080B584B000AF022006F0D8FA07
:101D60000346424A1360032006F0D2FA03463F4A74
:101D70005360042006F0CCFA03463C4A93600520E9
:101D800006F0C6FA0346394AD360384B1B6807EEA3
:101D9000903AF8EEE77AC7ED037A344B5B685B4222
:101DA00007EE903AF8EEE77AC7ED027A2F4B9B6880
:101DB00007EE903AF8EEE77AC7ED017A2B4BDB6835
:101DC00007EE903AF8EEE77AC7ED007AD7ED037A9E
:101DD0009FED277A27EE877A264BD3ED007A67EEC0
:101DE000276A254B93ED007AC6EE877A234BC3ED25
:101DF000007AD7ED027A9FED1E7A27EE877A1D4B87
:101E0000D3ED007A67EE276A1B4B93ED007AC6EE9E
:101E1000877A1B4BC3ED007AD7ED017A9FED147AD8
:101E200027EE877A134BD3ED007A67EE276A124BC1
:101E300093ED007AC6EE877A124BC3ED007AD7EDA8
:101E4000007A9FED0B7A27EE877A0A4BD3ED007A62
:101E500067EE276A084B93ED007AC6EE877A0A4B45
:101E6000C3ED007A00BF1037BD4680BD00010020E1
:101E70000000C842DC010020D801002088010020B9
:101E80009C010020B0010020C401002080B483B078
:101E900000AF87ED010AD7ED017AF5EEC07AF1EED9
:101EA00010FA02DBD7ED017A03E0D7ED017AF1EE0B
:101EB000677AB0EE670A0C37BD465DF8047B704761
:101EC00080B500AF704B4FF4AD721A600A21092043
:101ED00005F004FC03461A466B4B1B6892FBF3F3B8
:101EE000DAB26A4B1A70694B1B78052B02D9674B23
:101EF00005221A70654B02221A70644B1B78052B61
:101F000068D801A252F823F0211F00083F1F0008E3
:101F10005D1F00087B1F0008991F0008B71F0008FD
:101F20009FED5B3AF2EE0A2AB3EE0E2ADFED591A64
:101F30009FED591A9FED480B00F0C0F84AE09FED65
:101F4000573AF2EE0A2AB3EE0E2ADFED551A9FED4C
:101F5000511A9FED430B00F0B1F83BE09FED513A71
:101F6000F2EE0A2AB3EE0E2ADFED4A1A9FED4E1A60
:101F70009FED3D0B00F0A2F82CE09FED4A3AF2EE07
:101F80000A2AB3EE0E2ADFED431A9FED421A9FEDA7
:101F9000380B00F093F81DE09FED423AF2EE0A2A6A
:101FA000B3EE0E2ADFED3B1A9FED401A9FED320B88
:101FB00000F084F80EE09FED3E3AF2EE0A2AB3EE0E
:101FC0000E2ADFED341A9FED331A9FED2D0B00F032
:101FD00075F800BF2D4B1B78052B39D801A252F89C
:101FE00023F000BFFD1F00080B2000081920000887
:101FF0002720000835200008432000082D4B082228
:102000001A602D4B0E221A6022E02A4B06221A601B
:10201000294B0A221A601BE0264B04221A60264B29
:1020200007221A6014E0234B04221A60224B072275
:102030001A600DE01F4B08221A601F4B0B221A601A
:1020400006E01C4B04221A601B4B07221A6000BFDB
:1020500000BF80BDAFF30080022B8716D9CEB73FFB
:102060000000000000000000000000806ABCC43FC7
:10207000000000A0EFA7C63F000000C09DEFC73FD3
:10208000000000E07A14CE3F7001002074010020AF
:102090009A99993D000000007B14AE3D8FC2753DBA
:1020A000643BDF3DB81E853DBC74133EE926313EDE
:1020B000C520303D100200201402002080B588B0F9
:1020C00000AF87ED060B87ED051AC7ED041A87ED03
:1020D000032AC7ED022A87ED013AD7E90601FEF788
:1020E0000BFD0346214A1360204A7B6953601F4A57
:1020F0003B695361D7ED037AFDEEE77A17EE902A3C
:102100001A4B9A60D7ED027AFDEEE77A17EE902A25
:10211000164BDA60154A7B681361144BDB68134A6F
:10212000926802FB03F39B0007EE903AF8EEE77A21
:102130000F4BC3ED007A0D4BD3ED047A9FED0D7A72
:1021400067EE877A0C4BC3ED007A084B1B680B4A8D
:102150001360064B5B680A4A1360044B5B69094ACB
:10216000136000BF2037BD4680BD00BF4401002082
:10217000D8010020DB0F4940DC010020E0010020F5
:10218000E4010020E801002080B584B000AF786051
:1021900008F078FC0346BB600023FB6007F10803EE
:1021A0006421184603F038FB574B1B68312B03DCC6
:1021B000564B01221A600AE0534B1B68322B06DD96
:1021C000514B1B68632B02DC504B00221A60504BB2
:1021D0001B68012B03D04F4B1B68012B02D14E4BC8
:1021E00000221A604C4B1B68042B04DC4A4B1B6812
:1021F0000133494A1360484B1B68042B03DC434BF3
:1022000001221A6006E0444B1B68052B02D13F4BAC
:1022100000221A600023FB600EE005F089FAB0EEA0
:10222000407A3E4BD3ED007A77EE277A3B4BC3EDF5
:10223000007AFB680133FB60FB68092BEDDD374B4F
:1022400093ED007AF2EE046AC7EE267A344BC3EDC2
:10225000007A324B4FF000021A602D4B1B68012BA5
:1022600004D12B4B1B680133294A1360294B1B688F
:10227000012B04D1274B1B680133264A1360284BDE
:10228000D3ED007A9FED277AF4EEC77AF1EE10FADB
:1022900003DB234B244A1A6030E0214BD3ED007A54
:1022A000B2EE047AF4EEC77AF1EE10FA13DB1C4BAF
:1022B000D3ED007AB2EE057AF4EEC77AF1EE10FAB9
:1022C00009D5134B1B68012B05DC114B1B6801332F
:1022D0000F4A136012E0124BD3ED007AB2EE047A8B
:1022E000F4EEC77AF1EE10FA08D5094B1B68012B02
:1022F00004DC084B1B680133064A136000F068FADF
:1023000000F014F848E700BFFC000020A0024042A3
:10231000600100206401002004000020105600200D
:102320000C5600209A9949419A99494180B500AFCD
:10233000CB4BD3ED007A9FEDCB7A67EE877AFDEE3B
:10234000E77A17EE902AC84B1A60C84B1B68013316
:10235000C64A1360C64B1B68002B40F01F82C54A5B
:102360001021002006F083FCC34A1021372006F01C
:102370007EFCC24BB3F90430002B0FDAC04A1021A7
:102380005A2006F074FCBD4BB3F904305B421A4688
:1023900003231021642006F0AFFC0DE0B94A1021A0
:1023A0005A2006F064FCB54BB3F904301A460323F7
:1023B0001021642006F0A0FCB34A1121002006F091
:1023C00056FCB24BB3F90430002B0FDAAC4A1121A2
:1023D0003C2006F04CFCAD4BB3F904305B421A468E
:1023E000052311214B2006F087FC0DE0A54A1121A1
:1023F0003C2006F03CFCA54BB3F904301A460523FB
:1024000011214B2006F078FCA14A1221002006F091
:102410002EFCA04BD3ED027AF5EEC07AF1EE10FA65
:1024200017D5974A12210F2006F021FC994BD3EDC6
:10243000027AF1EE677A9FED987A67EE877AFCEE82
:10244000E77A052317EE902A1221142006F054FC97
:1024500014E08C4A12210F2006F009FC8D4BD3EDBD
:10246000027A9FED8D7A67EE877AFCEEE77A052394
:1024700017EE902A1221142006F03EFC854BD3ED76
:10248000007AF5EEC07AF1EE10FA17D57C4A1221E7
:102490003C2006F0ECFB7F4BD3ED007AF1EE677A3F
:1024A0009FED7D7A67EE877AFCEEE77A052317EEDB
:1024B000902A12214B2006F01FFC14E0714A1221D1
:1024C0003C2006F0D4FB734BD3ED007A9FED727A7B
:1024D00067EE877AFCEEE77A052317EE902A122141
:1024E0004B2006F009FC6D4A1321002006F0BFFBCB
:1024F0006B4BD3ED027AF5EEC07AF1EE10FA17D5F8
:102500005F4A13210F2006F0B2FB654BD3ED027A30
:10251000F1EE677A9FED607A67EE877AFCEEE77AF4
:10252000052317EE902A1321142006F0E5FB14E092
:10253000544A13210F2006F09AFB594BD3ED027A2F
:102540009FED557A67EE877AFCEEE77A052317EE62
:10255000902A1321142006F0CFFB514BD3ED007AC3
:10256000F5EEC07AF1EE10FA17D5454A13213C205A
:1025700006F07DFB4A4BD3ED007AF1EE677A9FEDD2
:10258000467A67EE877AFCEEE77A052317EE902A03
:1025900013214B2006F0B0FB14E03A4A13213C20F3
:1025A00006F065FB3E4BD3ED007A9FED3B7A67EE7C
:1025B000877AFCEEE77A052317EE902A13214B2049
:1025C00006F09AFB374A1421002006F050FB364BE8
:1025D0001B68002B0EDA2A4A14213C2006F047FB28
:1025E000314B1B685B421A4604231421502006F02D
:1025F00083FB0CE0234A14213C2006F038FB2A4BD5
:102600001B681A4604231421502006F075FB274B43
:102610001B78012B05D1264A1521002006F027FB47
:102620006CE0244B1B78012B05D1234A1521002097
:1026300006F01DFB62E0214B1B78012B05D1204ADF
:102640001521002006F013FB58E01E4B1B78012BD0
:102650003CD11D4A1521002006F009FB4EE000BFC9
:102660000C5600200000C8425C01002068010020D8
:102670000C02002070E4000878E40008EC5500200B
:1026800080E4000884E4000888E40008D8550020AD
:1026900090E400088801002000007A4494E40008D7
:1026A0009C01002098E4000878010020EC01002043
:1026B000A0E40008ED010020A8E40008EE010020DD
:1026C000B0E40008EF010020B8E40008344B1B78A8
:1026D000002B03D1334B1B78002B01D0012300E0EA
:1026E0000023012B05D1304A1521002006F0BFFA46
:1026F00004E02E4A1521002006F0B9FA2C4B1B6885
:10270000012B09D12B4B1B78002B05D12A4A15210F
:102710002D2006F0ACFA04E0284A15212D2006F001
:10272000A6FA274B1B68274A82FB03125211DB17BC
:10273000D31A1A46022315214B2006F0DDFA224A4D
:102740001521582006F093FA1D4B1B681D4A82FB89
:1027500003125111DA178A1A642101FB02F29A1A44
:1027600002231521622006F0C7FA184A15216E20AF
:1027700006F07DFA124B1A68124B83FB02135911B3
:10278000D317CB1A642101FB03F3D31A092B05DC01
:102790000223002215215C2006F0AEFA00BF80BDA6
:1027A000F0010020F1010020C0E40008C8E40008A6
:1027B0000482404208000020D0E40008D4E400086D
:1027C0005C0100201F85EB51D8E40008DCE4000820
:1027D00080B586B002AF464BD3ED007A9FED457AC7
:1027E00067EE877A9FED447A37EEC77AF3EE0B6A8D
:1027F000C7EE267AFDEEE77A17EE903A7B607B68AB
:10280000642B01DD64237B603C4BD3ED007A9FEDAC
:102810003C7A67EE877AFDEEE77A17EE903AFB6036
:10282000FB68002B02DAFB685B42FB60354BD3EDA3
:10283000007A9FED337A67EE877AFDEEE77A17EE3E
:10284000903ABB60BB68002B02DABB685B42BB609E
:102850002D4B1B78002B0CBF01230023DBB21A4643
:10286000294B1A70294B1B78012B1BD1284BD3ED18
:10287000007ABDEEE77A274BD3ED007AFDEEE76AEA
:10288000254BD3ED007AFDEEE77A17EE903A16EE7F
:10289000902A17EE101A21480AF010FE1B4B002256
:1028A0001A7020E0184B1B78002B0ED1FB68DBB2AE
:1028B0001946BB68DBB21A46194BB3F904300093D2
:1028C0007B6818480AF0FAFD0DE0154BB3F90030AB
:1028D0001946134BB3F902301A46114BB3F90430C1
:1028E00011480AF0EBFD00BF1037BD4680BD00BFA8
:1028F0000C56002000007A4400401C46880100204D
:102900000000C8429C0100206C010020F60100205C
:102910000C0000201000002014000020E0E400085B
:10292000D8550020F0E4000800E5000880B582B02A
:1029300002AF4FF4407000F059F8A82008F0B4F846
:1029400004F07CFB04F09CFB05F028FE06F016FA70
:1029500005F088FD4FF4E13007F020FA4FF41650EF
:1029600007F078FA4FF4E13007F0D0FA04F0D6FD22
:1029700004F024FE002300930323062207210120F4
:1029800004F020FFFFF79CFA05F01AFB05F094FB1A
:1029900005F0F6FB05F058FC532142F20F7006F0EB
:1029A000BBFFA72142F20F7006F0F6FC002144F2B3
:1029B0009F1005F00DFE002144F29F1005F092FEDD
:1029C000002144F29F1005F0F5FE002144F29F1013
:1029D00005F04AFF04F0F0F804F0DCFB06F050FAD2
:1029E00006F0CAFC00BFBD4680BD000080B483B0C5
:1029F00000AF7860064A7B6843F0BF6343F400335E
:102A0000D36000BF0C37BD465DF8047B704700BF44
:102A100000ED00E080B485B000AF78600023FB7368
:102A20000023BB730F237B737B68DB78002B39D0CB
:102A3000274BDB68DB431B0ADBB203F00703FB73A6
:102A4000FB7BC3F10403BB737A7BFB7B42FA03F38A
:102A50007B737B685B781A46BB7B02FA03F3FB73DC
:102A60007B689A787B7B1340DAB2FB7B1343FB7362
:102A7000FB7B1B01FB73174A7B681B781344FA7BB3
:102A800083F800237B681B7803F01F0311497A68E1
:102A900012785209D2B21046012202FA03F341F829
:102AA00020300FE07B681B7803F01F0309497A6828
:102AB00012785209D2B2104601229A4000F1200346
:102AC00041F8232000BF1437BD465DF8047B7047F2
:102AD00000ED00E000E100E080B483B000AF78607A
:102AE0007B68042B06D1094B1B68084A43F004039A
:102AF000136005E0054B1B68044A23F004031360D0
:102B000000BF0C37BD465DF8047B704710E000E065
:102B100080B485B000AF786039600023FB6000238B
:102B2000FB727B685B68FB60FB6823F0407323F4F7
:102B30008073FB603B681B791A023B681B68134378
:102B4000FA681343FB607B68FA685A607B689B688D
:102B5000FB60FA68184B1340FB603B681A693B68DE
:102B6000DB681A433B689B681A433B685B795B00F0
:102B70001343FA681343FB607B68FA689A607B68CA
:102B8000DB6AFB60FB6823F47003FB603B681B7D22
:102B9000013BDAB2FB7A1343FB72FB7A1B05FA683E
:102BA0001343FB607B68FA68DA6200BF1437BD46E6
:102BB0005DF8047B704700BFFDF7FFC080B485B0AF
:102BC00000AF78600023FB600E4B5B68FB60FA6827
:102BD0000D4B1340FB607B681A687B685B681A4387
:102BE0007B689B681A437B68DB681343FA6813436E
:102BF000FB60044AFB68536000BF1437BD465DF8B4
:102C0000047B704700230140E030FCFF80B483B0B8
:102C100000AF78600B46FB70FB78002B06D07B681A
:102C20009B6843F001027B689A6005E07B689B68C3
:102C300023F001027B689A6000BF0C37BD465DF847
:102C4000047B704780B485B000AF786008461146B9
:102C50001A460346FB700B46BB7013467B7000237D
:102C6000FB600023BB60FB78092B23D97B68DB6802
:102C7000FB60FB78A3F10A0213465B0013440722B2
:102C800002FA03F3BB60BB68DB43FA681340FB60E6
:102C90007978FB78A3F10A0213465B00134401FA2A
:102CA00003F3BB60FA68BB681343FB607B68FA6898
:102CB000DA601EE07B681B69FB60FA7813465B00F4
:102CC0001344072202FA03F3BB60BB68DB43FA68D4
:102CD0001340FB607978FA7813465B00134401FADD
:102CE00003F3BB60FA68BB681343FB607B68FA6858
:102CF0001A61BB78062B21D87B685B6BFB60BB78C5
:102D00005A1E13469B0013441F2202FA03F3BB60B2
:102D1000BB68DB43FA681340FB60F978BB785A1E46
:102D200013469B00134401FA03F3BB60FA68BB68C7
:102D30001343FB607B68FA685A6347E0BB780C2B4F
:102D400021D87B681B6BFB60BB78DA1F13469B00A6
:102D500013441F2202FA03F3BB60BB68DB43FA682B
:102D60001340FB60F978BB78DA1F13469B001344CD
:102D700001FA03F3BB60FA68BB681343FB607B682E
:102D8000FA681A6322E07B68DB6AFB60BB78A3F118
:102D90000D0213469B0013441F2202FA03F3BB608B
:102DA000BB68DB43FA681340FB60F978BB78A3F19A
:102DB0000D0213469B00134401FA03F3BB60FA684B
:102DC000BB681343FB607B68FA68DA6200BF1437A4
:102DD000BD465DF8047B704780B483B000AF786077
:102DE0007B689B6843F080427B689A6000BF0C3729
:102DF000BD465DF8047B704780B483B000AF786057
:102E00007B68DB6C9BB218460C37BD465DF8047BD3
:102E1000704780B485B000AF78600B46FB7000232C
:102E2000FB737B681A68FB781340002B02D00123E8
:102E3000FB7301E00023FB73FB7B18461437BD4690
:102E40005DF8047B704780B485B000AFF860B9606E
:102E50001346FB71FB79002B06D0FB685A69BB68EF
:102E60001A43FB685A6106E0FB685A69BB68DB439A
:102E70001A40FB685A6100BF1437BD465DF8047BF9
:102E8000704780B487B000AF7860396000237B6101
:102E900000233B610023FB6000237B6176E001227D
:102EA0007B6902FA03F33B613B681B683A69134094
:102EB000FB60FA683B699A4265D17B681A687B6956
:102EC0005B00032101FA03F3DB431A407B681A60BD
:102ED0007B681A683B681B7919467B695B0001FABD
:102EE00003F31A437B681A603B681B79012B03D0FC
:102EF0003B681B79022B2ED17B689A687B695B004B
:102F0000032101FA03F3DB431A407B689A607B6874
:102F10009A683B685B7919467B695B0001FA03F3A9
:102F20001A437B689A607B685A687B699BB2194632
:102F300001238B40DB431A407B685A607B685B68E7
:102F40003A68927911467A6992B201FA02F292B223
:102F50001A437B685A607B68DA687B699BB25B00C6
:102F6000032101FA03F3DB431A407B68DA607B68D4
:102F7000DA683B68DB7919467B695B0001FA03F389
:102F80001A437B68DA607B6901337B617B690F2BB5
:102F900085D900BF00BF1C37BD465DF8047B704774
:102FA00080B483B000AF78600B467B807B687A8802
:102FB0001A8300BF0C37BD465DF8047B704780B4B0
:102FC00083B000AF78600B467B8013467B707B78C4
:102FD000002B03D07B687A881A8302E07B687A88AA
:102FE0005A8300BF0C37BD465DF8047B704780B440
:102FF00085B000AF78600B467B8013467B70002362
:10300000FB600023BB607A787B8803F007039B009A
:1030100002FA03F3FB607B88DB089BB21A467B68ED
:10302000083253F822207B8803F007039B000F210E
:1030300001FA03F3DB437988C90889B2084602EA3A
:1030400003017B6800F1080243F822107B88DB084B
:103050009BB21A467B68083253F82230FA68134351
:10306000BB607B88DB089BB21A467B680832B96874
:1030700043F8221000BF1437BD465DF8047B70474B
:1030800080B489B000AF78600023BB6100237B610E
:103090000023FB6102233B610023FB600223BB6032
:1030A0004A4B9B6803F00C03BB61BB69082B11D032
:1030B000BB69082B44D8BB69002B03D0BB69042B28
:1030C00004D03DE07B68424A1A603DE07B68414A9B
:1030D0001A6039E03D4B5B689B0D03F00103FB6018
:1030E0003A4B5B6803F03F03BB60FB68002B0CD0DE
:1030F000384ABB68B2FBF3F3344A52689209C2F310
:10310000080202FB03F3FB610BE0314ABB68B2FB30
:10311000F3F32E4A52689209C2F3080202FB03F34A
:10312000FB612A4B5B681B0C03F0030301335B005C
:103130003B61FA693B69B2FBF3F27B681A6003E01A
:103140007B68234A1A6000BF204B9B6803F0F003A2
:10315000BB61BB691B09BB611F4ABB6913441B7878
:10316000DBB27B617B681A687B69DA407B685A60F6
:10317000164B9B6803F4E053BB61BB699B0ABB61C0
:10318000154ABB6913441B78DBB27B617B685A68C4
:103190007B69DA407B689A600C4B9B6803F4604360
:1031A000BB61BB695B0BBB610B4ABB6913441B78FA
:1031B000DBB27B617B685A687B69DA407B68DA60E6
:1031C00000BF2437BD465DF8047B704700380240DD
:1031D0000024F40000127A001800002080B483B0AC
:1031E00000AF78600B46FB70FB78002B06D00A4BD3
:1031F0001A6B09497B6813430B6306E0064B1A6B95
:103200007B68DB43044913400B6300BF0C37BD46AA
:103210005DF8047B704700BF0038024080B483B083
:1032200000AF78600B46FB70FB78002B06D00A4B92
:103230001A6C09497B6813430B6406E0064B1A6C51
:103240007B68DB43044913400B6400BF0C37BD4669
:103250005DF8047B704700BF0038024080B483B043
:1032600000AF78600B46FB70FB78002B06D00A4B52
:103270005A6C09497B6813434B6406E0064B5A6C51
:103280007B68DB43044913404B6400BF0C37BD46E9
:103290005DF8047B704700BF0038024080B483B003
:1032A00000AF78600B46FB70FB78002B06D00A4B12
:1032B0005A6A09497B6813434B6206E0064B5A6A17
:1032C0007B68DB43044913404B6200BF0C37BD46AB
:1032D0005DF8047B704700BF0038024080B485B0C1
:1032E00000AF786039600023FB817B681B88FB811D
:1032F0007B68294A934213D07B68284A93420FD0B7
:103300007B68B3F1804F0BD07B68254A934207D08E
:103310007B68244A934203D07B68234A934208D1B6
:10332000FB8923F07003FB813B685A88FB891343B8
:10333000FB817B681D4A93420CD07B681C4A9342F8
:1033400008D0FB8923F44073FB813B681A89FB8911
:103350001343FB817B68FA891A803B685A687B6853
:10336000DA623B681A887B681A857B680A4A93424E
:1033700003D07B68094A934204D13B689B7A9AB296
:103380007B681A867B6801229A8200BF1437BD468B
:103390005DF8047B704700BF00000140000401405D
:1033A0000004004000080040000C004000100040F5
:1033B0000014004080B483B000AF78607B684FF0A9
:1033C000FF325A607B6800221A807B6800221A81D3
:1033D0007B6800225A807B6800229A7200BF0C37FB
:1033E000BD465DF8047B704780B483B000AF786061
:1033F00039607B683A685A6200BF0C37BD465DF899
:10340000047B704780B483B000AF78600B46FB70DC
:10341000FB78002B08D07B681B889BB243F08003AD
:103420009AB27B681A8007E07B681B889BB223F006
:1034300080039AB27B681A8000BF0C37BD465DF8E6
:10344000047B704780B483B000AF78600B46FB709C
:10345000FB78002B08D07B681B889BB243F00103EC
:103460009AB27B681A8007E07B681B889BB223F0C6
:1034700001039AB27B681A8000BF0C37BD465DF825
:10348000047B704780B485B000AF7860396000235A
:103490007B810023FB810023BB817B681B8C9BB25B
:1034A00023F001039AB27B681A847B681B8CFB8132
:1034B0007B689B88BB817B681B8B7B817B8923F02E
:1034C00070037B817B8923F003037B813B681A882F
:1034D0007B8913437B81FB8923F00203FB813B68DB
:1034E0009A89FB891343FB813B685A88FB89134304
:1034F000FB817B681E4A934203D07B681D4A93423E
:1035000023D1FB8923F00803FB813B68DA89FB891F
:103510001343FB81FB8923F00403FB813B689A88FA
:10352000FB891343FB81BB8923F48073BB81BB8977
:1035300023F40073BB813B681A8ABB891343BB81A8
:103540003B685A8ABB891343BB817B68BA899A80DE
:103550007B687A891A833B689A687B685A637B68C0
:10356000FA891A8400BF1437BD465DF8047B7047A2
:10357000000001400004014080B485B000AF7860D5
:10358000396000237B810023FB810023BB817B68A2
:103590001B8C9BB223F010039AB27B681A847B6861
:1035A0001B8CFB817B689B88BB817B681B8B7B8131
:1035B0007B8923F4E0437B817B8923F440737B8107
:1035C0003B681B881B029AB27B8913437B81FB8972
:1035D00023F02003FB813B689B891B019AB2FB8986
:1035E0001343FB813B685B881B019AB2FB89134341
:1035F000FB817B68224A934203D07B68214A934235
:103600002BD1FB8923F08003FB813B68DB891B0105
:103610009AB2FB891343FB81FB8923F04003FB81B2
:103620003B689B881B019AB2FB891343FB81BB89D2
:1036300023F48063BB81BB8923F40063BB813B68B7
:103640001B8A9B009AB2BB891343BB813B685B8A90
:103650009B009AB2BB891343BB817B68BA899A806D
:103660007B687A891A833B689A687B689A637B686F
:10367000FA891A8400BF1437BD465DF8047B704791
:10368000000001400004014080B485B000AF7860C4
:10369000396000237B810023FB810023BB817B6891
:1036A0001B8C9BB223F480739AB27B681A847B686C
:1036B0001B8CFB817B689B88BB817B689B8B7B81A0
:1036C0007B8923F070037B817B8923F003037B815B
:1036D0003B681A887B8913437B81FB8923F4007341
:1036E000FB813B689B891B029AB2FB891343FB81D8
:1036F0003B685B881B029AB2FB891343FB817B68A2
:10370000224A934203D07B68214A93422BD1FB8902
:1037100023F40063FB813B68DB891B029AB2FB89BF
:103720001343FB81FB8923F48063FB813B689B8807
:103730001B029AB2FB891343FB81BB8923F480539C
:10374000BB81BB8923F40053BB813B681B8A1B01EF
:103750009AB2BB891343BB813B685B8A1B019AB257
:10376000BB891343BB817B68BA899A807B687A895D
:103770009A833B689A687B68DA637B68FA891A8463
:1037800000BF1437BD465DF8047B70470000014060
:103790000004014080B485B000AF78603960002338
:1037A000BB8100237B810023FB817B681B8C9BB248
:1037B00023F480539AB27B681A847B681B8C7B81CC
:1037C0007B689B88FB817B689B8BBB81BB8923F4D7
:1037D000E043BB81BB8923F44073BB813B681B88FA
:1037E0001B029AB2BB891343BB817B8923F400532C
:1037F0007B813B689B891B039AB27B8913437B8146
:103800003B685B881B039AB27B8913437B817B688F
:10381000124A934203D07B68114A93420AD1FB8932
:1038200023F48043FB813B681B8A9B019AB2FB898E
:103830001343FB817B68FA899A807B68BA899A83F3
:103840003B689A687B681A647B687A891A8400BF2F
:103850001437BD465DF8047B704700BF000001408F
:103860000004014080B485B000AF78600B467B80D7
:103870000023FB817B681B8BFB81FB8923F0080302
:10388000FB81FA897B881343FB817B68FA891A8361
:1038900000BF1437BD465DF8047B704780B485B027
:1038A00000AF78600B467B800023FB817B681B8B1D
:1038B000FB81FB8923F40063FB817B881B029AB2A6
:1038C000FB891343FB817B68FA891A8300BF143795
:1038D000BD465DF8047B704780B485B000AF78606A
:1038E0000B467B800023FB817B689B8BFB81FB89E4
:1038F00023F00803FB81FA897B881343FB817B68F3
:10390000FA899A8300BF1437BD465DF8047B70477F
:1039100080B485B000AF78600B467B800023FB81CC
:103920007B689B8BFB81FB8923F40063FB817B8895
:103930001B029AB2FB891343FB817B68FA899A8345
:1039400000BF1437BD465DF8047B704780B485B076
:1039500000AF78600B467B800023FB817B681B8C6B
:10396000FB81FB8923F00203FB81FA897B881343E7
:10397000FB817B68FA891A8400BF1437BD465DF865
:10398000047B704780B485B000AF78600B467B80C5
:103990000023FB817B681B8CFB81FB8923F02003C8
:1039A000FB817B881B019AB2FB891343FB817B68F7
:1039B000FA891A8400BF1437BD465DF8047B70474E
:1039C00080B485B000AF78600B467B800023FB811C
:1039D0007B681B8CFB81FB8923F40073FB817B8854
:1039E0001B029AB2FB891343FB817B68FA891A8414
:1039F00000BF1437BD465DF8047B704780B485B0C6
:103A000000AF78600B467B800023FB817B681B8CBA
:103A1000FB81FB8923F40053FB817B881B039AB253
:103A2000FB891343FB817B68FA891A8400BF143732
:103A3000BD465DF8047B704780B582B000AF78600A
:103A400039603B681B88002B0FD13B6859883B6865
:103A50009A883B681B89786800F0E1F93B68DB884D
:103A60001946786800F085F836E03B681B88042B1F
:103A70000FD13B6859883B689A883B681B897868F6
:103A800000F010FA3B68DB881946786800F08DF882
:103A900022E03B681B88082B0FD13B6859883B68A4
:103AA0009A883B681B89786800F049FA3B68DB8894
:103AB0001946786800F097F80EE03B6859883B6833
:103AC0009A883B681B89786800F081FA3B68DB883C
:103AD0001946786800F0A3F800BF0837BD4680BDDE
:103AE00080B483B000AF78607B6800221A807B6866
:103AF00000225A807B6801229A807B680022DA804B
:103B00007B6800221A8100BF0C37BD465DF8047B3C
:103B1000704780B483B000AF78607B685B6B1846F9
:103B20000C37BD465DF8047B704780B483B000AFAE
:103B300078607B689B6B18460C37BD465DF8047B4C
:103B4000704780B483B000AF78607B68DB6B184649
:103B50000C37BD465DF8047B704780B483B000AF7E
:103B600078607B681B6C18460C37BD465DF8047B9B
:103B7000704780B483B000AF78600B467B807B6871
:103B80001B8B9BB223F00C039AB27B681A837B6871
:103B90001B8B9AB27B8813439AB27B681A8300BF4F
:103BA0000C37BD465DF8047B704780B483B000AF2E
:103BB00078600B467B807B681B8B9BB223F4406351
:103BC0009AB27B681A837B681B8B9AB27B881B0234
:103BD0009BB213439AB27B681A8300BF0C37BD4671
:103BE0005DF8047B704780B483B000AF78600B460B
:103BF0007B807B689B8B9BB223F00C039AB27B6823
:103C00009A837B689B8B9AB27B8813439AB27B68BA
:103C10009A8300BF0C37BD465DF8047B704780B4C3
:103C200083B000AF78600B467B807B689B8B9BB238
:103C300023F440639AB27B689A837B689B8B9AB229
:103C40007B881B029BB213439AB27B689A8300BFA6
:103C50000C37BD465DF8047B704780B483B000AF7D
:103C600078600B46FB70FB78002B0CD07B68B3F8B8
:103C700044309BB26FEA43436FEA53439AB27B6886
:103C8000A3F8442009E07B68B3F844309BB2C3F347
:103C90000E039AB27B68A3F8442000BF0C37BD46E0
:103CA0005DF8047B704780B483B000AF78600B464A
:103CB0007B8013467B707B78002B08D07B689B89C8
:103CC0009AB27B8813439AB27B689A8109E07B6839
:103CD0009B899AB27B88DB439BB213409AB27B6884
:103CE0009A8100BF0C37BD465DF8047B704780B4F5
:103CF00083B000AF78600B467B807B88DB439AB251
:103D00007B681A8200BF0C37BD465DF8047B7047A4
:103D100080B485B000AF78600B467B800023FB73D6
:103D20000023BB8100237B817B681B8A9AB27B883E
:103D30001340BB817B689B899AB27B8813407B814F
:103D4000BB89002B05D07B89002B02D00123FB739C
:103D500001E00023FB73FB7B18461437BD465DF87A
:103D6000047B704780B483B000AF78600B467B80E3
:103D70007B88DB439AB27B681A8200BF0C37BD4652
:103D80005DF8047B704780B487B000AFF8600846E8
:103D900011461A4603467B810B463B811346FB8046
:103DA0000023FB820023BB8200237B82FB681B89EC
:103DB000FB82FB681B8BBB82FB681B8C7B82FB8AB4
:103DC00023F00703FB82FA8A7B891343FB82BB8AB9
:103DD00023F4407323F00303BB82BB8A43F4807354
:103DE00043F00103BB827B8A23F022037B82FB88A2
:103DF0001B019AB23B8913439AB27B8A13437B829D
:103E0000FB68FA8A1A81FB68BA8A1A83FB687A8A85
:103E10001A8400BF1C37BD465DF8047B704780B430
:103E200087B000AFF860084611461A4603467B810A
:103E30000B463B811346FB800023FB820023BB82A1
:103E4000FB681B8C9BB223F001039AB2FB681A84B7
:103E5000FB681B8BFB82FB681B8CBB82FB8A23F0FD
:103E6000F303FB82FB881B019AB23B8913439AB28E
:103E7000FB8A1343FB82BB8A23F00A03BB827A8945
:103E8000BB8A13439BB243F00103BB82FB68FA8AEF
:103E90001A83FB68BA8A1A8400BF1C37BD465DF8D6
:103EA000047B704780B487B000AFF86008461146C5
:103EB0001A4603467B810B463B811346FB80002359
:103EC000FB820023BB8200237B82FB681B8C9BB29E
:103ED00023F010039AB2FB681A84FB681B8BFB82E9
:103EE000FB681B8CBB827B891B017B82FB8A23F4D2
:103EF00040731B051B0DFB82FB881B039AB2FB8AD8
:103F00001343FB823B891B029AB2FB8A1343FB8259
:103F1000BB8A23F0A003BB827A8ABB8A13439BB27D
:103F200043F01003BB82FB68FA8A1A83FB68BA8AE3
:103F30001A8400BF1C37BD465DF8047B704780B40F
:103F400087B000AFF860084611461A4603467B81E9
:103F50000B463B811346FB800023FB820023BB8280
:103F600000237B82FB681B8C9BB223F480739AB284
:103F7000FB681A84FB689B8BFB82FB681B8CBB82F3
:103F80007B891B027B82FB8A23F0F303FB82FB8885
:103F90001B019AB23B8913439AB2FB8A1343FB82FB
:103FA000BB8A23F42063BB827A8ABB8A13439BB209
:103FB00043F48073BB82FB68FA8A9A83FB68BA8AEF
:103FC0001A8400BF1C37BD465DF8047B704780B47F
:103FD00087B000AFF860084611461A4603467B8159
:103FE0000B463B811346FB800023FB820023BB82F0
:103FF00000237B82FB681B8C9BB223F480539AB214
:10400000FB681A84FB689B8BFB82FB681B8CBB8262
:104010007B891B037B82FB8A23F440731B051B0DEA
:10402000FB823B891B029AB2FB8A1343FB82FB880B
:104030001B039AB2FB8A1343FB82BB8A23F400530F
:104040005B045B0CBB827A8ABB8A13439BB243F44A
:104050008053BB82FB68FA8A9A83FB68BA8A1A8407
:1040600000BF1C37BD465DF8047B704780B58AB041
:1040700000AF7860396000237B6200233B6200233D
:10408000FB610023BB617B681B8A9BB27B627B6AFE
:1040900023F440537B623B68DB881A467B6A1343F8
:1040A0007B627B6A9AB27B681A827B689B899BB22F
:1040B0007B627B6A23F4B05323F00C037B623B6882
:1040C0009A883B681B8913439AB23B685B89134308
:1040D0009BB21A467B6A13437B627B6A9AB27B6807
:1040E0009A817B689B8A9BB27B627B6A23F44073D4
:1040F0007B623B689B891A467B6A13437B627B6ABF
:104100009AB27B689A8207F108031846FEF7B8FF57
:104110007B68304A934203D07B682F4A934202D196
:104120007B693B6201E03B693B627B689B899BB298
:104130001BB2002B0CDA3A6A13469B0013449A0018
:104140001A443B681B685B00B2FBF3F3FB610BE0B6
:104150003A6A13469B0013449A001A443B681B6852
:104160009B00B2FBF3F3FB61FB691C4AA2FB032338
:104170005B091B017B627B6A1B09642202FB03F360
:10418000FA69D31ABB617B689B899BB21BB2002B77
:104190000CDABB69DB003233104AA2FB03235B0954
:1041A00003F007037A6A13437B620BE0BB691B01D0
:1041B00032330A4AA2FB03235B0903F00F037A6A36
:1041C00013437B627B6A9AB27B681A8100BF2837EF
:1041D000BD4680BD00100140001401401F85EB5119
:1041E00080B483B000AF78600B46FB70FB78002B87
:1041F00008D07B689B899BB243F400539AB27B68DA
:104200009A8107E07B689B899BB223F400539AB2A2
:104210007B689A8100BF0C37BD465DF8047B704710
:1042200080B483B000AF78607B689B889BB2C3F397
:1042300008039BB218460C37BD465DF8047B7047F7
:1042400080B487B000AF78600B467B8013467B70EC
:1042500000233B610023FB600023BB6000237B61E4
:104260007B687B617B88DBB25B09DBB23B617B886F
:1042700003F01F03FB600122FB6802FA03F3BB603B
:104280003B69012B03D17B690C337B6109E03B69FE
:10429000022B03D17B6910337B6102E07B6914330D
:1042A0007B617B78002B06D07B6919687B69BA68D3
:1042B0000A431A6006E07B691968BB68DA437B69C8
:1042C0000A401A6000BF1C37BD465DF8047B70478A
:1042D00080B487B000AF78600B467B800023FB6022
:1042E00000237B610023BB600023FB747B88DBB26F
:1042F0005B09DBB2BB607B8803F01F037B6101229B
:104300007B6902FA03F37B61BB68012B07D17B68F1
:104310009B899BB21A467B6913407B6111E0BB68A5
:10432000022B07D17B681B8A9BB21A467B6913401C
:104330007B6106E07B689B8A9BB21A467B691340CF
:104340007B617B881B0A9BB2FB600122FB6802FA3F
:1043500003F3FB607B681B889BB21A46FB68134023
:10436000FB607B69002B05D0FB68002B02D001238A
:10437000FB7401E00023FB74FB7C18461C37BD4630
:104380005DF8047B7047000080B588B000AF7860AE
:1043900000237B6101F038FB554B1B68002B01D1DA
:1043A00000F00AF97B68002B22D00823DB437A68EF
:1043B0009A421BD808227B6813447B607B6803F019
:1043C0000703002B14D07B6803F00703C3F1080335
:1043D0003B613B69DB437A689A4204D87A683B695F
:1043E00013447B6004E000237B6001E000237B60DA
:1043F0007B68002B6ADB7B68002B67D03D4B1B681A
:104400007A689A4262D83C4BBB613B4B1B68FB61AC
:1044100004E0FB69BB61FB691B68FB61FB695B68CE
:104420007A689A4203D9FB691B68002BF1D1304BA3
:104430001B68FA699A4249D0BB691B680822134479
:104440007B61FB691A68BB691A60FB695A687B6803
:10445000D21A08235B009A4219D9FA697B6813447F
:10446000FB60FB6803F00703002B04D0EE22234916
:10447000234809F023F8FB695A687B68D21AFB6865
:104480005A60FB697A685A60F86800F0F1F8194BD5
:104490001A68FB695B68D31A164A1360154B1A68D1
:1044A000184B1B689A4203D2124B1B68154A1360C3
:1044B000FB695B6843F00042FB695A60FB690022BC
:1044C0001A60114B1B6801330F4A136001F0AAFAFE
:1044D0007B6903F00703002B05D04FF4977207495F
:1044E000074808F0EBFF7B6918462037BD4680BDC2
:1044F00020520020245200201852002010E500080D
:1045000050E50008285200202C52002080B584B0CD
:1045100000AF78607B68FB607B68002B3FD008238E
:104520005B42FA681344FB60FB68BB60BB685B6876
:10453000002B05DB40F241121B491C4808F0BEFF6E
:10454000BB681B68002B05D04FF4A17216491748B1
:1045500008F0B4FFBB685B68DB0F03F00103DBB25C
:10456000002B1CD0BB681B68002B18D1BB685B6894
:1045700023F00042BB685A6001F046FABB685A68F3
:104580000B4B1B6813440A4A1360B86800F070F8BC
:10459000084B1B680133074A136001F043FA00BF60
:1045A0001037BD4680BD00BF10E5000850E500088B
:1045B000245200203052002080B485B000AF4FF468
:1045C000A043BB60254BFB60FB6803F00703002B97
:1045D0000CD0FB680733FB60FB6823F00703FB602C
:1045E000BA68FB68D31A1D4A1344BB60FB687B6042
:1045F0001B4A7B6813601A4B00225A607A68BB68BA
:104600001344FB600822FB689B1AFB60FB6823F0E5
:104610000703FB60FB68134A1360124B1B68002200
:104620005A60104B1B6800221A607B683B603B6835
:10463000FA68D21A3B685A600A4B1A683B681A60DB
:104640003B685B68084A13603B685B68074A136015
:1046500000BF1437BD465DF8047B70471802002088
:1046600018520020205200202852002024520020FE
:1046700080B485B000AF7860284BFB6002E0FB6837
:104680001B68FB60FB681B687A689A42F7D8FB6876
:10469000BB60FB685B68BA6813447A689A4208D1C9
:1046A000FB685A687B685B681A44FB685A60FB6861
:1046B0007B607B68BB607B685B68BA681A44FB6898
:1046C0001B689A4218D1FB681A68154B1B689A42FE
:1046D0000DD07B685A68FB681B685B681A447B686E
:1046E0005A60FB681B681A687B681A6008E00C4B0C
:1046F0001A687B681A6003E0FB681A687B681A60B6
:10470000FA687B689A4202D0FB687A681A6000BF38
:104710001437BD465DF8047B704700BF1852002077
:104720002052002080B483B000AF78607B6803F132
:1047300008027B685A607B684FF0FF329A607B68A2
:1047400003F108027B68DA607B6803F108027B688A
:104750001A617B6800221A6000BF0C37BD465DF805
:10476000047B704780B483B000AF78607B68002220
:104770001A6100BF0C37BD465DF8047B704780B4FA
:1047800085B000AF786039607B685B68FB603B6830
:10479000FA685A60FB689A683B689A60FB689B6895
:1047A0003A685A60FB683A689A603B687A681A61AE
:1047B0007B681B685A1C7B681A6000BF1437BD46B3
:1047C0005DF8047B704780B485B000AF78603960D5
:1047D0003B681B68BB60BB68B3F1FF3F03D17B68DC
:1047E0001B69FB600CE07B680833FB6002E0FB6840
:1047F0005B68FB60FB685B681B68BA689A42F6D22C
:10480000FB685A683B685A603B685B683A689A6024
:104810003B68FA689A60FB683A685A603B687A6855
:104820001A617B681B685A1C7B681A6000BF1437CA
:10483000BD465DF8047B704780B485B000AF7860FA
:104840007B681B69FB607B685B687A6892689A602A
:104850007B689B687A6852685A60FB685B687A6814
:104860009A4203D17B689A68FB685A607B68002291
:104870001A61FB681B685A1EFB681A60FB681B689C
:1048800018461437BD465DF8047B704780B485B088
:1048900000AFF860B9607A60FB68043BFB60FB68BE
:1048A0004FF080721A60FB68043BFB60BB6823F02A
:1048B0000102FB681A60FB68043BFB600C4AFB6862
:1048C0001A60FB68143BFB607A68FB681A60FB683F
:1048D000043BFB60FB686FF002021A60FB68203B40
:1048E000FB60FB6818461437BD465DF8047B7047D3
:1048F000F548000880B582B000AF00233B600E4B46
:104900001B68B3F1FF3F04D0EB220C490C4808F0C0
:10491000D5FD4FF0500383F31188BFF36F8FBFF3C2
:104920004F8F7B6000BF00BF3B68002BFCD000BFF7
:1049300000BF0837BD4680BD2800002060E50008A4
:104940009CE50008000000000000000000000000DE
:10495000074B19680868B0E8F04F80F30988BFF387
:104960006F8F4FF0000080F311887047AFF3008025
:104970007C52002000BF00BF08480068006880F338
:1049800008884FF0000080F3148862B661B6BFF368
:104990004F8FBFF36F8F00DF00BF000008ED00E016
:1049A00000BF00BF80B584B000AF484B1B68484AC9
:1049B000934205D14FF497724649474808F07EFD6F
:1049C000424B1B68454A934205D140F22F124149A0
:1049D000414808F073FD00237B60414BFB60FB689E
:1049E0001B78DBB2FB72FB68FF221A70FB681B7836
:1049F000DBB2FB70FB78DBB203F05003DAB2394B69
:104A00001A70384B1B78002B05D14FF4A87231492E
:104A1000314808F053FDFB78DBB2DB4303F0500371
:104A2000002B0ED04FF4AA722A492B4808F046FDFD
:104A300007E07B6801337B60FB78DBB25B00DBB2B5
:104A4000FB70FB78DBB203F08003802BF1D07B6836
:104A5000082B03D1244B00221A6004E07B68C3F1C9
:104A60000703214A1360204B1B681B021E4A136078
:104A70001D4B1B6803F4E0631B4A1360FB7ADAB238
:104A8000FB681A70194B1B68184A43F47F031360C4
:104A9000164B1B68154A43F07F43136000F0D6F8AD
:104AA000134B00221A6000F0F5F8124B1B68114AF4
:104AB00043F040431360FFF75FFF01F0DFF9FFF7BA
:104AC00019FF002318461037BD4680BD00ED00E0F9
:104AD00071C20F4160E500089CE5000870C20F41FB
:104AE00000E400E0345200203852002020ED00E0C5
:104AF0002800002034EF00E080B582B000AF4FF016
:104B0000500383F31188BFF36F8FBFF34F8F7B6028
:104B100000BF0C4B1B6801330A4A1360094B1B682A
:104B2000012B0AD1084B1B68DBB2002B05D040F2E9
:104B3000BB120649064808F0C1FC00BF0837BD4655
:104B400080BD00BF2800002004ED00E060E5000803
:104B50009CE5000880B582B000AF0E4B1B68002BAF
:104B600005D14FF4E1720C490C4808F0A7FC094B41
:104B70001B68013B074A1360064B1B68002B05D1DD
:104B800000237B607B6883F3118800BF00BF083778
:104B9000BD4680BD2800002060E500089CE50008B7
:104BA000EFF30980BFF36F8F154B1A681EF0100FDB
:104BB00008BF20ED108A20E9F04F10602DE90900B0
:104BC0004FF0500080F31188BFF34F8FBFF36F8F0A
:104BD00001F054F94FF0000080F3118809BC196806
:104BE0000868B0E8F04F1EF0100F08BFB0EC108A54
:104BF00080F30988BFF36F8F704700BFAFF3008069
:104C00007C52002000BF00BF80B582B000AF4FF0E3
:104C1000500383F31188BFF36F8FBFF34F8F7B6017
:104C200000BF01F015F80346002B03D0064B4FF0F0
:104C300080521A6000233B603B6883F3118800BFF9
:104C400000BF0837BD4680BD04ED00E080B400AF72
:104C50000B4B00221A600B4B00221A600A4B1B6898
:104C60000A4AA2FB03239B09094A013B1360044B38
:104C700007221A6000BFBD465DF8047B704700BF85
:104C800010E000E018E000E078000020D34D621052
:104C900014E000E0DFF80C00016841F470010160ED
:104CA0007047000088ED00E000BF00BF80B584B011
:104CB00000AF786039600123FB607B68BB60BB6834
:104CC000002B05D14FF497723A493B4808F0F6FBA8
:104CD000BB68002B5DD0BB68DB6B002B59D0BB6879
:104CE0001A6CBB68DB6B0021A3FB0223002B00D0F6
:104CF00001210B46002B4CD1FFF7FEFEBB681A6862
:104D0000BB68DB6BB968096C01FB03F31A44BB6831
:104D10009A60BB6800229A63BB681A68BB685A60D5
:104D2000BB681A68BB68DB6B013BB968096C01FBA7
:104D300003F31A44BB68DA60BB68FF2283F844209F
:104D4000BB68FF2283F845203B68002B14D1BB6869
:104D50001B69002B1AD0BB681033184601F04EF9BE
:104D60000346002B12D0154B4FF080521A60BFF350
:104D70004F8FBFF36F8F09E0BB6810331846FFF702
:104D8000D1FCBB6824331846FFF7CCFCFFF7E2FEEA
:104D900001E00023FB60FB68002B05D140F26312A9
:104DA0000449054808F08AFBFB6818461037BD46E1
:104DB00080BD00BFACE50008ECE5000804ED00E0B4
:104DC00080B58AB002AFF860B9601346FB7100236A
:104DD000FB61FB68002B2ED00021BA68FB68A3FBA7
:104DE0000223002B00D001210B46002B23D1FB68AE
:104DF000BA6802FB03F313F1550F1CD8FB68BA68BD
:104E000002FB03F3BB61BB6954331846FFF7BCFADE
:104E1000F861FB69002B17D0FB697B617B69543318
:104E20007B61FA79FB69009313467A69B968F8687F
:104E300000F014F808E0FB69002B05D140F21522C0
:104E40000449054808F03AFBFB6918462037BD467F
:104E500080BD00BFACE50008ECE5000880B584B07B
:104E600000AFF860B9607A60FB70BB68002B03D1BB
:104E7000BB69BA691A6002E0BB697A681A60BB69EB
:104E8000FA68DA63BB69BA681A640121B869FFF786
:104E90000DFFBB69FA7883F85020BB6900229A6441
:104EA00000BF1037BD4680BD80B58AB000AFF86046
:104EB000B9607A6000237B62FB683B623B6A002B2F
:104EC00005D140F29C525F495F4808F0F7FABB6891
:104ED000002B03D13B6A1B6C002B01D1012300E0A6
:104EE0000023002B05D14FF4B4625649564808F010
:104EF000E5FA01F08BFA0346002B02D17B68002B08
:104F000001D1012300E00023002B05D140F2A5527E
:104F10004C494D4808F0D2FAFFF7EEFD3B6A9B6B17
:104F2000FB61FB69002B1FD0B968386A00F0FAF802
:104F3000FB695A1E3B6A9A633B6A1B69002B0FD0C0
:104F40003B6A1033184601F059F80346002B07D08E
:104F50003E4B4FF080521A60BFF34F8FBFF36F8FFD
:104F6000FFF7F8FD012369E07B68002B03D1FFF711
:104F7000F1FD002362E07B6A002B06D107F11403E8
:104F8000184601F00FF901237B62FFF7E3FD00F003
:104F90003BFDFFF7B1FD3B6A93F844305BB2B3F1E0
:104FA000FF3F03D13B6A002283F844203B6A93F819
:104FB00045305BB2B3F1FF3F03D13B6A002283F877
:104FC0004520FFF7C7FD3A1D07F1140311461846A7
:104FD00001F0FEF80346002B23D1386A00F027F9D0
:104FE0000346002B17D03B6A24337A6811461846D3
:104FF00000F09CFF386A00F0BBF800F013FD034698
:10500000002B89D1114B4FF080521A60BFF34F8FA4
:10501000BFF36F8F80E7386A00F0AAF800F002FD56
:105020007AE7386A00F0A4F800F0FCFC386A00F077
:10503000FEF80346002B3FF46FAF002318462837D5
:10504000BD4680BDACE50008ECE5000804ED00E0DD
:1050500080B586B000AFF860B9607A6000237B61EC
:10506000FB689B6B3B61FB681B6C002B0DD1FB68E5
:105070001B68002B4DD1FB689B68184601F0E4F9D2
:105080007861FB6800229A6043E07B68002B19D1AD
:10509000FB685868FB681B6C1A46B96808F0F8F999
:1050A000FB685A68FB681B6C1A44FB685A60FB6813
:1050B0005A68FB689B689A422BD3FB681A68FB68A6
:1050C0005A6026E0FB68D868FB681B6C1A46B96812
:1050D00008F0DEF9FB68DA68FB681B6C5B421A4477
:1050E000FB68DA60FB68DA68FB681B689A4207D2E3
:1050F000FB689A68FB681B6C5B421A44FB68DA60C9
:105100007B68022B05D13B69002B02D03B69013B38
:105110003B613B695A1CFB689A637B6918461837E8
:10512000BD4680BD80B582B000AF786039607B68D5
:105130001B6C002B18D07B68DA687B681B6C1A44E8
:105140007B68DA607B68DA687B689B689A4203D385
:105150007B681A687B68DA607B68D9687B681B6C3F
:105160001A46386808F094F900BF0837BD4680BD7C
:1051700080B584B000AF7860FFF7BEFC7B6893F821
:105180004530FB731EE07B689B6C002B08D0786871
:1051900000F0E4F80346002B10D001F079F80DE0A0
:1051A0007B685B6A002B12D07B682433184600F0C2
:1051B00025FF0346002B01D001F06AF8FB7B013B81
:1051C000DBB2FB7397F90F30002BDCDC00E000BF93
:1051D0007B68FF2283F84520FFF7BCFCFFF78CFCBF
:1051E0007B6893F84430BB7311E07B681B69002B2C
:1051F00012D07B681033184600F000FF0346002BE6
:1052000001D001F045F8BB7B013BDBB2BB7397F9E2
:105210000E30002BE9DC00E000BF7B68FF2283F842
:105220004420FFF797FC00BF1037BD4680BD80B516
:1052300084B000AF7860FFF75FFC7B689B6B002B4E
:1052400002D10123FB6001E00023FB60FFF782FC39
:10525000FB6818461037BD4680BD000080B584B09D
:1052600000AF786039600023BB607B68002B05D1FC
:1052700040F60F321C491D4808F020F93B68002B0E
:1052800024D00023FB601EE0194AFB68DB001344B6
:105290005B687A689A4205D1FB68DB00144A1344C4
:1052A000BB6013E0BB68002B0AD1114AFB6852F8BF
:1052B0003330002B04D1FB68DB000D4A1344BB6084
:1052C000FB680133FB60FB68072BDDD9BB68002B53
:1052D00005D0BB683A681A60BB687A685A6000BF3C
:1052E0001037BD4680BD00BFACE50008ECE5000806
:1052F0003C52002080B586B000AFF860B9607A609B
:10530000FB687B61FFF7F8FB7B6993F844305BB285
:10531000B3F1FF3F03D17B69002283F844207B690E
:1053200093F845305BB2B3F1FF3F03D17B690022B4
:1053300083F84520FFF70EFC7B699B6B002B06D1A1
:105340007B6924337A68B968184600F013FE7869DF
:10535000FFF70EFF00BF1837BD4680BD80B586B091
:1053600000AF78607B689B6C3B6100237B613B698D
:10537000002B05D140F61A4229492A4808F09EF828
:105380003B699A6B3B69DB6B9A4205D340F61B4243
:105390002349244808F092F83B699A6B3B69DB6B20
:1053A0009A4237D23B6993F84530FB733B1D00228C
:1053B00019463869FFF74CFE786197F90F30B3F161
:1053C000FF3F0ED13B695B6A002B23D03B6924333E
:1053D000184600F013FE0346002B1BD001237B610F
:1053E00018E000F029FCB86097F90F30BA689A42CB
:1053F00010D997F90F307F2B05D140F63B42084971
:10540000084808F05BF8FB7B0133DBB25AB23B691A
:1054100083F845207B6918461837BD4680BD00BF1C
:10542000ACE50008ECE5000880B58CB004AFF8608E
:10543000B9603B601346FB80FB889B001846FEF773
:10544000A3FF78617B69002B13D05C20FEF79CFFE3
:10545000F861FB69002B08D05C220021F86908F094
:1054600025F8FB697A691A6305E07869FFF74EF859
:1054700001E00023FB61FB69002B13D0FA880023B5
:105480000393FB690293FB6A0193BB6A00933B6839
:10549000B968F86800F00EF8F86900F093F8012395
:1054A000BB6102E04FF0FF33BB61BB691846203798
:1054B000BD4680BD80B586B000AFF860B9607A6047
:1054C0003B60BB6A186B7B689B001A46A52107F0FE
:1054D000EDFFBB6A1A6B7B6803F18043013B9B00C5
:1054E00013443B613B6923F007033B613B6903F0D5
:1054F0000703002B05D040F261323049304807F0F5
:10550000DDFFBB68002B1ED000237B6112E0BA6870
:105510007B6913441978BA6A7B69134434330A46A9
:105520001A70BA687B6913441B78002B06D07B691C
:1055300001337B617B690F2BE9D900E000BFBB6AB7
:10554000002283F843203B6A1F2B05D940F2963294
:105550001A491B4807F0B2FF3B6A1F2B01D91F23D2
:105560003B62BB6A3A6ADA62BB6A3A6ADA64BB6A6D
:1055700004331846FFF7F6F8BB6A18331846FFF7EE
:10558000F1F8BB6ABA6A1A613B6AC3F12002BB6ACE
:105590009A61BB6ABA6A5A623A68F9683869FFF771
:1055A00075F90246BB6A1A607B6A002B02D07B6ADF
:1055B000BA6A1A6000BF1837BD4680BDFCE5000816
:1055C0003CE6000880B584B000AF7860FFF794FA3D
:1055D000404B1B6801333F4A13603F4B1B68002B55
:1055E00009D13D4A7B6813603A4B1B68012B10D1EF
:1055F00000F072FE0DE0394B1B68002B09D1364BD1
:105600001B68DA6A7B68DB6A9A4202D8324A7B6896
:105610001360334B1B680133314A1360304B1A68F7
:105620007B685A647B68DB6A01229A402D4B1B68B9
:1056300013432C4A13607B68DA6A2B4913469B009C
:1056400013449B000B4404331B68FB607B68FA68BF
:105650009A60FB689A687B68DA60FB689B687A6886
:1056600004325A607B681A1DFB689A607B68DA6AAC
:1056700013469B0013449B001B4A1A447B685A61E3
:105680007B68DA6A184913469B0013449B000B445D
:105690001B68591C144813469B0013449B00034489
:1056A0001960FFF757FA0D4B1B68002B0ED00A4B01
:1056B0001B68DA6A7B68DB6A9A4207D20B4B4FF0B1
:1056C00080521A60BFF34F8FBFF36F8F00BF103748
:1056D000BD4680BD705500207C5200207C550020C6
:1056E0008C550020785500208052002004ED00E009
:1056F00080B584B000AF7860FFF7FEF97B68002BBF
:1057000002D1394B1B6800E07B68FB60FB68043307
:105710001846FFF791F80346002B15D1FB68DA6AAB
:10572000324913469B0013449B000B441B68002B1B
:105730000AD1FB68DB6A012202FA03F3DA432C4B3D
:105740001B6813402A4A1360FB689B6A002B04D035
:10575000FB6818331846FFF76FF8264B1B680133B8
:10576000244A1360204B1B68FA689A420BD1FB68ED
:10577000043319462048FFF702F8204B1B68013319
:105780001E4A136006E01E4B1B68013B1C4A136057
:1057900000F020FEFFF7DEF9134B1B68FA689A420F
:1057A00002D0F86800F006FE164B1B68002B16D0DE
:1057B0000D4B1B68FA689A4211D1134B1B68002BE2
:1057C00005D040F2B3421149114807F077FE114B62
:1057D0004FF080521A60BFF34F8FBFF36F8F00BF3F
:1057E0001037BD4680BD00BF7C5200208052002093
:1057F000785500208C550020445500205855002035
:10580000705500207C55002098550020FCE50008CC
:105810003CE6000804ED00E080B586B000AF78609B
:10582000396000237B617B68002B05D14FF49962BE
:105830002E492F4807F042FE3B68002B05D140F26D
:10584000C9422A492A4807F039FE2A4B1B68002B17
:1058500005D040F2CA422549254807F02FFE00F046
:10586000D3F8254B1B683B617B681B683A6813447F
:10587000FB607B681B683A699A420BD27B681B68A5
:10588000FA689A4211D2FA683B699A420DD901230B
:105890007B610AE07B681B68FA689A4203D3FA6866
:1058A0003B699A4201D901237B617B68FA681A60DF
:1058B0007B69002B06D0FA683B69D31A0021184691
:1058C00000F060FE00F0AEF8B860BB68002B07D1B6
:1058D0000A4B4FF080521A60BFF34F8FBFF36F8FA8
:1058E0007B6918461837BD4680BD00BFFCE500083F
:1058F0003CE60008985500207455002004ED00E0B7
:1059000080B584B000AF78600023FB607B68002B1B
:1059100012D0114B1B68002B05D04FF4A4620F4925
:105920000F4807F0CBFD00F06FF80021786800F019
:1059300029FE00F077F8F860FB68002B07D1094BCF
:105940004FF080521A60BFF34F8FBFF36F8F00BFCD
:105950001037BD4680BD00BF98550020FCE500080B
:105960003CE6000804ED00E080B584B002AF1D4BBA
:10597000019300230093002382221B491B48FFF759
:1059800053FD78607B68012B02D100F07BFE7860CC
:105990007B68012B16D14FF0500383F31188BFF3BE
:1059A0006F8FBFF34F8F3B6000BF114B4FF0FF3243
:1059B0001A60104B01221A600F4B00221A60FEF78A
:1059C000F1FF09E07B68B3F1FF3F05D14FF40262BC
:1059D0000A490B4807F072FD0A4B1B6800BF0837E5
:1059E000BD4680BD945500204CE60008A962000821
:1059F000905500207C55002074550020FCE50008DF
:105A00003CE600082C00002080B400AF044B1B686B
:105A10000133034A136000BFBD465DF8047B704745
:105A20009855002080B586B000AF00237B6100232D
:105A30003B616E4B1B68002B05D140F693026C490D
:105A40006C4807F03BFDFFF757F8684B1B68013BBC
:105A5000664A1360654B1B68002B40F0C080664BA4
:105A60001B68002B00F0BB808AE0644BDB68DB68BE
:105A70007B617B699B6ABB607B69DB697A69126ABF
:105A80009A607B691B6A7A69D2695A60BB685A68F6
:105A90007B6918339A4203D17B691A6ABB685A60E2
:105AA0007B6900229A62BB681B685A1EBB681A6039
:105AB0007B695B697B607B699B687A69D2689A6065
:105AC0007B69DB687A6992685A607B685A687B698F
:105AD00004339A4203D17B69DA687B685A607B6938
