:020000040800F2
:100000000000022055100008710200087D0200085F
:1000100083020008890200088F0200080000000027
:100020000000000000000000000000009502000831
:10003000A102000800000000AD020008B90200089B
:10004000A5100008A5100008A5100008A5100008BC
:10005000A5100008A5100008A5100008A5100008AC
:10006000A5100008A5100008A5100008A51000089C
:10007000A5100008A5100008A5100008A51000088C
:10008000A5100008A5100008A5100008A51000087C
:10009000A5100008A5100008A5100008A51000086C
:1000A000A5100008A5100008A5100008A51000085C
:1000B000A5100008A5100008A5100008A51000084C
:1000C000A5100008A5100008A5100008A51000083C
:1000D000A5100008A10E0008A5100008A510000832
:1000E000A5100008A5100008A5100008A51000081C
:1000F000A5100008A5100008A5100008A51000080C
:10010000A5100008A5100008A5100008A5100008FB
:10011000A5100008A5100008A5100008A5100008EB
:10012000A5100008A5100008A5100008A5100008DB
:10013000A5100008A5100008A5100008A5100008CB
:10014000A5100008A5100008A5100008A5100008BB
:10015000A5100008A5100008A5100008A5100008AB
:10016000A5100008A5100008A5100008A51000089B
:10017000A5100008A5100008A51000080000000048
:08018000A5100008A5100008FD
:1001900010B5054C237833B9044B13B10448AFF3C1
:1001A00000800123237010BD7800002000000000B3
:1001B000F419000808B5034B1BB103490348AFF31A
:1001C000008008BD000000007C000020F419000839
:1001D00001F0FF01102A2BDB10F0070F08D010F8F8
:1001E000013B013A8B422DD010F0070F42B3F6D1FC
:1001F000F0B441EA012141EA014122F007047FF015
:1002000000070023F0E80256083C85EA010586EA6B
:10021000010685FA47F5A3FA87F586FA47F6A5FAA7
:1002200087F68EB9EED1F0BC01F0FF0102F00702B3
:1002300032B110F8013B013A83EA010313B1F8D15E
:100240000020704701387047002D06BF354603383F
:10025000073815F0010F07D1013015F4807F02BF78
:10026000013015F4C03F0130F0BC0138704700BFC9
:1002700080B400AF00BFBD4680BC704780B400AF03
:10028000FEE780B400AFFEE780B400AFFEE780B4C5
:1002900000AFFEE780B400AF00BFBD4680BC704732
:1002A00080B400AF00BFBD4680BC704780B400AFD3
:1002B00000BFBD4680BC704780B400AF00BFBD46E4
:1002C00080BC704780B500AF124B1B68114A43F0E9
:1002D000010313600F4B00229A600E4B1B680D4AFE
:1002E00023F0847323F4803313600A4B0A4A5A6064
:1002F000084B1B68074A23F480231360054B002238
:10030000DA6000F00DF8054B4FF000629A6000BF14
:1003100080BD00BF003802401030002400ED00E036
:1003200080B483B000AF00237B6000233B60354B7B
:100330001B68344A43F480331360324B1B6803F468
:1003400000333B607B6801337B603B68002B03D14B
:100350007B68B3F5A04FF0D12A4B1B6803F4003340
:10036000002B02D001233B6001E000233B603B688F
:10037000012B42D1234B1B6C224A43F08053136460
:10038000214B1B68204A43F4404313601D4B1D4A18
:100390009B6893601B4B9B681A4A43F4004393602D
:1003A000184B9B68174A43F4A0539360154B174AA8
:1003B0005A60144B1B68134A43F08073136000BFEC
:1003C000104B1B6803F00073002BF9D0104B40F268
:1003D00005721A600B4B9B680A4A23F00303936073
:1003E000084B9B68074A43F00203936000BF054B2C
:1003F0009B6803F00C03082BF9D100BF0C37BD46F6
:1004000080BC70470038024000700040085440072C
:10041000003C024080B485B000AF78600023FB73DD
:100420000023BB730F237B737B68DB78002B39D0F1
:10043000274BDB68DB431B0ADBB203F00703FB73CC
:10044000FB7BC3F10403BB737A7BFB7B42FA03F3B0
:100450007B737B685B781A46BB7B02FA03F3FB7302
:100460007B689A787B7B1340DAB2FB7B1343FB7388
:10047000FB7B1B01FB73174A7B681B781344FA7BD9
:1004800083F800237B681B7803F01F0311497A6807
:1004900012785209D2B21046012202FA03F341F84F
:1004A00020300FE07B681B7803F01F0309497A684E
:1004B00012785209D2B2104601229A4000F120036C
:1004C00041F8232000BF1437BD4680BC704700BFF1
:1004D00000ED00E000E100E080B483B000AF7860A0
:1004E0007B68042B06D1094B1B68084A43F00403C0
:1004F000136005E0054B1B68044A23F004031360F6
:1005000000BF0C37BD4680BC704700BF10E000E064
:1005100080B487B000AF7860396000237B6100232E
:100520003B610023FB6000237B6176E001227B6955
:1005300002FA03F33B613B681B683A691340FB60B6
:10054000FA683B699A4265D17B681A687B695B00EF
:10055000032101FA03F3DB431A407B681A607B68CE
:100560001A683B681B7919467B695B0001FA03F343
:100570001A437B681A603B681B79012B03D03B68E8
:100580001B79022B2ED17B689A687B695B00032163
:1005900001FA03F3DB431A407B689A607B689A6830
:1005A0003B685B7919467B695B0001FA03F31A43E8
:1005B0007B689A607B685A687B699BB21946012305
:1005C0008B40DB431A407B685A607B685B683A6803
:1005D000927911467A6992B201FA02F292B21A4302
:1005E0007B685A607B68DA687B699BB25B00032199
:1005F00001FA03F3DB431A407B68DA607B68DA6850
:100600003B68DB7919467B695B0001FA03F31A4307
:100610007B68DA607B6901337B617B690F2B85D94D
:1006200000BF00BF1C37BD4680BC704780B483B09C
:1006300000AF78600B467B807B687A881A8300BFA6
:100640000C37BD4680BC704780B483B000AF786083
:100650000B467B807B687A885A8300BF0C37BD4687
:1006600080BC704780B483B000AF78600B467B805D
:1006700013467B707B78002B03D07B687A881A83C3
:1006800002E07B687A885A8300BF0C37BD4680BC85
:10069000704780B485B000AF78600B467B8013460E
:1006A0007B700023FB600023BB607A787B8803F0BB
:1006B00007039B0002FA03F3FB607B88DB089BB215
:1006C0001A467B68083253F822207B8803F0070320
:1006D0009B000F2101FA03F3DB437988C90889B233
:1006E000084602EA03017B6800F1080243F8221081
:1006F0007B88DB089BB21A467B68083253F82230AD
:10070000FA681343BB607B88DB089BB21A467B68A0
:100710000832B96843F8221000BF1437BD4680BCC8
:100720007047000080B489B000AF78600023BB61DF
:1007300000237B610023FB6102233B610023FB60FC
:100740000223BB604A4B9B6803F00C03BB61BB698F
:10075000082B11D0BB69082B44D8BB69002B03D0F0
:10076000BB69042B04D03DE07B68424A1A603DE03F
:100770007B68414A1A6039E03D4B5B689B0D03F092
:100780000103FB603A4B5B6803F03F03BB60FB680F
:10079000002B0CD0384ABB68B2FBF3F3344A5268E2
:1007A0009209C2F3080202FB03F3FB610BE0314A3A
:1007B000BB68B2FBF3F32E4A52689209C2F30802F7
:1007C00002FB03F3FB612A4B5B681B0C03F0030382
:1007D00001335B003B61FA693B69B2FBF3F27B6872
:1007E0001A6003E07B68234A1A6000BF204B9B68B5
:1007F00003F0F003BB61BB691B09BB611F4ABB6906
:1008000013441B78DBB27B617B681A687B69DA4032
:100810007B685A60164B9B6803F4E053BB61BB696D
:100820009B0ABB61154ABB6913441B78DBB27B6131
:100830007B685A687B69DA407B689A600C4B9B68DE
:1008400003F46043BB61BB695B0BBB610B4ABB69D3
:1008500013441B78DBB27B617B685A687B69DA40A2
:100860007B68DA6000BF2437BD4680BC704700BF9C
:10087000003802400024F40000127A00000000203A
:1008800080B483B000AF78600B46FB70FB78002B20
:1008900006D0094B1A6B08497B6813430B6306E0CB
:1008A000054B1A6B7B68DB43034913400B6300BFA6
:1008B0000C37BD4680BC70470038024080B483B01E
:1008C00000AF78600B46FB70FB78002B06D0094B1D
:1008D0005A6C08497B6813434B6406E0054B5A6C1D
:1008E0007B68DB43034913404B6400BF0C37BD46B4
:1008F00080BC70470038024080B58AB000AF786095
:10090000396000237B6200233B620023FB610023EC
:10091000BB617B681B8A9BB27B627B6A23F440537A
:100920007B623B68DB881A467B6A13437B627B6A87
:100930009AB27B681A827B689B899BB27B627B6AD6
:1009400023F4B05323F00C037B623B689A883B6826
:100950001B8913439AB23B685B8913439BB21A46C7
:100960007B6A13437B627B6A9AB27B689A817B685D
:100970009B8A9BB27B627B6A23F440737B623B68F9
:100980009B891A467B6A13437B627B6A9AB27B68B7
:100990009A8207F108031846FFF7C4FE7B68304AC5
:1009A000934203D07B682F4A934202D17B693B621A
:1009B00001E03B693B627B689B899BB21BB2002BC9
:1009C0000CDA3A6A13469B0013449A001A443B68B7
:1009D0001B685B00B2FBF3F3FB610BE03A6A134662
:1009E0009B0013449A001A443B681B689B00B2FBAF
:1009F000F3F3FB61FB691C4AA2FB03235B091B01A8
:100A00007B627B6A1B09642202FB03F3FA69D31A37
:100A1000BB617B689B899BB21BB2002B0CDABB6964
:100A2000DB003233104AA2FB03235B0903F0070308
:100A30007A6A13437B620BE0BB691B0132330A4ABB
:100A4000A2FB03235B0903F00F037A6A13437B6263
:100A50007B6A9AB27B681A8100BF2837BD4680BD89
:100A600000100140001401401F85EB5180B483B099
:100A700000AF78600B46FB70FB78002B08D07B68DA
:100A80009B899BB243F400539AB27B689A8107E03A
:100A90007B689B899BB223F400539AB27B689A814E
:100AA00000BF0C37BD4680BC704780B483B000AF38
:100AB00078600B467B807B88C3F308039AB27B681F
:100AC0009A8000BF0C37BD4680BC704780B483B0AD
:100AD00000AF78607B689B889BB2C3F308039BB22E
:100AE00018460C37BD4680BC704780B487B000AF55
:100AF00078600B467B8013467B7000233B610023AC
:100B0000FB600023BB6000237B617B687B617B888B
:100B1000DBB25B09DBB23B617B8803F01F03FB6048
:100B20000122FB6802FA03F3BB603B69012B03D18E
:100B30007B690C337B6109E03B69022B03D17B6944
:100B400010337B6102E07B6914337B617B78002B7F
:100B500006D07B6919687B69BA680A431A6006E0A7
:100B60007B691968BB68DA437B690A401A6000BF79
:100B70001C37BD4680BC704780B485B000AF78603C
:100B80000B467B800023FB737B681B889AB27B88B3
:100B900013409BB2002B02D00123FB7301E0002322
:100BA000FB73FB7B18461437BD4680BC704780B48E
:100BB00087B000AF78600B467B800023FB6000238A
:100BC0007B610023BB600023FB747B88DBB25B0985
:100BD000DBB2BB607B8803F01F037B6101227B6972
:100BE00002FA03F37B61BB68012B07D17B689B8909
:100BF0009BB21A467B6913407B6111E0BB68022BF4
:100C000007D17B681B8A9BB21A467B6913407B61C4
:100C100006E07B689B8A9BB21A467B6913407B6126
:100C20007B881B0A9BB2FB600122FB6802FA03F37C
:100C3000FB607B681B889BB21A46FB681340FB6015
:100C40007B69002B05D0FB68002B02D00123FB74CD
:100C500001E00023FB74FB7C18461C37BD4680BCBA
:100C60007047000080B582B000AF0346FB716FF0A3
:100C70000400FFF731FCFB79DB08DAB2084B1A708D
:100C8000074B1B789BB21A465201D21A92001344AA
:100C9000DB009AB2034B1A8000BF0837BD4680BD07
:100CA000940000209600002080B485B000AF034679
:100CB000FB80FB88154A12881146154A01FB03F395
:100CC0005360134B00229A60114B1B68104A43F08B
:100CD000010313600E4B1B68FB60FB6803F001030C
:100CE000002B04D0FB6803F48033002BF2D0084BB8
:100CF0001B68074A23F001031360054B00229A602A
:100D000000BF1437BD4680BC704700BF960000206E
:100D100010E000E080B584B000AF0346FB80FB88A4
:100D2000134AA2FB03235B0A9BB2FB73FB88104AA6
:100D3000A2FB0312520A4FF4077101FB02F29B1A45
:100D4000BB8106E04FF40770FFF7AEFFFB7B013B72
:100D5000FB73FB7B002BF5D1BB89002B03D0BB8938
:100D60001846FFF7A1FF00BF1037BD4680BD00BF8A
:100D700049D6B9F280B58AB000AF78600121012070
:100D8000FFF77EFD01211020FFF798FD07220921C2
:100D90002448FFF77EFC07220A212248FFF779FC4E
:100DA0004FF4C0633B62022387F82430022387F8A4
:100DB0002530002387F82630012387F8273007F1F4
:100DC000200319461748FFF7A3FB7B683B6100230C
:100DD000BB820023FB8200233B830023BB830C23C5
:100DE0007B8307F1100319460F48FFF785FD0121AA
:100DF0000D48FFF73BFE012240F225510A48FFF75C
:100E000074FE25233B7303237B730323BB730123EE
:100E1000FB7307F10C031846FFF7FCFA00BF2837F5
:100E2000BD4680BD000002400010014080B584B086
:100E300000AF786039600023FB7322E000BF4021DF
:100E40007868FFF799FE0346002BF8D0FB7B3A68E1
:100E500013441B78002B1BD0FB7B3A6813441B7890
:100E60009BB219467868FFF720FEFB7B3A68134473
:100E70001B789BB219460948FFF717FEFB7B01332D
:100E8000FB73FB7B3A6813441B78002BD6D100E040
:100E900000BF00BF1037BD4680BD00BF001001403D
:100EA00080B582B000AF40F225512548FFF77FFEA4
:100EB0000346002B3FD02248FFF708FE0346FB7194
:100EC000204B1B881BB2002B35DB1E4B1B8803F409
:100ED0008043002B10D0FB790A2B03D0194B002242
:100EE0001A8028E0174B1B886FEA43436FEA53438D
:100EF0009AB2144B1A801EE0FB790D2B07D1114BCF
:100F00001B8843F480439AB20E4B1A8013E00D4BBA
:100F10001B88C3F30D030C49FA79CA54094B1B888B
:100F200001339AB2074B1A80064B1B88C72B02D994
:100F3000044B00221A8000BF0837BD4680BD00BFA9
:100F400000100140600100209800002080B59CB096
:100F500000AF0023FB664FF4E130FFF70BFF642086
:100F6000FFF780FE01210420FFF78AFC0121022007
:100F7000FFF786FC4FF400537B66002387F8693047
:100F8000012387F86830002387F86A30002387F848
:100F90006B3007F1640319462948FFF7B9FA0423B7
:100FA0007B66002387F86930012387F868300023C7
:100FB00087F86A30002387F86B3007F1640319461D
:100FC0002048FFF7A5FA07F154031846FFF7AAFBDC
:100FD0002CE03B1D50220021184600F089F87A6D64
:100FE000BB6D381D184900F08BF83B1D194617489A
:100FF000FFF71CFF4FF400511148FFF725FB0122BA
:1010000004211048FFF72EFB4FF4FA70FFF782FE21
:101010004FF400510A48FFF709FB00220421094858
:10102000FFF720FB4FF4FA70FFF774FE084B1B68C4
:10103000002BCED1002318467037BD4680BD00BFBF
:1010400000080240000402400C1A00080010014091
:1010500010000020DFF834D00D480E490E4A00235E
:1010600002E0D458C4500433C4188C42F9D30B4A5C
:101070000B4C002301E013600432A242FBD3FFF7C4
:1010800021F900F011F8FFF761FF7047000002201E
:1010900000000020780000207C1A00087800002062
:1010A00078010020FEE7000070B50D4D0D4C641B6B
:1010B000A4100026A64209D10B4D0C4C00F09AFC5E
:1010C000641BA4100026A64205D170BD55F8043B50
:1010D00098470136EEE755F8043B98470136F2E7AA
:1010E000741A0008741A0008741A0008781A0008A4
:1010F00002440346934200D1704703F8011BF9E70D
:101100000EB400B59CB01DAB029006906FF000418C
:10111000094807910491094953F8042B0591006887
:10112000019302A900F068F8029B00221A701CB01B
:101130005DF804EB03B07047140000200802FFFFC5
:101140002DE9F0478E689E4282460C4690461F4627
:1011500038D88A8912F4906F32D025680969A5EBD6
:101160000109656905EB450505EBD57501334B4470
:101170006D109D4238BF1D46530531D5294600F0FC
:1011800061FB064650B90C23CAF80030A38943F02E
:101190004003A3814FF0FF30BDE8F08721694A4644
:1011A00000F0BEFAA38923F4906343F08003A38187
:1011B000266165614E44A5EB09052660A5603E46A3
:1011C000BE4200D93E4620683246414600F0B6FA9B
:1011D000A3689B1BA3602368334423600020DBE7E4
:1011E0002A4600F0A3FB06460028E1D121695046BB
:1011F00000F0BEFAC7E700002DE9F04F98468B8952
:101200001B069DB007460D4614460ED50B6963B903
:10121000402100F017FB2860286120B90C233B60B7
:101220004FF0FF30D1E040236B610023099320236E
:101230008DF82930CDF80C803023DFF8A8818DF8A7
:101240002A304FF0010923469A4613F8012B0AB1C0
:10125000252AF9D1BAEB040B0BD05B46224629466E
:101260003846FFF76DFF013000F0AA80099A5A4412
:1012700009929AF80030002B00F0A28000234FF072
:10128000FF32CDE905230AF1010A049307938DF893
:1012900053301A935446052214F8011B5148FEF7A7
:1012A00097FF049AD8B9D00644BF20238DF8533055
:1012B000110744BF2B238DF853309AF800302A2BA6
:1012C00015D0079A544600204FF00A0C214611F819
:1012D000013B303B092B4ED9B0B1079214E0A0EB93
:1012E000080309FA03F313430493A246D2E7039BCE
:1012F000191D1B680391002BBBBF5B4242F0020229
:1013000007930793B8BF049223782E2B0CD16378F0
:101310002A2B35D1039B1A1D1B680392002BB8BFE3
:101320004FF0FF3302340593DFF8BCA0217803228D
:101330005046FEF74DFF40B14023A0EB0A0003FAF0
:1013400000F0049B03430134049314F8011B274865
:101350008DF828100622FEF73BFF002838D0244BDA
:101360001BBB039B073323F0070308330393099B3D
:101370003344099367E70CFB02320C460120A5E7D2
:1013800000230134059319464FF00A0C204610F84B
:10139000012B303A092A03D9002BC5D00591C3E7A8
:1013A0000CFB012104460123F0E703AB00932A461E
:1013B000104B04A93846AFF30080421C0646D6D134
:1013C000AB895B063FF52CAF09981DB0BDE8F08FE7
:1013D00003AB00932A46074B04A9384600F07AF87D
:1013E000EBE700BF411A0008471A00084B1A000833
:1013F00000000000411100082DE9F047164699460B
:101400008A680B69DDF820809342B8BF13463360C9
:1014100091F8432007460C460AB101333360236834
:10142000990642BF336802333360256815F006051C
:1014300006D104F1190AE36832689B1AAB4226DC34
:1014400094F84320131E226818BF012392062BD460
:1014500004F1430249463846C04701301ED0236894
:10146000E568326803F00603042B08BFAD1AA368D1
:1014700022690CBF25EAE57500259342C4BF9B1A7B
:10148000ED1800261A34B5421AD1002008E00123D5
:10149000524649463846C047013003D14FF0FF302D
:1014A000BDE8F0870135C6E7E1185A1C302081F805
:1014B0004300224494F8451082F843100233C7E7F2
:1014C0000123224649463846C0470130E6D001365E
:1014D000D9E700002DE9FF470F7E0C9D782F91463C
:1014E00080460C469A4601F1430207D8622F0AD87B
:1014F000002F00F0D880582F00F0A38004F142059F
:1015000084F842703AE0A7F16303152BF6D801A1E5
:1015100051F823F06D15000881150008FD1400082E
:10152000FD140008FD140008FD14000881150008D2
:10153000FD140008FD140008FD140008FD14000847
:101540008D160008B11500086F160008FD1400087C
:10155000FD140008AF160008FD140008B1150008BE
:10156000FD140008FD140008771600082B681A1DEA
:101570001B682A6004F1420584F842300123A3E08D
:1015800020682968060601F104030AD50E682B605D
:10159000002E03DA2D23764284F843305E480A2376
:1015A00019E00E682B6010F0400F18BF36B2EFE75D
:1015B0002B682068191D2960010601D51E6802E00C
:1015C0004606FBD51E8854486F2F0CBF08230A23FC
:1015D000002184F843106568A560002DA2BF216832
:1015E00021F0040121600EB9002D4DD01546B6FB47
:1015F000F3F103FB1167C75D05F8017D3746BB4278
:101600000E46F4D9082B0BD12368DE0708D52369D1
:1016100061689942DEBF302305F8013C05F1FF35D2
:10162000521B2261CDF800A04B4603AA214640463A
:10163000FFF7E2FE01304CD14FF0FF3004B0BDE8BF
:10164000F087354881F845702968236851F8046BA4
:1016500029601D0614D5DF0744BF43F02003236033
:101660001EB9236823F0200323601023B0E723680A
:1016700043F0200323607823284884F84530E3E7CB
:10168000590648BFB6B2E6E71546BBE72B682668A1
:101690006169181D286035061B6801D5196002E0D4
:1016A0007006FBD51980002323611546BAE72B6825
:1016B0001A1D2A601D68626800212846FEF788FD11
:1016C00008B1401B606063682361002384F84330E5
:1016D000A8E723692A4649464046D0470130ABD0A7
:1016E00023689B0713D4E068039B9842B8BF184651
:1016F000A4E70123324649464046D04701309BD0FB
:101700000135E36803995B1AAB42F2DCEBE7002595
:1017100004F11906F5E700BF521A0008631A000821
:101720000A44914200F1FF3300D1704710B511F81F
:10173000014B03F8014F9142F9D110BD884210B519
:1017400001EB020402D98442234607D8431EA1427A
:1017500008D011F8012B03F8012FF8E702440146E5
:101760008A4200D110BD13F8014D02F8014DF7E790
:1017700038B50546002941D051F8043C0C1F002B18
:10178000B8BFE41800F012F91D4A136833B963605A
:1017900014602846BDE8384000F00EB9A34208D9CD
:1017A000206821188B4201BF19685B680918216005
:1017B000EDE71A465B680BB1A342FAD911685018DD
:1017C000A0420BD120680144501883421160E0D13F
:1017D00018685B68536001441160DAE702D90C2392
:1017E0002B60D6E7206821188B4204BF19685B681C
:1017F000636004BF091821605460CAE738BD00BFA8
:101800006401002070B50E4E0C463168054611B9D2
:1018100000F0BCF830602146284600F0B7F8431CC1
:101820000AD0C41C24F00304A04207D0211A284681
:1018300000F0ACF8013001D14FF0FF34204670BD0C
:10184000680100202DE9F041CD1C25F00305083585
:101850000C2D38BF0C25002D074601DBA94205D908
:101860000C233B6000263046BDE8F0812E4E00F090
:101870009DF833681C4634BB29463846FFF7C2FF43
:10188000431C04464DD134682646002E40D12368BF
:101890003146384604EB030800F078F880453AD129
:1018A000216803356D1A25F0030508350C2D38BF66
:1018B0000C2529463846FFF7A5FF01302BD02368B9
:1018C0002B4423600EE02268521B1ED40B2A16D92B
:1018D0006119A342256018BF5960636808BF316071
:1018E00062514B60384604F10B0600F065F826F0B3
:1018F0000706231DF21AB6D09B1BA350B3E76268FC
:10190000A3420CBF32605A60ECE723466468B2E73A
:1019100034467668B9E70C233B60384600F04CF853
:10192000A1E72560DEE700BF640100202DE9F0415A
:10193000804614460E4621B9BDE8F0411146FFF736
:1019400081BF2AB9FFF714FF25462846BDE8F0817C
:1019500000F038F88442074602D8B4EB500F12D892
:1019600021464046FFF76EFF05460028EDD0BC42F9
:101970002246314628BF3A46FFF7D2FE314640465E
:10198000FFF7F6FEE1E73546DFE7000038B5064D24
:101990000023044608462B6000F01EF8431C02D1C9
:1019A0002B6803B1236038BD6C010020014800F0B2
:1019B00011B800BF70010020014800F00CB800BF52
:1019C0007001002051F8043C181F002BBCBF0B58BD
:1019D000C018704770477047044A05491368002BC8
:1019E00008BF0B4618441060184670477401002069
:1019F00078010020F8B500BFF8BC08BC9E467047CF
:0C1A0000F8B500BFF8BC08BC9E4670475B
:101A0C00CFB5CDB3C6B5EFBFBDEFBFBD3A25640AA8
:101A1C00EFBFBDEFBFBDEFBFBDEFBFBDEFBFBDEFB4
:101A2C00BFBDEFBFBDEFBFBDC6B5EFBFBDEFBFBD07
:101A3C003A25640A00232D302B2000686C4C00657D
:101A4C0066674546470030313233343536373839DE
:101A5C004142434445460030313233343536373811
:081A6C003961626364656600E4
:041A7400B5010008B0
:041A780091010008D0
:101A7C000000000001020304010203040607080928
:101A8C000100000018000020000000000000000011
:101A9C00000000000000000000000000000000003A
:101AAC00000000000000000000000000000000002A
:101ABC00000000000000000000000000000000001A
:101ACC00000000000000000000000000000000000A
:101ADC0000000000000000000000000000000000FA
:081AEC000000000000000000F2
:04000005080010558A
:00000001FF
