:020000040800F2
:100000000000022069280008D1260008DF26000829
:10001000E5260008EB260008F12600080000000095
:100020000000000000000000000000004110000877
:10003000F72600080000000071100008AD26000837
:10004000B9280008B9280008B9280008B92800080C
:10005000B9280008B9280008B9280008B9280008FC
:10006000B9280008B9280008B9280008B9280008EC
:10007000B9280008B9280008B9280008B9280008DC
:10008000B9280008B9280008B9280008B9280008CC
:1000900029160008B9280008B9280008B92800085E
:1000A000B9280008B9280008B9280008B9280008AC
:1000B0007D170008A5170008CD170008B92800080B
:1000C000B9280008B9280008B9280008B92800088C
:1000D000B9280008711C0008211E000889210008A9
:1000E000B9280008B9280008B92800081D18000818
:1000F0004D1C0008B928000845180008B928000858
:10010000B9280008B9280008F5170008B928000820
:10011000B928000809230008B9280008B9280008F0
:10012000B9280008B9280008B9280008B92800082B
:10013000B9280008B9280008B9280008B92800081B
:10014000B9280008B9280008B9280008B92800080B
:10015000B9280008B9280008B9280008B9280008FB
:10016000B9280008B9280008B9280008B9280008EB
:10017000B9280008B9280008B928000800000000C4
:08018000B9280008B9280008A5
:1001900010B5054C237833B9044B13B10448AFF3C1
:1001A00000800123237010BD90000020000000009B
:1001B000B84B000808B5034B1BB103490348AFF324
:1001C000008008BD0000000094000020B84B00082B
:1001D00081F0004102E000BF83F0004330B54FEAF8
:1001E00041044FEA430594EA050F08BF90EA020F65
:1001F0001FBF54EA000C55EA020C7FEA645C7FEAF8
:10020000655C00F0E2804FEA5454D4EB5555B8BF1A
:100210006D420CDD2C4480EA020281EA030382EA8B
:10022000000083EA010180EA020281EA0303362D1D
:1002300088BF30BD11F0004F4FEA01314FF4801CF0
:100240004CEA113102D0404261EB410113F0004F02
:100250004FEA03334CEA133302D0524263EB4303B9
:1002600094EA050F00F0A780A4F10104D5F1200E57
:100270000DDB02FA0EFC22FA05F2801841F10001B2
:1002800003FA0EF2801843FA05F359410EE0A5F186
:1002900020050EF1200E012A03FA0EFC28BF4CF0B7
:1002A000020C43FA05F3C01851EBE37101F000456D
:1002B00007D54FF0000EDCF1000C7EEB00006EEB7A
:1002C0000101B1F5801F1BD3B1F5001F0CD3490804
:1002D0005FEA30004FEA3C0C04F101044FEA44525B
:1002E00012F5800F80F09A80BCF1004F08BF5FEAE2
:1002F000500C50F1000041EB045141EA050130BDC2
:100300005FEA4C0C404141EB0101013C28BFB1F5D3
:10031000801FE9D291F0000F04BF01460020B1FA1E
:1003200081F308BF2033A3F10B03B3F120020CDAF1
:100330000C3208DD02F1140CC2F10C0201FA0CF0CF
:1003400021FA02F10CE002F11402D8BFC2F1200C34
:1003500001FA02F120FA0CFCDCBF41EA0C019040EA
:10036000E41AA2BF01EB0451294330BD6FEA040433
:100370001F3C1CDA0C340EDC04F11404C4F120021E
:1003800020FA04F001FA02F340EA030021FA04F330
:1003900045EA030130BDC4F10C04C4F1200220FA87
:1003A00002F001FA04F340EA0300294630BD21FAC5
:1003B00004F0294630BD94F0000F83F4801306BF8B
:1003C00081F480110134013D4EE77FEA645C18BF7F
:1003D0007FEA655C29D094EA050F08BF90EA020F16
:1003E00005D054EA000C04BF1946104630BD91EA0E
:1003F000030F1EBF0021002030BD5FEA545C05D111
:100400004000494128BF41F0004130BD14F580044F
:100410003CBF01F5801130BD01F0004545F0FE41C3
:1004200041F470014FF0000030BD7FEA645C1ABFF8
:10043000194610467FEA655C1CBF0B46024650EA2F
:10044000013406BF52EA033591EA030F41F400215B
:1004500030BD00BF90F0000F04BF0021704730B5E1
:100460004FF4806404F132044FF000054FF00001B6
:1004700050E700BF90F0000F04BF0021704730B577
:100480004FF4806404F1320410F0004548BF40424C
:100490004FF000013EE700BF42004FEAE2014FEAA1
:1004A00031014FEA02701FBF12F07F4393F07F4F7C
:1004B00081F06051704732F07F4208BF704793F07F
:1004C0007F4F04BF41F40021704730B54FF4607492
:1004D00001F0004521F000411CE700BF50EA010295
:1004E00008BF704730B54FF000050AE050EA01023E
:1004F00008BF704730B511F0004502D5404261EBAE
:1005000041014FF4806404F132045FEA915C3FF4EE
:10051000D8AE4FF003025FEADC0C18BF03325FEA8B
:10052000DC0C18BF033202EBDC02C2F1200300FA3C
:1005300003FC20FA02F001FA03FE40EA0E0021FA61
:1005400002F11444BDE600BF70B54FF0FF0C4CF44F
:10055000E06C1CEA11541DBF1CEA135594EA0C0F01
:1005600095EA0C0F00F0DEF82C4481EA030621EA3C
:100570004C5123EA4C5350EA013518BF52EA033577
:1005800041F4801143F4801338D0A0FB02CE4FF029
:100590000005E1FB02E506F00042E0FB03E54FF059
:1005A0000006E1FB03569CF0000F18BF4EF0010E51
:1005B000A4F1FF04B6F5007F64F5407404D25FEA4D
:1005C0004E0E6D4146EB060642EAC62141EA555100
:1005D0004FEAC52040EA5E504FEACE2EB4F1FD0C42
:1005E00088BFBCF5E06F1ED8BEF1004F08BF5FEAC0
:1005F000500E50F1000041EB045170BD06F0004672
:1006000046EA010140EA020081EA0301B4EB5C041E
:10061000C2BFD4EB0C0541EA045170BD41F4801116
:100620004FF0000E013C00F3AB8014F1360FDEBF3B
:10063000002001F0004170BDC4F10004203C35DA17
:100640000C341BDC04F11404C4F1200500FA05F39A
:1006500020FA04F001FA05F240EA020001F000423B
:1006600021F0004110EBD37021FA04F642EB0601B1
:100670005EEA430E08BF20EAD37070BDC4F10C04DB
:10068000C4F1200500FA04F320FA05F001FA04F29F
:1006900040EA020001F0004110EBD37041F100018B
:1006A0005EEA430E08BF20EAD37070BDC4F1200596
:1006B00000FA05F24EEA020E20FA04F301FA05F2FE
:1006C00043EA020321FA04F001F0004121FA04F2A6
:1006D00020EA020000EBD3705EEA430E08BF20EA76
:1006E000D37070BD94F0000F0FD101F000464000B0
:1006F00041EB010111F4801F08BF013CF7D041EA32
:10070000060195F0000F18BF704703F00046520035
:1007100043EB030313F4801F08BF013DF7D043EA06
:100720000603704794EA0C0F0CEA135518BF95EABC
:100730000C0F0CD050EA410618BF52EA4306D1D143
:1007400081EA030101F000414FF0000070BD50EA62
:10075000410606BF1046194652EA430619D094EAEC
:100760000C0F02D150EA013613D195EA0C0F05D1D6
:1007700052EA03361CBF104619460AD181EA03012A
:1007800001F0004141F0FE4141F470014FF00000E2
:1007900070BD41F0FE4141F4780170BD70B54FF07D
:1007A000FF0C4CF4E06C1CEA11541DBF1CEA1355FD
:1007B00094EA0C0F95EA0C0F00F0A7F8A4EB0504DF
:1007C00081EA030E52EA03354FEA013100F08880D6
:1007D0004FEA03334FF0805545EA131343EA12639F
:1007E0004FEA022245EA111545EA10654FEA002654
:1007F0000EF000419D4208BF964244F1FD0404F50D
:10080000407402D25B084FEA3202B61A65EB030568
:100810005B084FEA32024FF480104FF4002CB6EB25
:10082000020E75EB030E22BFB61A754640EA0C00A5
:100830005B084FEA3202B6EB020E75EB030E22BFE5
:10084000B61A754640EA5C005B084FEA3202B6EB26
:10085000020E75EB030E22BFB61A754640EA9C00E5
:100860005B084FEA3202B6EB020E75EB030E22BFB5
:10087000B61A754640EADC0055EA060E18D04FEA73
:10088000051545EA16754FEA06164FEAC30343EA13
:1008900052734FEAC2025FEA1C1CC0D111F4801FE0
:1008A0000BD141EA00014FF000004FF0004CB6E7D9
:1008B00011F4801F04BF01430020B4F1FD0C88BF78
:1008C000BCF5E06F3FF6AFAEB5EB030C04BFB6EB83
:1008D000020C5FEA500C50F1000041EB045170BD76
:1008E0000EF0004E4EEA113114EB5C04C2BFD4EBA3
:1008F0000C0541EA045170BD41F480114FF0000E27
:10090000013C90E645EA060E8DE60CEA135594EAA2
:100910000C0F08BF95EA0C0F3FF43BAF94EA0C0FA5
:100920000AD150EA01347FF434AF95EA0C0F7FF41A
:1009300025AF104619462CE795EA0C0F06D152EA6E
:1009400003353FF4FDAE1046194622E750EA410652
:1009500018BF52EA43067FF4C5AE50EA41047FF463
:100960000DAF52EA43057FF4EBAE12E74FF0FF3CC8
:1009700006E000BF4FF0010C02E000BF4FF0010C99
:100980004DF804CD4FEA410C7FEA6C5C4FEA430C12
:1009900018BF7FEA6C5C1BD001B050EA410C0CBF61
:1009A00052EA430C91EA030F02BF90EA020F0020C3
:1009B000704710F1000F91EA030F58BF994208BF2A
:1009C00090422CBFD8176FEAE37040F001007047E7
:1009D0004FEA410C7FEA6C5C02D150EA013C07D13E
:1009E0004FEA430C7FEA6C5CD6D152EA033CD3D089
:1009F0005DF8040B704700BF8446104662468C4683
:100A00001946634600E000BF01B5FFF7B7FF0028B5
:100A100048BF10F1000F01BD4DF808EDFFF7F4FFDE
:100A20000CBF012000205DF808FB00BF4DF808ED69
:100A3000FFF7EAFF34BF012000205DF808FB00BF8C
:100A40004DF808EDFFF7E0FF94BF012000205DF8AE
:100A500008FB00BF4DF808EDFFF7CEFF94BF012063
:100A600000205DF808FB00BF4DF808EDFFF7C4FF5C
:100A700034BF012000205DF808FB00BF4FEA410CA5
:100A80007FEA6C5C02D150EA013C0AD14FEA430C88
:100A90007FEA6C5C02D152EA033C02D14FF00000C5
:100AA00070474FF0010070474FEA4102B2F1E04356
:100AB00024BFB3F5001CDCF1FE5C0DD901F0004C45
:100AC0004FEAC0024CEA5070B2F1004F40EB830095
:100AD00008BF20F00100704711F0804F21D113F1C1
:100AE0003872BCBF01F00040704741F480114FEAFA
:100AF0005252C2F11802C2F1200C10FA0CF320FA83
:100B000002F018BF40F001004FEAC1234FEAD3239F
:100B100003FA0CFC40EA0C0023FA02F34FEA430309
:100B2000CCE77FEA625307D150EA01331EBF4FF092
:100B3000FE4040F44000704701F0004040F0FE40AD
:100B400040F40000704700BF0000000000000000FB
:100B500001F0FF01102A2BDB10F0070F08D010F86E
:100B6000013B013A8B422DD010F0070F42B3F6D172
:100B7000F0B441EA012141EA014122F007047FF08B
:100B800000070023F0E80256083C85EA010586EAE2
:100B9000010685FA47F5A3FA87F586FA47F6A5FA1E
:100BA00087F68EB9EED1F0BC01F0FF0102F007022A
:100BB00032B110F8013B013A83EA010313B1F8D1D5
:100BC0000020704701387047002D06BF35460338B6
:100BD000073815F0010F07D1013015F4807F02BFEF
:100BE000013015F4C03F0130F0BC0138704700BF40
:100BF00080B483B000AF87ED010AD7ED017AF5EE3E
:100C0000C07AF1EE10FA02DBD7ED017A03E0D7EDFE
:100C1000017AF1EE677AB0EE670A0C37BD465DF8EF
:100C2000047B704780B487B000AF786039600023E0
:100C30007B6100233B610023FB6000237B6176E046
:100C400001227B6902FA03F33B613B681B683A6946
:100C50001340FB60FA683B699A4265D17B681A6869
:100C60007B695B00032101FA03F3DB431A407B68D5
:100C70001A607B681A683B681B7919467B695B00C0
:100C800001FA03F31A437B681A603B681B79012B56
:100C900003D03B681B79022B2ED17B689A687B6955
:100CA0005B00032101FA03F3DB431A407B689A607F
:100CB0007B689A683B685B7919467B695B0001FA3F
:100CC00003F31A437B689A607B685A687B699BB21E
:100CD000194601238B40DB431A407B685A607B68CE
:100CE0005B683A68927911467A6992B201FA02F227
:100CF00092B21A437B685A607B68DA687B699BB260
:100D00005B00032101FA03F3DB431A407B68DA60DE
:100D10007B68DA683B68DB7919467B695B0001FA1E
:100D200003F31A437B68DA607B6901337B617B697B
:100D30000F2B85D900BF00BF1C37BD465DF8047B73
:100D4000704780B483B000AF78600B467B807B68CF
:100D50007A881A8300BF0C37BD465DF8047B704764
:100D600080B483B000AF78600B46FB70FB78002B3B
:100D700006D00A4B1A6B09497B6813430B6306E0E4
:100D8000064B1A6B7B68DB43044913400B6300BFBF
:100D90000C37BD465DF8047B704700BF0038024049
:100DA00080B485B000AF78600B467B800023FB8168
:100DB0007B681B8CFB81FB8923F00203FB81FA8992
:100DC0007B881343FB817B68FA891A8400BF143740
:100DD000BD465DF8047B704780B485B000AF786095
:100DE0000B467B800023FB817B681B8CFB81FB898E
:100DF00023F02003FB817B881B019AB2FB891343FC
:100E0000FB817B68FA891A8400BF1437BD465DF800
:100E1000047B704780B485B000AF78600B467B8060
:100E20000023FB817B681B8CFB81FB8923F400730F
:100E3000FB817B881B029AB2FB891343FB817B6891
:100E4000FA891A8400BF1437BD465DF8047B7047E9
:100E500080B485B000AF78600B467B800023FB81B7
:100E60007B681B8CFB81FB8923F40053FB817B880F
:100E70001B039AB2FB891343FB817B68FA891A84AE
:100E800000BF1437BD465DF8047B704780B483B063
:100E900000AF78607B685B6B18460C37BD465DF829
:100EA000047B704780B483B000AF78607B689B6B35
:100EB00018460C37BD465DF8047B704780B483B09C
:100EC00000AF78607B68DB6B18460C37BD465DF879
:100ED000047B704780B483B000AF78607B681B6C84
:100EE00018460C37BD465DF8047B704780B485B06A
:100EF00000AF78600B467B800023FB730023BB812F
:100F000000237B817B681B8A9AB27B881340BB815C
:100F10007B689B899AB27B8813407B81BB89002BBD
:100F200005D07B89002B02D00123FB7301E0002355
:100F3000FB73FB7B18461437BD465DF8047B704796
:100F400080B483B000AF78600B467B807B88DB4346
:100F50009AB27B681A8200BF0C37BD465DF8047BED
:100F6000704780B483B000AF78607B689B889BB289
:100F7000C3F308039BB218460C37BD465DF8047BEB
:100F8000704780B487B000AF78600B467B80002349
:100F9000FB6000237B610023BB600023FB747B8824
:100FA000DBB25B09DBB2BB607B8803F01F037B61B4
:100FB00001227B6902FA03F37B61BB68012B07D135
:100FC0007B689B899BB21A467B6913407B6111E069
:100FD000BB68022B07D17B681B8A9BB21A467B69D0
:100FE00013407B6106E07B689B8A9BB21A467B6953
:100FF00013407B617B881B0A9BB2FB600122FB686C
:1010000002FA03F3FB607B681B889BB21A46FB68FD
:101010001340FB607B69002B05D0FB68002B02D0DE
:101020000123FB7401E00023FB74FB7C18461C3792
:10103000BD465DF8047B7047000000000000000022
:10104000074B19680868B0E8F04F80F30988BFF3D0
:101050006F8F4FF0000080F311887047AFF300806E
:10106000D400002000BF00BF00000000000000000E
:10107000EFF30980BFF36F8F154B1A681EF0100F46
:1010800008BF20ED108A20E9F04F10602DE909001B
:101090004FF0500080F31188BFF34F8FBFF36F8F75
:1010A00000F052F94FF0000080F3118809BC196874
:1010B0000868B0E8F04F1EF0100F08BFB0EC108ABF
:1010C00080F30988BFF36F8F704700BFAFF30080D4
:1010D000D400002000BF00BF80B582B000AF4FF049
:1010E000500383F31188BFF36F8FBFF34F8F7B6083
:1010F00000BF00F013F80346002B03D0064B4FF05F
:1011000080521A6000233B603B6883F3118800BF64
:1011100000BF0837BD4680BD04ED00E080B588B053
:1011200000AF0023FB617B4B1B68002B40F0E78086
:10113000794B1B680133BB61774ABB691360BB699C
:10114000002B1BD1754B1B681B68002B05D040F68C
:10115000F4227349734802F063FD704B1B687B6196
:10116000714B1B686D4A13606F4A7B6913606F4B4C
:101170001B6801336D4A136000F03EF96C4B1B682D
:10118000BA699A42C0F0A680644B1B681B68002BAA
:1011900004D1674B4FF0FF321A609BE05F4B1B6836
:1011A000DB68DB683B613B695B68FB60BA69FB68D5
:1011B0009A4203D25E4AFB6813608BE03B695B692D
:1011C000BB603B699B683A69D2689A603B69DB689F
:1011D0003A6992685A60BB685A683B6904339A421C
:1011E00003D13B69DA68BB685A603B6900225A61E7
:1011F000BB681B685A1EBB681A603B699B6A002B60
:101200001ED03B699B6A7B603B69DB693A69126A65
:101210009A603B691B6A3A69D2695A607B685A686E
:101220003B6918339A4203D13B691A6A7B685A605A
:101230003B6900229A627B681B685A1E7B681A60B1
:101240003B69DB6A01229A403A4B1B681343394AD7
:1012500013603B69DA6A384913469B0013449B00CC
:101260000B4404331B683B603B693A689A603B68F7
:101270009A683B69DA603B689B683A6904325A6055
:101280003B691A1D3B689A603B69DA6A13469B000A
:1012900013449B00284A1A443B695A613B69DA6A45
:1012A000254913469B0013449B000B441B68591CA3
:1012B000214813469B0013449B00034419603B697B
:1012C000DA6A1E4B1B68DB6A9A427FF65DAF012328
:1012D000FB6159E7194B1B68DA6A174913469B00F3
:1012E00013449B000B441B68012B01D90123FB61B4
:1012F000134B1B68002B07D00123FB6104E0114B4B
:101300001B6801330F4A1360FB6918462037BD463E
:1013100080BD00BF7C030020600300205803002034
:10132000D04B0008104C00085C0300207403002020
:101330007803002064030020D8000020D40000209F
:10134000700300206C03002080B584B000AF234BF5
:101350001B68002B03D0224B01221A6039E0204B7E
:1013600000221A601F4B1B687B607B68B3FA83F313
:10137000FB70FB78C3F11F03FB601B49FA6813463F
:101380009B0013449B000B441B68002B05D140F6C7
:1013900033421649164802F043FCFA6813469B0094
:1013A00013449B00104A1344BB60BB685B685A68D7
:1013B000BB685A60BB685A68BB6808339A4203D15D
:1013C000BB68DA68BB685A60BB685B68DB68094A5F
:1013D000136000BF1037BD4680BD00BF7C030020F6
:1013E0007003002064030020D8000020D04B0008C8
:1013F000104C0008D400002080B400AF0A4B1B68DA
:101400001B68002B04D1094B4FF0FF321A6005E036
:10141000054B1B68DB681B68044A136000BFBD46B0
:101420005DF8047B704700BF58030020780300205C
:1014300080B483B000AF0B4B1B68002B02D101239B
:101440007B6008E0084B1B68002B02D102237B6005
:1014500001E000237B607B6818460C37BD465DF8D1
:10146000047B7047680300207C03002080B582B0B5
:1014700000AF01210120FFF773FC4FF480533B6064
:1014800001233B710023BB7103237B710123FB719B
:101490003B4619460548FFF7C5FB4FF4805103480A
:1014A000FFF74FFC00BF0837BD4680BD000002407B
:1014B00080B485B000AFB9607A603B600346FB73CF
:1014C000584AFB7B1B331B0113441B68DBB203F040
:1014D0000403DAB27B681A707B681B78002B09D191
:1014E000504AFB7B1B331B0113441B685A0DBB681E
:1014F0001A6008E04B4AFB7B1B331B0113441B683B
:10150000DA08BB681A60474AFB7B1B331B01134494
:101510001B68DBB203F00203DAB23B681A70414A7F
:10152000FB7B1B331B01134404331B68DBB203F04A
:101530000F03DAB2BB691A703A4AFB7B1B011344F2
:1015400003F5DC731B68DAB2FB691A70354AFB7B62
:101550001B01134403F5DC731B681A0AFB69013392
:10156000D2B21A702F4AFB7B1B01134403F5DC73C4
:101570001B681A0CFB690233D2B21A70294AFB7B32
:101580001B01134403F5DC731B681A0EFB6903335C
:10159000D2B21A70234AFB7B1B01134403F5DE739E
:1015A0001A68FB690433D2B21A701E4AFB7B1B0116
:1015B000134403F5DE731B681A0AFB690533D2B2C4
:1015C0001A70184AFB7B1B01134403F5DE731B687A
:1015D0001A0CFB690633D2B21A70124AFB7B1B014C
:1015E000134403F5DE731B681A0EFB690733D2B28E
:1015F0001A70FB7B002B06D10A4BDB68094A43F0CB
:101600002003D36008E0FB7B012B05D1054B1B6950
:10161000044A43F02003136100BF1437BD465DF850
:10162000047B70470064004080B588B002AF07F1CA
:101630000E0007F10F0207F110013B1D019307F1A6
:101640000D03009303460020FFF732FF3B6940F291
:101650008112934276D13D4B01221A703C4B0022FD
:101660001A703C4B00221A703B4B00221A703B4B05
:1016700000221A703A4B00221A703A4B00221A705C
:101680003B799BB21B029AB27B799BB213449BB20B
:101690001BB207EE903AB8EEE77ADFED336AC7EE99
:1016A000267A324BC3ED007ABB799BB21B029AB209
:1016B000FB799BB213449BB21BB207EE903AB8EE93
:1016C000E77ADFED296AC7EE267A294BC3ED007A67
:1016D0003B7A9BB21B029AB27B7A9BB213449BB2B9
:1016E0001BB207EE903AB8EEE77ADFED1F6AC7EE5D
:1016F000267AC7ED057A1F4B1B78022B0ED11B4BA8
:10170000D3ED007AD7ED050AB0EE670A00F0B6FE19
:10171000F0EE407A184BC3ED007A13E03B7A9BB2AF
:101720001B029AB27B7A9BB213449BB21BB207EEA8
:10173000903AB8EEE77ADFED0C6AC7EE267A0E4BE8
:10174000C3ED007A00BF1837BD4680BDCB00002036
:10175000C8000020CA000020C9000020CC000020E2
:10176000CD000020B000002000007A44B40000202A
:10177000B8000020B1000020BC00002080B400AF01
:101780004FF080431B8A4FF080431B8A9BB24FF07F
:10179000804223F001039BB2138200BFBD465DF877
:1017A000047B704780B400AF074B1B8A064B1B8A33
:1017B0009BB2054A23F001039BB2138200BFBD46D2
:1017C0005DF8047B704700BF0004004080B400AFA8
:1017D000074B1B8A064B1B8A9BB2054A23F0010369
:1017E0009BB2138200BFBD465DF8047B704700BF0B
:1017F0000008004080B400AF074B1B8A064B1B8AD1
:101800009BB2054A23F001039BB2138200BFBD4681
:101810005DF8047B704700BF000C004080B400AF4F
:10182000074B1B8A064B1B8A9BB2054A23F0010318
:101830009BB2138200BFBD465DF8047B704700BFBA
:101840000018004080B500AF894B1B68B3F5C86F26
:101850001ADD884B1B78002B16D1874B1B68B3F51C
:101860007A7F11DB834B01221A70844B00221A709D
:10187000834B00221A70834B00221A70824B002285
:101880001A70824B00221A70814B1B785BB2002BBE
:101890005FDB02217F48FFF729FB0346002B58D06E
:1018A00002217C48FFF74CFB794B1B7803F0400387
:1018B000002B3CD07748FFF7E9FA03469AB2764B03
:1018C0001A80754B1A88754B1B889A4204D2744B48
:1018D00042F20F721A6002E0714B00221A606E4BE6
:1018E0001B881A466D4B1B88D31A1A466C4B1B6813
:1018F00013441A466B4B1A606A4B1A686A4B1B6892
:10190000D31A002BB8BF5B42B3F5FA7F03DD664BF9
:101910001B68644A1360634B1B68634A13605C4B2B
:1019200000221A7000215B48FFF73AFA11E059488B
:10193000FFF7ACFA03469AB2584B1A80544B1B7807
:1019400043F04003DAB2524B1A7002215148FFF7BC
:1019500027FA564B1B785BB2002B5FDB04214D4806
:10196000FFF7C4FA0346002B58D004214948FFF77B
:10197000E7FA4E4B1B7803F04003002B3CD0454860
:10198000FFF790FA03469AB2494B1A80484B1A88DF
:10199000484B1B889A4204D2474B42F20F721A609E
:1019A00002E0454B00221A60414B1B881A46414B0E
:1019B0001B88D31A1A46404B1B6813441A462C4BFB
:1019C0001A602B4B1A683D4B1B68D31A002BB8BF0B
:1019D0005B42B3F5FA7F03DD384B1B68244A136082
:1019E000234B1B68354A1360304B00221A700021CC
:1019F0002848FFF7F1F911E02648FFF753FA0346AC
:101A00009AB22C4B1A80294B1B7843F04003DAB270
:101A1000264B1A7002211F48FFF7DEF9284B1B786E
:101A20005BB2002BC0F2918008211A48FFF75EFAE2
:101A30000346002B00F0898008211648FFF780FA42
:101A40001F4B1B7803F04003002B6CD01148FFF7AD
:101A500035FA03469AB21B4B1A801A4B1A881A4B56
:101A60001B889A4234D2194B42F20F721A6032E04C
:101A700010000020CA00002080030020C9000020C0
:101A8000C8000020CB000020CC000020CD000020AA
:101A90008403002000040140880300208603002006
:101AA0009C0300200C0000201C0000208A03002062
:101AB0008E0300208C030020A003002020000020C3
:101AC000900300209403002092030020A403002030
:101AD000514B00221A60514B1B881A46504B1B88F1
:101AE000D31A1A464C4B1B6813441A464D4B1A60C6
:101AF0004C4B1A684C4B1B68D31A002BB8BF5B4287
:101B0000B3F5FA7F03DD484B1B68464A1360454B2B
:101B10001B68454A1360454B00221A700021444857
:101B2000FFF778F911E04248FFF7C8F903469AB287
:101B30003B4B1A803D4B1B7843F04003DAB23B4BE2
:101B40001A7002213A48FFF765F93A4B1B785BB2ED
:101B5000002B5FDB10213648FFF7C8F90346002B46
:101B600058D010213248FFF7EBF9324B1B7803F0C5
:101B70004003002B3CD02E48FFF7ACF903469AB245
:101B80002D4B1A802C4B1A882C4B1B889A4204D25E
:101B90002B4B42F20F721A6002E0294B00221A60AE
:101BA000254B1B881A46254B1B88D31A1A46244BF3
:101BB0001B6813441A46234B1A60224B1A68224BA7
:101BC0001B68D31A002BB8BF5B42B3F5FA7F03DD65
:101BD0001D4B1B681B4A13601A4B1B681A4A136083
:101BE000144B00221A7000211148FFF731F911E05F
:101BF0000F48FFF76FF903469AB2104B1A800D4B4E
:101C00001B7843F04003DAB20A4B1A7002210848ED
:101C1000FFF71EF900BF80BDA4030020940300203D
:101C200092030020140000202400002090030020D4
:101C300000040140960300209A030020980300202E
:101C4000A8030020180000202800002080B400AF66
:101C5000064B1B8A9BB2054A23F001039BB21382F9
:101C600000BFBD465DF8047B704700BF0004014023
:101C700080B586B000AF40F225515A48FFF781F990
:101C80000346002B00F0A88000237B6101233B6109
:101C90005448FFF766F90346FB72534B1B68B3F5D4
:101CA0007A7F01DA002398E0504B1B781946504A9E
:101CB000FB7A5354FB7A7B2B03D04C4B1B78002BC5
:101CC00006D04A4B1B780133DAB2484B1A7002E057
:101CD000464B00221A70454B1B780B2B7CD1434B93
:101CE00000221A70424B9B7A7D2B75D10023FB603A
:101CF0000AE03F4AFB6813441B781A467B6953404D
:101D00007B61FB680133FB60FB68082BF1DD384B1E
:101D10005B7A1A467B69934201D100233B613B69A0
:101D2000002B59D1334B1B78002B0ED1314B0122A4
:101D30001A70314B00221A70304B00221A70304B4F
:101D400000221A702F4B00221A702F4B00221A709B
:101D5000274BDB78264A12791146184600F018FC0A
:101D6000F0EE407A294BC3ED007A214B5B79204A93
:101D700092791146184600F00BFCF0EE407A244BA5
:101D8000C3ED007A1A4BDB79194A127A11461846CC
:101D900000F0FEFB87ED010A1E4B1B78022B0ED1D3
:101DA0001A4BD3ED007AD7ED010AB0EE670A00F0C6
:101DB00065FBF0EE407A184BC3ED007A0CE00C4B5B
:101DC000DB790B4A127A1146184600F0E1FBF0EE7F
:101DD000407A114BC3ED007A002318461837BD46F0
:101DE00080BD00BF00100140AC000020FC030020BB
:101DF00000040020CC000020C9000020C800002002
:101E0000CA000020CB000020B0000020B400002059
:101E1000B8000020B1000020BC000020000000003D
:101E2000B0B582B000AF40F22551A348FFF7A9F842
:101E30000346002B00F093819F4B9B889BB27B60F5
:101E40009E4B1B68B3F57A7F01DA002388E17B683B
:101E5000412B19D19A4B1B78412B15D1994B1B78EB
:101E6000002B11D1984B00221A70984B00221A7047
:101E7000944B01221A70964B00221A70954B002247
:101E80001A70954B00221A707B68DAB28C4B1A706C
:101E90007B684B2B03D1914B01221A7008E07B68C1
:101EA000492B02D07B684A2B02D18C4B00221A703E
:101EB0008A4B1B78002B18D17B68402B09DD7B688F
:101EC000482B06DC7B68DBB2403BDAB2844B1A70ED
:101ED00039E07B68082B04DC7B68DAB2804B1A702F
:101EE00031E07F4B00221A702DE07C4B1B78012BD8
:101EF00029D17B68432B06D17A4B00221A707A4B8A
:101F000001221A700FE07B68472B06D1754B012226
:101F10001A70754B00221A7005E0724B00221A707D
:101F2000714B00221A707B68412B02D07B68452BD5
:101F300006D17B68DBB2403BDAB2694B1A7002E033
:101F4000674B00221A707B68582B09D1674BD3ED81
:101F5000007A9FED677A77EE877A644BC3ED007A5B
:101F60007B68592B09D1614BD3ED007A9FED607AE4
:101F700077EEC77A5D4BC3ED007A7B687B2B02D18D
:101F80005C4B01221A707B687D2B02D1594B0222D7
:101F90001A70584B1B78012B0CD1574B1B781A46E3
:101FA0007B68D9B2554B9954534B1B780133DAB245
:101FB000514B1A704F4B1B78022B40F0C4804F4B93
:101FC000DB78502B03D14E4B01221A70A9E04B4B0A
:101FD0005B78232B00F0A480474B1A78494B1A708A
:101FE0003FE0484B1B78013B444AD35C303B1846EA
:101FF000FEF740FA04460D463F4B1B781A46414B0C
:102000001B78D31A1846FEF735FA02460B4643EC06
:10201000112B9FED270B00F0FFFD53EC102B2046FA
:102020002946FEF791FA02460B4614461D46364BEA
:102030001B681846FEF730FA02460B462046294632
:10204000FEF7CCF802460B4610461946FEF72CFD6B
:1020500003462D4A13602B4B1B78013BDAB2294B08
:102060001A70284B1B78032BBBD8244B5B78303B72
:10207000082B56D801A252F823F000BFA120000877
:102080000D21000817210008232100082321000842
:102090002321000823210008232100082321000810
:1020A000194B1B68114A13603BE000BFAFF300807F
:1020B0000000000000002440004400408003002095
:1020C0000B040020C9000020C8000020CA00002026
:1020D000CB000020CC000020CD000020D10000204B
:1020E000D0000020CE000020CF0000200000002003
:1020F0000000C8420C0400200D0400201004002041
:10210000D20000204204002044040020164B1B682B
:10211000164A136005E0144B1B68154A136000E073
:1021200000BF144B00221A70134B00221A70134B7D
:1021300000221A700C4B4FF000021A60322200216C
:102140000F4801F065FD0F4BD3ED007AF5EEC07A34
:10215000F1EE10FA03D50B4B4FF000021A6000238A
:1021600018460837BD46B0BD4404002004000020D6
:10217000080000200C0400200D0400204204002070
:10218000100400200000002090B583B000AF40F2A2
:1021900025514E48FEF7F5FE0346002B00F09080D7
:1021A0004A48FEF7DEFE0346FB71494B1B68B3F558
:1021B0007A7F01DA002384E0464B1B781946464AB1
:1021C000FB795354FB797B2B03D0424B1B78002BBC
:1021D00006D0404B1B780133DAB23E4B1A7002E056
:1021E0003C4B00221A703B4B1B780B2B68D1394BB0
:1021F00000221A70384B9B7A7D2B61D1364B5C7A6A
:102200000021092000F016FA03469C4258D1334BB6
:1022100000221A70324B00221A70324B00221A70C0
:10222000314B00221A70314B00221A70304B0022C1
:102230001A70304B00221A70274BDB78264A12792D
:102240001146184600F0A4F9F0EE407A2A4BC3ED8F
:10225000007A214B5B79204A92791146184600F0AA
:1022600097F9F0EE407A254BC3ED007A1A4BDB79F3
:10227000194A127A1146184600F08AF987ED000AC9
:102280001F4B1B78022B0ED11B4BD3ED007AD7EDE1
:10229000000AB0EE670A00F0F1F8F0EE407A194B50
:1022A000C3ED007A0CE00C4BDB790B4A127A114635
:1022B000184600F06DF9F0EE407A124BC3ED007A4B
:1022C000002318460C37BD4690BD00BF00480040B3
:1022D000AC00002048040020DC030020C8000020DF
:1022E000CA000020C9000020CB000020CC00002044
:1022F000CD000020B0000020B4000020B800002075
:10230000B1000020BC00002090B583B000AF40F2C7
:1023100025514C48FEF735FE0346002B00F08D801A
:102320004848FEF71EFE0346FB71474B1B68B3F59A
:102330007A7F01DA002381E0444B1B781946444A36
:10234000FB795354FB797B2B03D0404B1B78002B3C
:1023500006D03E4B1B780133DAB23C4B1A7002E0D8
:102360003A4B00221A70394B1B780B2B65D1374B37
:1023700000221A70364B9B7A7D2B5ED1344B5C7AEF
:102380000021092000F056F903469C4255D1314BFB
:1023900000221A70304B00221A70304B00221A7043
:1023A0002F4B00221A702F4B00221A702E4B002246
:1023B0001A70274BDB78264A12791146184600F02E
:1023C000E7F8F0EE407A294BC3ED007A204B5B79B9
:1023D0001F4A92791146184600F0DAF8F0EE407A7A
:1023E000234BC3ED007A1A4BDB79194A127A114656
:1023F000184600F0CDF887ED000A1E4B1B78022B23
:102400000ED11A4BD3ED007AD7ED000AB0EE670A71
:1024100000F034F8F0EE407A174BC3ED007A0CE090
:102420000B4BDB790A4A127A1146184600F0B0F8D5
:10243000F0EE407A104BC3ED007A002318460C37BB
:10244000BD4690BD00500040AC0000204904002073
:10245000DC030020C8000020CA000020C9000020C2
:10246000CB000020CD000020B0000020B4000020F0
:10247000B8000020B1000020BC00002080B586B06C
:1024800000AF87ED010AC7ED000A3D4B3B61D7ED78
:10249000007AF5EE407AF1EE10FA66D0D7ED017AC7
:1024A000F5EE407AF1EE10FA5FD097ED017AD7EDB4
:1024B000007AC7EE276AB0EE660AFEF799FBB0EE27
:1024C000407AD7ED047AF4EEC77AF1EE10FA21DB08
:1024D000D7ED007AF5EEC07AF1EE10FA0CDD97ED4B
:1024E000010AFEF785FBF0EE406A97ED047AC6EE2E
:1024F000877AC7ED007A0DE097ED010AFEF778FBC9
:10250000F0EE407AF1EE676A97ED047AC6EE877ACC
:10251000C7ED007AD7ED016A97ED007AC6EE877AAB
:10252000C7ED037A174B93ED007A174BD3ED007A82
:10253000F6EE006A67EEA66AD7ED037A76EEA77A22
:10254000C7EE276A16EE900AFDF7A6FF02460B4675
:1025500043EC102B00F0B4F953EC102B1046194645
:10256000FEF7A2FA03467B6102E04FF000037B61B5
:102570007B6907EE903AB0EE670A1837BD4680BD1A
:102580003333B33EC4000020C00000200000000030
:10259000B0B584B000AF03460A46FB711346BB7169
:1025A000FB799BB21B029AB2BB799BB213449BB2DC
:1025B000FB81B7F90E301E4A82FB03129211DB1722
:1025C000D31A1BB21846FDF755FF04460D46B7F95E
:1025D0000E30174A82FB03129111DA178A1A4FF450
:1025E0007A7101FB02F29B1A1BB21846FDF742FFFB
:1025F0000DA3D3E90023FDF7A7FF02460B462046B3
:102600002946FDF7EBFD02460B4610461946FEF73C
:102610004BFA034607EE903AB0EE670A1037BD4614
:10262000B0BD00BFAFF30080FCA9F1D24D62503FB6
:10263000D34D621080B485B000AF03460A46FB71EB
:102640001346BB710023FB73BB79012B0FD1002311
:10265000BB7308E0BB7B134AD25CFB7B5340FB732C
:10266000BB7B0133BB73BA7BFB799A42F2D3BB7954
:10267000002B0FD10023BB7308E0BB7B0A4AD25C5E
:10268000FB7B5340FB73BB7B0133BB73BA7BFB7992
:102690009A42F2D3FB7B18461437BD465DF8047BA3
:1026A000704700BFAC030020DC03002080B500AF02
:1026B000FEF7BEFE0346012B01D0FEF70DFD00BF65
:1026C00080BD80B500AFFEF7D1FE0023184680BD67
:1026D00080B400AF00BFBD465DF8047B704780B496
:1026E00000AFFEE780B400AFFEE780B400AFFEE7C6
:1026F00080B400AFFEE780B400AF00BFBD465DF818
:10270000047B704780B500AF164BD3F88830154A6C
:1027100043F47003C2F88830134B1B68124A43F02D
:1027200001031360104B00229A600F4B1B680E4A86
:1027300023F0847323F4803313600B4B0B4A5A60ED
:10274000094B1B68084A23F480231360064B0022C0
:10275000DA6000F00DF8034B4FF000629A6000BFA2
:1027600080BD00BF00ED00E00038024010300024C2
:1027700080B483B000AF00237B6000233B60364B06
:102780001B68354A43F480331360334B1B6803F4F2
:1027900000333B607B6801337B603B68002B03D1D7
:1027A0007B68B3F5A04FF0D12B4B1B6803F40033CB
:1027B000002B02D001233B6001E000233B603B681B
:1027C000012B42D1244B1B6C234A43F080531364EA
:1027D000224B1B68214A43F4404313601E4B1E4AA0
:1027E0009B6893601C4B9B681B4A43F400439360B7
:1027F000194B9B68184A43F4A0539360164B184A30
:102800005A60154B1B68144A43F08073136000BF75
:10281000114B1B6803F00073002BF9D0114B40F2F1
:1028200005721A600C4B9B680B4A23F003039360FC
:10283000094B9B68084A43F00203936000BF064BB4
:102840009B6803F00C03082BF9D100BF0C37BD4681
:102850005DF8047B704700BF003802400070004004
:1028600008544007003C0240DFF834D00D480E49C0
:102870000E4A002302E0D458C4500433C4188C42DA
:10288000F9D30B4A0B4C002301E013600432A2423F
:10289000FBD3FFF737FF01F097F9FFF712FF7047FF
:1028A000000002200000002090000020184D0008C9
:1028B0009000002060040020FEE7000000000000FF
:1028C0002DE9F84F55EC104BC34B25F000469E42C6
:1028D000AA4617DDC14B9E420ADC07D0BAF1000FB1
:1028E00040F3CB809FEDA00BBDE8F88F002CF5D016
:1028F00022462B4620462946FDF770FC41EC100B82
:10290000BDE8F88FB64B9E4200F3BB80A3F1DE73A7
:102910009E4240F3A0804FF0FF3B22462B462046CC
:102920002946FDF711FE02460B4680468946FDF713
:102930000BFE8FA3D3E9002306460F46FDF704FEE6
:102940008DA3D3E90023FDF749FC32463B46FDF752
:10295000FBFD8BA3D3E90023FDF740FC32463B4649
:10296000FDF7F2FD88A3D3E90023FDF737FC3246DB
:102970003B46FDF7E9FD86A3D3E90023FDF72EFCD6
:1029800032463B46FDF7E0FD83A3D3E90023FDF784
:1029900025FC42464B46FDF7D7FD81A3D3E9002332
:1029A0008046894630463946FDF7CEFD7EA3D3E901
:1029B0000023FDF711FC32463B46FDF7C5FD7CA325
:1029C000D3E90023FDF708FC32463B46FDF7BCFD8A
:1029D00079A3D3E90023FDF7FFFB32463B46FDF721
:1029E000B3FD77A3D3E90023FDF7F6FB32463B4660
:1029F000FDF7AAFDBBF1FF3F02460B4640464946A4
:102A000062D0FDF7EBFB774E22462B46FDF79CFD8F
:102A1000754B06EBCB064FEACB0B9B44DBE900235F
:102A2000FDF7DAFB22462B46FDF7D6FB02460B46A6
:102A3000D6E90001FDF7D0FBBAF1000F41EC100B15
:102A4000BFF65EAF10EE901A024601F1004343EC70
:102A5000102BBDE8F88F5CA3D3E9002310EE100A19
:102A60002946FDF7BBFB614B0022FDF7FDFF002867
:102A70003FF451AF45EC104B42E79FED550BBDE8DD
:102A8000F88F00F0BDF85A4B9E4255EC104B2BDCF2
:102A9000A3F550239E4256DC10EE102A2B4610EE72
:102AA000100A2946FDF79AFB504B0022FDF794FBD4
:102AB00002460B462046294614461D464FF0000BA1
:102AC00000224FF0804327E0FDF788FB22462B468B
:102AD000FDF73AFD02460B4620462946FDF77CFBF2
:102AE00041EC100BBDE8F88F424B9E421FDA424B7F
:102AF0000022294610EE100AFDF76EFB02460B4637
:102B00002046294614461D4600223B4B4FF0020B3F
:102B1000FDF71AFD354B0022FDF760FB02460B4620
:102B200020462946FDF73AFE04460D46F5E62B46BB
:102B3000324910EE102A0020FDF730FE4FF0030B53
:102B400004460D46E9E6294B0022294610EE100AFC
:102B5000FDF742FB02460B46204629464FF0010B8B
:102B600014461D46D6E700BF182D4454FB21F93FFB
:102B700011DA22E33AAD903FEB0D76244B7BA93F6F
:102B8000513DD0A0660DB13F6E204CC5CD45B73F3D
:102B9000FF8300922449C23F0D5555555555D53FE9
:102BA0002F6C6A2C44B4A2BF9AFDDE522DDEAD3FDD
:102BB0006D9A74AFF2B0B33F711623FEC671BC3F7D
:102BC000C4EB98999999C93F9C7500883CE4377E7D
:102BD000182D4454FB21F9BFFFFF0F440000F07F84
:102BE000FFFFDB3F384C0008584C00080000F03F66
:102BF000FFFFF23F008003400000F83F0000F0BFFD
:102C000051EC100B10EE102A21F0004343EC102B76
:102C1000704700BF00000000F8B52DED028B55ECA9
:102C2000114B57EC106B00F06FF822462B462046F4
:102C30002946B0EE408AF0EE608AFDF71FFF78B9B2
:102C40000022002330463946FDF7E6FEF0B10022AF
:102C5000002320462946FDF7DFFE40B19FED288B7B
:102C6000B0EE480AF0EE680ABDEC028BF8BD45EC08
:102C7000104B00F005FF0028F2D020462946002224
:102C80000023FDF7D3FE0028EAD02EE0B0EE480A7C
:102C9000F0EE680A00F0F4FEA0B151EC180B00222F
:102CA0000023FDF7B9FE0028DAD047EC106B00F0E6
:102CB000E7FE0028D4D045EC104B00F0E1FE0028E0
:102CC000CED012E047EC106B00F0DAFE0028E4D022
:102CD00045EC104B00F0D4FE0028DED053EC182B4E
:102CE00051EC180BFDF7CAFE20B900F067FF222354
:102CF0000360B5E700F062FF21230360B0E700BF87
:102D0000000000000000F03F2DE9F04F55EC114BA2
:102D10002DED0C8B25F0004A5AEA040157EC106B9C
:102D200087B015D1B3197E4887F4002252419942E9
:102D300070EB020324D222462B4630463946FDF77B
:102D40004DFA41EC100B07B0BDEC0C8BBDE8F08FD9
:102D5000744927F00049894510EE102AB84616DD5F
:102D600008F1404808F5801858EA0208E3D1231911
:102D70006B4985F400225241984571EB0203DAD386
:102D80009FED650B07B0BDEC0C8BBDE8F08F11EE2D
:102D9000103AAB4642D063498A45E1DC00F09480AA
:102DA000B8F1000F73DB002100917BB95D4B9A45B0
:102DB00000F08E805C4B9A4500F0A280BBF1804F02
:102DC00000F0C284594B9B4500F0D78347EC106B51
:102DD0000292FFF715FF029A62B3009A4FEAD87386
:102DE000013B0493134300F09280514B9A4540F30A
:102DF000A58003F104739A454E4B40F33F849945F7
:102E000040F3B484BBF1000F40F3B484002007B05A
:102E1000BDEC0C8BBDE8F04F00F028BE002E8AD12F
:102E2000B9E747EC106B0092FFF7EAFE009A002A20
:102E30006DD10092B9F1000F04D03B4B28F0404215
:102E40009A42CAD1BBF1000F07DA53EC102B364976
:102E50000020FDF7A3FC41EC100BB8F1000FBFF60A
:102E600072AF009B09F1404909F5801959EA030343
:102E700040F0908453EC102B10461946FDF7ACF946
:102E800002460B46FDF78AFC41EC100B5BE72A4932
:102E90008A452FDCA1F154718A450FDD4FEA2A5192
:102EA000A1F2FF31142940F36784C1F1340123FA00
:102EB00001F000FA01F1994200F0A584002100918F
:102EC000002B3FF477AF81E7002B3FF469AF47E772
:102ED00009F1404303F5801313433FF451AF154B01
:102EE000994540F38483BBF1000FC0F2618445EC47
:102EF000104B28E702210091002B3FF457AF65E704
:102F0000BBF1000FC0F2168447EC106B1BE7324692
:102F10003B46B1E7AFF30080000000000000F03F47
:102F20000000F0FF0000F07F0000F03F0000E03FF5
:102F30000000E041FFFFEF3FFFFF3F43E44B08EAA3
:102F40000303002253B951EC100BE24BFDF7FCFADE
:102F500041EC100B10EE909A6FF034024FEA2953B7
:102F6000A3F2FF339A18DC4B0592C9F3130949F019
:102F70007F56994546F4401607DDD84B994540F3F6
:102F80001B8401320592A6F580169FEDB96B9FED6B
:102F9000BA7B53EC162BB0EE47CAF0EE67CA002797
:102FA000B0EE47DAF0EE67DA5BEC10ABB3465046B2
:102FB000594643EC1A2BFDF70FF953EC1A2B8046B8
:102FC000894650465946FDF709F902460B4600204E
:102FD000C349FDF7E3FB41EC1B0B404653EC1B2BB5
:102FE0004946FDF7B1FA41EC180B0A460146CDE916
:102FF00002120021029176104BEC19AB46F00056FC
:10300000DDE902AB06F500230020D91906460F467C
:1030100002460B4650465946FDF796FA02460B46C5
:1030200040464946FDF7D8F853EC1A2B80468946AE
:1030300030463946FDF7D0F802460B4651EC190BE5
:10304000FDF7CAF852465B46FDF77EFA02460B468C
:1030500040464946FDF7C0F853EC1B2BFDF774FAC8
:1030600053EC182B41EC1B0B51EC180BFDF76CFAD1
:1030700083A3D3E9002306460F46FDF765FA82A332
:10308000D3E90023FDF7AAF832463B46FDF75CFA88
:103090007FA3D3E90023FDF7A1F832463B46FDF7B5
:1030A00053FA7DA3D3E90023FDF798F832463B4657
:1030B000FDF74AFA7AA3D3E90023FDF78FF83246E9
:1030C0003B46FDF741FA78A3D3E90023FDF786F8E4
:1030D0003246804689463B4630463946FDF734FA4B
:1030E00002460B4640464946FDF72EFA5246064632
:1030F0000F465B4651EC180BFDF770F853EC1B2B99
:10310000FDF722FA32463B46FDF768F8524641EC9D
:103110001A0B5B4650465946FDF716FA714B0022D2
:1031200080468946FDF75AF853EC1A2BFDF756F8FE
:1031300050460F465946DDE902AB3B465246FDF785
:1031400003FA684B41EC190B002250463946FDF753
:1031500043F842464B46FDF73FF802460B4651EC1A
:103160001A0BFDF739F853EC182BFDF7EDF9524621
:103170003B4606460F4651EC1B0BFDF7E5F90246B0
:103180000B4630463946FDF729F8804689464246C7
:103190004B4651EC190BFDF721F845A3D3E9002369
:1031A00050460F46FDF7D0F953EC192B41EC190BA3
:1031B00050463946FDF710F802460B464046494650
:1031C000FDF70AF83CA3D3E90023FDF7BDF9024659
:1031D0000B461646504639461F4639A3D3E900230D
:1031E000FDF7B2F902460B4630463946FCF7F6FFCA
:1031F00053EC1D2BFCF7F2FF804605988946FDF73E
:1032000039F9424682468B464B4651EC190BFCF786
:10321000E5FF53EC1C2BFCF7E1FF52465B46FCF745
:10322000DDFF52465B46002006460F46FCF7D4FF02
:1032300053EC1C2BFCF7D0FF53EC192BFCF7CCFF05
:1032400002460B4640464946FCF7C6FF009B049ADF
:10325000013B134382468B4640F0C2819FED1A7BAF
:10326000B0EE478AF0EE678A3EE000BFAFF3008021
:10327000000000000000F03F00000000000000001F
:10328000EF4E454A287ECA3F65DBC9934A86CD3F4B
:1032900001411DA96074D13F4D268F515555D53F31
:1032A000FFAB6FDBB66DDB3F033333333333E33FC9
:1032B000000000E009C7EE3FFD033ADC09C7EE3F1E
:1032C000F5015B14E02F3EBE000000000000F0BFDF
:1032D0000000F07F000040438E98030079B60B0099
:1032E0000000F03F000008400023CDE900450093B6
:1032F000DDE90089204642464B462946FCF76CFF33
:1033000032463B46FDF720F922462B4604460D4641
:1033100050465946FDF718F902460B462046294605
:10332000FCF75CFF424604460D464B4630463946A4
:10333000FDF70AF926462F4604460D462B46304631
:1033400039462246FCF74AFFC74B994280468946D8
:103350008A4640F31F8101F13F4303F5E003034335
:1033600040F03E82AAA3D3E9002330463946FCF759
:1033700035FF02460B46404649469046994622464E
:103380002B46FCF729FF02460B4640464946FDF70F
:103390006BFB002840F02482CAF30A534FF48012DA
:1033A000A3F2FE3342FA03F35344B049C3F30A5283
:1033B000A2F2FF3241FA02FCC3F3130141F480117F
:1033C000C2F1140241FA02F2002023EA0C01BAF120
:1033D000000F00920B46024602DA00994942009122
:1033E00020462946FCF7F8FE009B1B050293024687
:1033F0000B4604460D4630463946FCF7EFFE89463B
:103400004FF0000884A3D3E9002340464946FDF766
:103410009BF822462B4682468B4640464946FCF79F
:10342000DBFE02460B4630463946FCF7D5FE7CA350
:10343000D3E90023FDF788F87BA3D3E900230446F2
:103440000D4640464946FDF77FF802460B462046AA
:103450002946FCF7C3FE06460F4632463B46504619
:103460005946FCF7BBFE52465B4604460D46FCF748
:10347000B3FE02460B4630463946FCF7ADFE224607
:10348000804689462B4620462946FDF75DF868A30D
:10349000D3E9002306460F46FDF756F866A3D3E9A5
:1034A0000023FCF799FE32463B46FDF74DF864A336
:1034B000D3E90023FCF792FE32463B46FDF744F881
:1034C00061A3D3E90023FCF787FE32463B46FDF7B4
:1034D0003BF85FA3D3E90023FCF780FE32463B466E
:1034E000FDF732F802460B4620462946FCF774FEEB
:1034F00006460F4632463B4620462946FDF724F84D
:1035000002460B463046394616461F4600224FF00B
:103510008043FCF761FE02460B4630463946FDF714
:103520003DF9424606460F464B4620462946FDF7E2
:103530000BF842464B46FCF751FE02460B4630461E
:103540003946FCF749FE22462B46FCF745FE02466B
:103550000B4600204649FCF73FFE029A0B461344F7
:10356000B3F5801FC0F24781194653EC182BFCF7C6
:10357000EBFF41EC100BFFF7E6BBB8F1000FFFF6D5
:1035800025AC47EC106B07B0BDEC0C8BBDE8F04FE1
:1035900000F074B9DFF8E0C021F00043634540F368
:1035A000DD80344B0B4403430AD122462B46FCF703
:1035B00013FE32463B46FDF74DFA00283FF4ECAED1
:1035C00051EC180B00220023FDF730FA003818BF29
:1035D000012007B0BDEC0C8BBDE8F04F00F03CBA09
:1035E0009FED1D7BB0EE478AF0EE678A7CE6BBF16B
:1035F000000F9FED1B0BBFF6A6AB05F1004300EEDD
:10360000104A00EE903AFFF79EBB00BFAFF3008078
:10361000FE822B654715973C00000000432EE63FD5
:10362000EF39FAFE422EE63F396CA80C615C20BEF1
:10363000D0A4BE726937663EF16BD2C541BDBB3EB8
:103640002CDE25AF6A56113F93BDBE166CC1663F96
:103650003E5555555555C53F000000000000F03F50
:103660000000000000000000FFFF8F40FFFF0F0080
:103670000000F03F00346F3FFFCB9040994575DB71
:103680007B4B99453FF7BEAB51EC100B784B0022BA
:10369000FCF7A2FD66A3D3E9002306460F46FCF71C
:1036A00053FF65A3D3E9002382468B463046394653
:1036B000FCF74AFF6F4B41EC180B002230463946AD
:1036C000FCF742FF02460B465DA1D1E90001FCF781
:1036D00083FD32463B46FCF737FF02460B4600208F
:1036E0006549FCF779FD3246804689463B463046BF
:1036F0003946FCF729FF02460B4640464946FCF78F
:1037000023FF51A3D3E90023FCF71EFF02460B461B
:1037100051EC180BFCF760FD8046894642464B464B
:1037200050465946FCF75AFD002052465B46064675
:103730000F4683E54E49002032463B46FDF72EF802
:1037400041EC100BFFF7FFBA32463B463046394694
:10375000FCF7FAFE41EC100BFFF7F5BA464A93422C
:1037600062DCDDE900120291009149E6BBF1000F35
:10377000FFF64CAB00202CE7002B7FF452ABC1F1DD
:1037800014014AFA01F000FA01F1514545D00093C5
:10379000FFF710BB009B012B7FF4D5AA10EE901A07
:1037A00010EE102A01F1004343EC102BFFF7CBBAC7
:1037B0009FED270BFFF7C7BA9FED277BB0EE47CAF7
:1037C000F0EE67CA9FED267BB0EE47DAF0EE67DADF
:1037D0009FED257B4FF4802753EC172BFFF7E4BBBD
:1037E00051EC180B00220023FDF720F9003818BF18
:1037F0000120FFF70CBB41EC100B009800F04CF9D6
:1038000051EC100BB1E600F00100C0F10201009193
:10381000002B3FF4CFAAFFF7D9BA00F00100C0F1A6
:1038200002030093FFF7C6BA1B15B7E5AFF300809C
:10383000000000604715F73F44DF5DF80BAE543ED3
:10384000555555555555D53FFE822B654715F73FC4
:1038500000000000000000000000004003B8E23F4C
:1038600006D0CF43EBFD4C3E000000000000F83FC7
:103870000000F03F0000D03F0000E03F2DE9F041A4
:10388000634A55EC104BAA4300F09F80002D10EEC8
:1038900010CA2B4654DD291563D0C3F31303A1F2DC
:1038A000FF37C90743F4801304D45B0003EBDC73D8
:1038B0004FEA4C0C4FEADC72002602EB43037F1008
:1038C0004FEA4C0C4FF0160E34464FF40012A1187C
:1038D000994202DC5B1A8C1816445B00BEF1010EA3
:1038E00003EBDC734FEA52024FEA4C0CEFD1754602
:1038F00020204FF000420AE044D04FEADC7101384A
:1039000001EB43034FEA4C0C4FEA520243D0A3426F
:1039100002EB0E01F0DD002901EB020E0ADBA046EE
:103920001B1B614588BF03F1FF33ACEB010C154451
:103930004446E2E7BEF1000FF1DB04F10108EFE7D6
:1039400025F00042224338D0002D4ED129464FEABF
:10395000DC22153913464FEA4C5C002AF7D0D60218
:1039600050D400205B00DD02044600F10100F9D5CF
:103970001A4663460CFA00FCC0F12000C340091B44
:1039800013438AE76145B8D8002901EB020ED1DB69
:1039900098460023C9E753EA0C0310D16808711058
:1039A000F30701F17F5101F5001148BF40F00040DD
:1039B00001EB0753024643EC102BBDE8F0816A1C73
:1039C00016BF681C01364008E9E710EE102A10EE19
:1039D000100A2B462946FCF7B7FD22462B46FCF77A
:1039E000FDFB41EC100BBDE8F08110EE102A2046E3
:1039F0002946FCF7F1FB02460B46FCF7CFFE41ECF3
:103A0000100BDAE7634620204FF0FF34B6E700BF23
:103A10000000F07FD0B506460F46144600F0CEF801
:103A20000346394630461C60D0BD00BF30B5144651
:103A300083B01D4608B103F10043CDE90023DDE961
:103A4000002320462946FCF77FFD222203B0BDE873
:103A50003040FFF7DFBF00BF08B500224FF08053B2
:103A6000FFF7E4FF41EC100B08BD00BF08B50022D2
:103A70004FF0E043FFF7DAFF41EC100B08BD00BF49
:103A800082B08DED000B019840F0004000F58010F1
:103A9000C00F02B0704700BF38B553EC102BC3F312
:103AA0000A5104469C4689BB10EE101A23F0004CC4
:103AB0005CEA010129D0194600223D4B3D4D10EE34
:103AC000100AFCF741FDAC4202460B4616DB8C4661
:103AD000C1F30A513639214440F2FE70814221DCA3
:103AE000002947DC11F1350F34DA4CF250318C42A9
:103AF00018DC002B26A1D1E9000144DB24A3D3E983
:103B00000023FCF721FD41EC100B38BD40F2FF70A3
:103B10008142E0D110EE100A1946FCF75FFB41EC40
:103B2000100B38BD002B1CA1D1E9000107DB1AA343
:103B3000D3E90023FCF708FD41EC100B38BD18A1B8
:103B4000D1E9000114A3D3E90023FCF7FDFC41EC0B
:103B5000100BF3E72CF0FF4C2CF4E00C36314CEA60
:103B60000153104619460022134BFCF7EDFC41ECC3
:103B7000100B38BD2CF0FF4C2CF4E00C4CEA015338
:103B800043EC102B38BD08A1D1E90001B6E700BF16
:103B900059F3F8C21F6EA5019C7500883CE4377E7E
:103BA0009C7500883CE437FE59F3F8C21F6EA5816E
:103BB00000005043B03CFFFF0000903C014B1868F0
:103BC000704700BF2C00002070B50D4D0D4C641BDC
:103BD000A4100026A64209D10B4D0C4C00F0ECFFBE
:103BE000641BA4100026A64205D170BD55F8043B05
:103BF00098470136EEE755F8043B98470136F2E75F
:103C0000104D0008104D0008104D0008144D00081C
:103C100002440346934200D1704703F8011BF9E7C1
:103C20000FB40A4B13B51C6824B1A36913B920461D
:103C300000F066F805AB049AA1680193204600F0F5
:103C4000BDF902B0BDE8104004B070472C00002060
:103C5000002310B50446C0E90033C0E90433836093
:103C600081814366C2818361194608225C30FFF777
:103C7000CFFF054B6362054BA362054BE362054B27
:103C80002462236310BD00BF654500088745000816
:103C9000BF450008E3450008014900F0AFB800BF88
:103CA000BD48000870B568224D1E55430E4605F10B
:103CB000740100F0E5F8044640B10021C0E90016A7
:103CC0000C30A06005F16802FFF7A2FF204670BD2E
:103CD000014800F0B3B800BF4B040020014800F0D9
:103CE000AEB800BF4B040020014800F0A7B800BFE9
:103CF0004C040020014800F0A2B800BF4C04002092
:103D000010B50446FFF7F0FFA3691BB1BDE81040F2
:103D1000FFF7F0BFC4E912332365134B134A1B6846
:103D2000A262A34204BF0123A361204600F020F851
:103D30006060204600F01CF8A060204600F018F8F3
:103D40000022E06004216068FFF782FFA068012282
:103D50000921FFF77DFFE06802221221FFF778FFBB
:103D60000123A361D2E700BF784C0008993C00080A
:103D7000F8B50746FFF7ACFF1E4B1E68B36913B9D1
:103D80003046FFF7BDFF4836D6E90134013B03D585
:103D900033680BB33668F7E7B4F90C50D5B9164B56
:103DA000E36004F15800656600F047F8FFF796FFFE
:103DB000C4E90155C4E904552560A56108222946D6
:103DC00004F15C00FFF724FFC4E90D55C4E9125566
:103DD0002046F8BD6834D9E704213846FFF762FF72
:103DE000044630600028D5D1FFF778FF0C233B60F4
:103DF000EEE700BF784C00080100FFFF2DE9F84313
:103E00000646884600F148040027D4E90195B9F137
:103E1000010905D52468002CF7D13846BDE8F883A0
:103E2000AB89012B07D9B5F90E30013303D02946F0
:103E30003046C04707436835E9E770477047704729
:103E400070B50E4E0C463168054611B900F07AFB8C
:103E500030602146284600F075FB431C0AD0C41C84
:103E600024F00304A04207D0211A284600F06AFB80
:103E7000013001D14FF0FF34204670BD54040020C2
:103E80002DE9F041CD1C25F0030508350C2D38BF78
:103E90000C25002D074601DBA94205D90C233B6008
:103EA00000263046BDE8F0812E4E00F0BBFD3368A1
:103EB0001C4634BB29463846FFF7C2FF431C044664
:103EC0004DD134682646002E40D12368314638460D
:103ED00004EB030800F036FB80453AD12168033536
:103EE0006D1A25F0030508350C2D38BF0C25294621
:103EF0003846FFF7A5FF01302BD023682B44236001
:103F00000EE02268521B1ED40B2A16D96119A34257
:103F1000256018BF5960636808BF316062514B600B
:103F2000384604F10B0600F083FD26F00706231D3A
:103F3000F21AB6D09B1BA350B3E76268A3420CBF32
:103F400032605A60ECE723466468B2E7344676682C
:103F5000B9E70C233B60384600F06AFDA1E7256015
:103F6000DEE700BF500400209368013B002B10B433
:103F7000936008DA9469A34201DB0A2903D15DF852
:103F8000044B00F033BB1368581C106019700846CE
:103F90005DF8044B7047F8B506460F461446D51831
:103FA000AC4201D1002007E014F8011B3A4630462C
:103FB000FFF7DAFF431CF3D1F8BD00002DE9F04F05
:103FC0000D469DB014469846064618B183690BB954
:103FD000FFF796FE894B9D421BD175686B6ED90722
:103FE00005D4AB899A0502D4A86DFFF727FFAB89EA
:103FF0001B0701D52B69EBB92946304600F05AFB67
:10400000C0B16B6EDC070ED54FF0FF301DB0BDE8C0
:10401000F08F7B4B9D4201D1B568DFE7794B9D4224
:1040200008BFF568DAE7AB899805EDD4A86DFFF70E
:1040300006FFE9E70023099320238DF82930CDF806
:104040000C803023DFF8C0818DF82A304FF0010951
:1040500023469A4613F8012B0AB1252AF9D1BAEB67
:10406000040B0BD05B46224629463046FFF793FFF0
:10407000013000F0AA80099A5A4409929AF8003057
:10408000002B00F0A28000234FF0FF32CDE9052382
:104090000AF1010A049307938DF853301A9354469A
:1040A000052214F8011B5848FCF752FD049AD8B9B0
:1040B000D10644BF20238DF85330130744BF2B2370
:1040C0008DF853309AF800302A2B15D0079A5446B1
:1040D00000204FF00A0C214611F8013B303B092B20
:1040E0004ED9B0B1079214E0A0EB080309FA03F32C
:1040F00013430493A246D2E7039B191D1B68039147
:10410000002BBBBF5B4242F0020207930793B8BF8C
:10411000049223782E2B0CD163782A2B35D1039B64
:104120001A1D1B680392002BB8BF4FF0FF330234F7
:104130000593DFF8E4A0217803225046FCF708FD40
:1041400040B14023A0EB0A0003FA00F0049B0343B4
:104150000134049314F8011B2C488DF82810062212
:10416000FCF7F6FC00283FD0294B1BBB039B073311
:1041700023F0070308330393099B3B44099367E744
:104180000CFB02320C460120A5E700230134059305
:1041900019464FF00A0C204610F8012B303A092A34
:1041A00003D9002BC5D00591C3E70CFB01210446C0
:1041B0000123F0E703AB00932A46164B04A93046CF
:1041C000AFF300800746781CD6D16B6ED90705D4B3
:1041D000AB899A0502D4A86DFFF731FEAB895B0667
:1041E0003FF512AF099811E703AB00932A46094B3C
:1041F00004A9304600F080F8E4E700BF9C4C0008BA
:10420000BC4C00087C4C0008DC4C0008E64C000864
:1042100000000000973F0008E24C00082DE9F0473D
:10422000164699468A680B69DDF820809342B8BF2C
:104230001346336091F8432007460C460AB1013318
:1042400033602368990642BF3368023333602568C0
:1042500015F0060506D104F1190AE36832689B1AC5
:10426000AB4226DC94F84320131E226818BF0123BA
:1042700092062BD404F1430249463846C047013028
:104280001ED02368E568326803F00603042B08BFDC
:10429000AD1AA36822690CBF25EAE5750025934293
:1042A000C4BF9B1AED1800261A34B5421AD100205B
:1042B00008E00123524649463846C047013003D141
:1042C0004FF0FF30BDE8F0870135C6E7E1185A1C12
:1042D000302081F84300224494F8451082F84310BE
:1042E0000233C7E70123224649463846C04701301A
:1042F000E6D00136D9E700002DE9FF470F7E0C9D7F
:10430000782F914680460C469A4601F1430207D821
:10431000622F0AD8002F00F0D880582F00F0A38019
:1043200004F1420584F842703AE0A7F16303152BCB
:10433000F6D801A151F823F091430008A5430008E5
:1043400021430008214300082143000821430008BD
:10435000A543000821430008214300082143000829
:1043600021430008B1440008D543000893440008E5
:104370002143000821430008D344000821430008DA
:10438000D543000821430008214300089B4400084E
:104390002B681A1D1B682A6004F1420584F842301C
:1043A0000123A3E020682968060601F104030AD569
:1043B0000E682B60002E03DA2D23764284F84330FA
:1043C0005E480A2319E00E682B6010F0400F18BFFA
:1043D00036B2EFE72B682068191D2960010601D568
:1043E0001E6802E04606FBD51E8854486F2F0CBF9E
:1043F00008230A23002184F843106568A560002D76
:10440000A2BF216821F0040121600EB9002D4DD01A
:104410001546B6FBF3F103FB1167C75D05F8017D97
:104420003746BB420E46F4D9082B0BD12368DE0772
:1044300008D5236961689942DEBF302305F8013C45
:1044400005F1FF35521B2261CDF800A04B4603AAAF
:1044500021464046FFF7E2FE01304CD14FF0FF30DD
:1044600004B0BDE8F087354881F8457029682368B5
:1044700051F8046B29601D0614D5DF0744BF43F0D3
:10448000200323601EB9236823F020032360102338
:10449000B0E7236843F0200323607823284884F89A
:1044A0004530E3E7590648BFB6B2E6E71546BBE735
:1044B0002B6826686169181D286035061B6801D5C0
:1044C000196002E07006FBD51980002323611546B0
:1044D000BAE72B681A1D2A601D6862680021284609
:1044E000FCF736FB08B1401B606063682361002362
:1044F00084F84330A8E723692A4649464046D04716
:104500000130ABD023689B0713D4E068039B98422B
:10451000B8BF1846A4E70123324649464046D04773
:1045200001309BD00135E36803995B1AAB42F2DCA2
:10453000EBE7002504F11906F5E700BFED4C000894
:10454000FE4C000838B5064D0023044608462B6093
:1045500000F01CFB431C02D12B6803B1236038BD63
:104560005804002010B50C46B1F90E1000F0B2FA54
:104570000028ABBF636DA3891B1823F48053ACBF25
:104580006365A38110BD2DE9F0411F468B89DB05D2
:1045900005460C46164605D5B1F90E100223002239
:1045A00000F0C8F9A389B4F90E1023F48053A38155
:1045B00032463B462846BDE8F04100F069B810B5E8
:1045C0000C46B1F90E1000F0B5F9431CA38915BFD4
:1045D000606523F4805343F48053A38118BFA38103
:1045E00010BDB1F90E1000F0D3B80000F8B50E46BA
:1045F0001446054618B183690BB9FFF781FB214BBF
:104600009C422BD16C68A369A360A3891A072FD59C
:1046100023696BB323692068C01A6369F6B28342C9
:10462000374604DC2146284600F048F930BBA36831
:10463000013BA36023685A1C22601E70636901302D
:10464000834204D0A389DB0706D50A2E04D1214674
:10465000284600F033F988B93846F8BD0A4B9C4229
:1046600001D1AC68CFE7094B9C4208BFEC68CAE7B0
:104670002146284600F01EF80028CBD04FF0FF3727
:10468000EAE700BF9C4C0008BC4C00087C4C0008CA
:1046900038B5074D04460846114600222A601A46DE
:1046A00000F082FA431C02D12B6803B1236038BDAD
:1046B00058040020324B70B51D6806460C4625B1E3
:1046C000AB6913B92846FFF71BFB2E4B9C420FD159
:1046D0006C68A389B4F90C2019072CD4DD0611D419
:1046E0000923336042F04003A3814FF0FF303EE0E6
:1046F000254B9C4201D1AC68EBE7244B9C4208BFA0
:10470000EC68E6E7580712D5616B41B104F1440348
:10471000994202D0304600F091F900236363A389E7
:1047200023F02403A3810023636023692360A3890A
:1047300043F00803A38123694BB9A38903F42073D1
:10474000B3F5007F03D02146304600F02BF9A08955
:10475000B4F90C2010F001030AD00023A3606369B0
:104760005B42A361236943B910F08000BAD170BDE8
:10477000810758BF6369A360F4E70020F7E700BF33
:104780002C0000209C4C0008BC4C00087C4C00080D
:1047900038B5064D0023044608462B6000F0CEF9DC
:1047A000431C02D12B6803B1236038BD580400209C
:1047B0008A892DE9F041054610070C4658D44B680C
:1047C000002B05DC0B6C002B02DC0020BDE8F08127
:1047D000E66A002EF9D0002312F480522F682B6075
:1047E00032D0606DA3895A0705D56368C01A636B20
:1047F0000BB1236CC01A00230246E66A216A2846E0
:10480000B047431CA38906D129681D292CD82A4A00
:10481000CA40D60728D500226260D90422692260E6
:1048200004D5421C01D12B6803B96065616B2F6010
:104830000029CAD004F14403994202D0284600F06E
:10484000FDF800206063C1E7216A01232846B047D4
:10485000411CC7D12B68002BC4D01D2B01D0162BB7
:1048600001D12F60B1E7A38943F04003A381ADE7F5
:104870000F69002FA9D093070E6808BF4B690F601E
:1048800018BF0023A6EB07088B60B8F1000F9CDD72
:10489000216AA66A43463A462846B047002806DC05
:1048A000A38943F04003A3814FF0FF308EE7074414
:1048B000A8EB0008E9E700BF0100402038B50B690C
:1048C00005460C4613B90025284638BD18B1836942
:1048D0000BB9FFF715FA144B9C421BD16C68B4F965
:1048E0000C30002BEFD0626ED00704D4990502D4AF
:1048F000A06DFFF7A3FA28462146FFF759FF636E24
:10490000DA070546E0D4A3899B05DDD4A06DFFF747
:1049100096FAD9E7054B9C4201D1AC68DFE7044B1E
:104920009C4208BFEC68DAE79C4C0008BC4C0008CD
:104930007C4C000838B5074D044608461146002255
:104940002A601A4600F012F9431C02D12B6803B109
:10495000236038BD5804002070B50E46B1F90E1022
:10496000002996B014461D4608DAB6F90C3000222C
:104970002A601A0610D44FF480630EE06A4600F0F5
:10498000BBF80028F1DB019A02F47042A2F5005353
:104990005A425A412A60EEE740230020236016B0B5
:1049A00070BD00008B8973B59D0706460C4607D580
:1049B00004F14703236023610123636102B070BDEA
:1049C00001AB6A46FFF7C8FF009905463046FFF77E
:1049D00057FA48B9B4F90C309A05EFD423F0030321
:1049E00043F00203A381E3E70D4BB362A389206088
:1049F00043F08003A381009B6361019B20615BB155
:104A0000B4F90E10304600F089F828B1A38923F0DC
:104A1000030343F00103A381A0890543A581CDE7EA
:104A2000993C00080148FFF709BA00BF4A0400207A
:104A30000148FFF704BA00BF4A04002037B5002937
:104A400044D051F8043C0190002BA1F10404B8BFFC
:104A5000E418FFF7E7FF1E4A0198136833B9636053
:104A6000146003B0BDE83040FFF7E2BFA34208D9AD
:104A7000256861198B4201BF19685B68491921607B
:104A8000EDE71A465B680BB1A342FAD911685518D5
:104A9000A5420BD1246821445418A3421160E0D1EF
:104AA0001C685B68536021441160DAE702D90C236B
:104AB0000360D6E7256861198B4204BF19685B68FB
:104AC000636004BF491921605460CAE703B030BD78
:104AD0005004002038B5074D044608461146002210
:104AE0002A601A4600F04AF8431C02D12B6803B131
:104AF000236038BD5804002038B5074D0023044614
:104B0000084611462B6000F021F8431C02D12B68A7
:104B100003B1236038BD00BF5804002038B5064DEE
:104B20000023044608462B6000F018F8431C02D10D
:104B30002B6803B1236038BD58040020024B582273
:104B40001A604FF0FF30704758040020024B582283
:104B50001A604FF0FF30704758040020024B582273
:104B60001A600020704700BF58040020024B5822F2
:104B70001A604FF0FF30704758040020024B582253
:104B80001A604FF0FF30704758040020044A05496E
:104B90001368002B08BF0B46184410601846704776
:104BA0005C04002060040020024B58221A604FF081
:104BB000FF30704758040020F8B500BFF8BC08BCAF
:104BC0009E467047F8B500BFF8BC08BC9E467047CB
:104BD0002F55736572732F646964692F434C696F35
:104BE0006E50726F6A656374732F776865656C5F6A
:104BF000726F735F6361722F4672656552544F53D3
:104C00002F5372632F7461736B732E630000000067
:104C10004572726F723A25732C25640D0A000000EC
:104C200049444C4500000000092563092575092504
:104C3000750925750D0A00004FBB610567ACDD3FA6
:104C4000182D4454FB21E93F9BF681D20B73EF3FB3
:104C5000182D4454FB21F93FE2652F227F2B7A3C2B
:104C6000075C143326A6813CBDCBF07A8807703CE4
:104C7000075C143326A6913C3000002000000000A1
:104C80000000000000000000000000000000000024
:104C90000000000000000000000000000000000014
:104CA0000000000000000000000000000000000004
:104CB00000000000000000000000000000000000F4
:104CC00000000000000000000000000000000000E4
:104CD000000000000000000000000000232D302B29
:104CE0002000686C4C0065666745464700303132ED
:104CF0003334353637383941424344454600303144
:104D000032333435363738396162636465660000A2
:044D1000B5010008E1
:044D14009101000801
:104D18000000FA430000964300009643DC050000BB
:104D2800DC050000DC050000DC050000DC050000F7
:104D3800DC050000DC050000DC0500003000002078
:104D4800000000009C4C0008BC4C00087C4C00088B
:104D5800000000000000000000000000000000004B
:104D6800000000000000000000000000000000003B
:104D7800000000000000000000000000000000002B
:104D8800000000000000000000000000000000001B
:104D9800000000000000000000000000000000000B
:04000005080028695E
:00000001FF
